:100000000209FECA790BFE7EB3001760467E3702F6
:100010003B7A3701267E0801297E370126120AA580
:10002000602B7E08001C7E340100E4120AFC6D3354
:10003000800A095301291953001C0B34BE370126CD
:1000400040F0120B5EE47AB30017020343120B5226
:100050000203437E7301290A377A3701207EB301F8
:1000600039B47D237EB30131B40D02800302034312
:100070007EB30132B442028003020343120B16E442
:100080007AB3013D0203437EB3013DB47D197EB3D3
:100090000135B40D127EB30136B4420B120B16E4D7
:1000A0007AB3013D0203437EB30151B47D197EB39F
:1000B0000149B40D127EB3014AB4420B120B16E48F
:1000C0007AB3013D0203437E3701204D33781A7E17
:1000D000B3012A70147EB3012B700E7EB3012C7015
:1000E000087E3400657A37011C7E370120BE34005B
:1000F0000178437E3400027A3701267E0801297E8A
:10010000370126120AA57006120B520203437E1F06
:100110000237120B394006120B460203437E1F02C0
:1001200037CA1B7E37023B7E08001C1205B71BFE38
:10013000120B5E0203437E370120BE3400FF783D80
:100140007E3400047A3701267E0801297E37012695
:10015000120AA57006120B520203436D337A37015F
:100160001C7E73012B7C476C557E73012C0A374D26
:10017000326D227A1F0237120B5E0203437E370173
:1001800020BE3400FE784A7E3400047A3701267E91
:100190000801297E370126120AA57006120B5202A9
:1001A00003437EB3012BB4010A7E3401007A370287
:1001B0003B800A7E73012C0A377A37023B74017A3E
:1001C000B300177E3401007A37022E120B6A020345
:1001D000437E370120BE3400FD78297E3400027A48
:1001E0003701267E0801297E370126120AA57006EE
:1001F000120B52020343120AD574C1120A74120B75
:100200006A0203437E370120BE34000278307E3418
:1002100000027A3701267E0801297E370126120A5C
:10022000A57006120B520203437E1F0237120B39D0
:100230004006120B46020343120B5E0203437E3755
:100240000120BE340004780674017AB301227E379F
:100250000120BE340003680302032E7E3400027ABC
:100260003701267E0801297E370126120AA570066D
:10027000120B520203437E3700180B347A370018F2
:100280007E73012A0A774D7778047E7401007E34EC
:1002900000807A37022E7D372E34000312085879F9
:1002A0003FFFFF792FFFFD120AD5691FFFFF690F7E
:1002B000FFFD7E340004E4120AFCCA797E1F023777
:1002C000691FFFFD690FFFFB1207F41BFD691FFF8C
:1002D000FF690FFFFD7D3712078B7E330008693FF2
:1002E000FFFF692FFFFD2D377A1B307E73022D69CA
:1002F0001FFFFF690FFFFD2D173970000174306972
:100300003FFFFF692FFFFD2D3739B100027D372EEA
:10031000340003691FFFFF690FFFFD12097F120BF5
:100320006A691FFFFF690FFFFD1203488015120A5B
:10033000D574C1120A747E37011C0B347A37011C44
:10034000120B6A1BFEDA79227F20BE280000780398
:1003500002042E9E5400067E3403417E2400006970
:10036000F100020B1AE0BE78000078197E340341D8
:100370007E240000795100021B1A409F117932003F
:10038000021B2A2022BF2750157E3403417E240001
:1003900000795100021B1A407F679F77801569D74B
:1003A00000020B7AC0BE6800006808BF6238047F94
:1003B0007680EBBE6800006831692200047F022D60
:1003C000122E140006BF067821693600042E340070
:1003D000067F020B162D321B0A30693600020B6AAB
:1003E00020793200021B2A20800779D200021B2AC2
:1003F000C0BE7800006837692700047F072D122EE1
:10040000140006BF027820693200042E3400067FF3
:10041000070B162D321B0A30693200020B2A207995
:100420003700021B7A2022795700021B7A4022CA29
:1004300079E47AB3001674037E34FEF17E24007EE4
:100440007A1BB0802F7E34FEEE7E24007E7E1B70F1
:100450007C476C557E14FEEF7E04007E7E0B700A96
:10046000374D32BE34C350280B7E3400657A3701D5
:100470001C0204FAA281B340CCE47E34FEF17E2457
:10048000007E7A1BB0802A7E34FEEE7E24007E7EC3
:100490001B707C476C557E14FEEF7E04007E7E0B45
:1004A000700A374D32BE3400FA28067EB30123703D
:1004B000492081D37E18001A1209BF6D7780207EF3
:1004C0001800341209BFA281E4337C7B7CBF600535
:1004D0003E701478FB4E7300167A7300160B74BED0
:1004E00074000848DA7E18001A1209BF74017AB342
:1004F00001237E7300167A730232DA7922CA797E7A
:1005000034FE107E24007E7E1BB054FD7A1BB07E2C
:1005100034FE407E24007E7E1BB044027A1BB07EF7
:100520001801F41209BF6D778018A281B3500A7EBA
:100530003700130B347A3700137E18000A1209BFF4
:100540000B74BE7401F448E27E3700134D336864C7
:100550006D337A3700137E34FE107E24007E7E1BBE
:10056000B054FD7A1BB07E34FE407E24007E7E1B9C
:10057000B054FD7A1BB07E1801F41209BF6D77806C
:1005800018A281B3500A7E3700130B347A37001358
:100590007E18000A1209BF0B74BE7401F448E27E93
:1005A0003700134D33680D7E370013BE340000282A
:1005B000031208FADA79227DF3A9D7C775F53069F5
:1005C0003FFFFD692FFFFB7DE35EE401FF7833759C
:1005D000C503693FFFFD692FFFFB7CB5F5F6693F59
:1005E000FFFD692FFFFB7CB6F5C3695FFFFD694F17
:1005F000FFFBF5C475C65A75C6A500000000A92406
:10060000C7FC75C502693FFFFD692FFFFB7CB5F58F
:10061000F6693FFFFD692FFFFB7CB6F5C3695FFFFD
:10062000FD694FFFFBF5C47E0BB0F5C275C65A7568
:10063000C6A500000000A924C7FC693FFFFD692F83
:10064000FFFB0B1C793FFFFD792FFFFB0B147DEFA8
:100650001BE47DFE78AF75C70075C50075C60075D3
:10066000C3FF75C4FF22CA796D776D337A370018DE
:10067000E47AB301237E0801297E340102E4120AE0
:10068000FC6D77807112042F7EB3001760207E37D7
:10069000023B0B35BE37001868627E73001619776F
:1006A00001297E3700180B347A37001880467E34D3
:1006B000FEEE7E24007E7E1B707C476C557E14FE11
:1006C000EF7E04007E7E0B700A374D32BE3400FA96
:1006D00028086D337A37001880227E730016197748
:1006E0000129BE740101780C7E37011C2E340014E0
:1006F0007A37011C0B74BE7401024889120003DAB8
:10070000792274307E34FE927E24007E7A1BB0E41F
:100710007E34FEB57E24007E7A1BB0E47E34FEB7C4
:100720007E24007E7A1BB074FF7E34FEF27E2400AD
:100730007E7A1BB074FF7E34FEF37E24007E7A1B2B
:10074000B0E47E34FEEE7E24007E7A1BB0E47E347C
:10075000FEEF7E24007E7A1BB0E47E34FEF07E2421
:10076000007E7A1BB0E47E34FEF17E24007E7A1B8C
:10077000B0E47E34FEE47E24007E7A1BB074017EF9
:1007800034FEE07E24007E7A1BB0227D437F706DB4
:10079000557A57023F6D3380467F072D137E0BA09D
:1007A0006C5580347E07023F5E0400017CBA540120
:1007B0000A1B6D1068147E17023F1E147A17023F41
:1007C0006E14A0017A17023F800A7E17023F1E14A2
:1007D0007A17023F1EA00B50BE500840C70B34BD15
:1007E0003440B67E73023F7A7300087E7302407A0B
:1007F00073022D227F717F60A9D7C775F53075C54B
:10080000016D33803B7D131A021A002F077CB1F56E
:10081000F67D131A021A002F077CB2F5C37D531A16
:100820004A1A482F27F5C475C65A75C6A500000098
:1008300000A924C7FCE5C27F062D137A0BB00B3448
:10084000692FFFFDBD3248BD75C70075C50075C66F
:100850000075C3FF75C4FF227D537E3403417E249F
:100860000000691100020B1A00BE08000078039F07
:10087000112269400004BD4550047F1080E49D456D
:10088000BE4400185012695000020B0A4079510012
:10089000021B1A407F1080149E4400067940000419
:1008A0007F102D342E340006795100042E340006BA
:1008B00022120B28120702120A3D1204FD7E34FE9A
:1008C000407E24007E7E1BB054FD7A1BB07E34FE39
:1008D000107E24007E7E1BB044027A1BB07E730122
:1008E000287A73000D12093E1206667E37011CBE7F
:1008F00034006428F31208FA80EEC2AFA9D7C77596
:10090000F53075C50175F60075C30075C40075C670
:100910005A75C6A500000000A924C7FCE5C275C72A
:100920000075C50075C60075C3FF75C4FFBEB00174
:1009300068086D337A37011C800375C720227E3426
:100940000030CA399F117E0801291207F41BFD7E71
:10095000B3012BBEB00A68267EB3012BBEB0FF6880
:100960001D7EB3012B6017740A7AB3012B9F11CA45
:100970001B7E0801297E3400301205B71BFE22CAF7
:100980003BCA397F300BFD6D33793FFFFF801F6914
:100990003FFFFF2D377D267E1BB0120A747E1800A4
:1009A000341209BF693FFFFF0B34793FFFFF692F06
:1009B000FFFD693FFFFFBD3248D51BFEDA3B227FBA
:1009C00071E47E34FEEE7E24007E7A1BB0E47E3439
:1009D000FEEF7E24007E7A1BB07E34FEEE7E240085
:1009E0007E7E1B707C476C557E14FEEF7E04007E7D
:1009F0007E0B700A374D326D22BF1740DC227584A2
:100A0000017E44041FE47A49B01B4478F97EF80261
:100A1000407E0400FF7E140B740B0A405D44681A8C
:100A2000692000020B0E0B44800A7E0BB07A29B0BD
:100A30000B240B0C1B4478F280DF0208B15394FDA9
:100A40004393027E34FE187E24007E7E1BB054FD4C
:100A50007A1BB07E34FE307E24007E7E1BB04402C2
:100A60007A1BB07E34FE107E24007E7E1BB04402D2
:100A70007A1BB022CA797CFB6CEEC28180167E188C
:100A800000341209BF7CBF30E004D2818002C281F1
:100A90000BE00EF0BEE00848E57E1800341209BFF6
:100AA000D281DA7922CA797D537F707F172D357E06
:100AB0001BE07F172D3529F100017F077D351207D7
:100AC0008BBEE30008780ABEF3022D78047401801F
:100AD00001E4DA79224394025393FD7E34FE107EC2
:100AE00024007E7E1BB054FD7A1BB07E34FE407E17
:100AF00024007E7E1BB054FD7A1BB022CAF87DF321
:100B00007CFB7F207F1080071BF47A2BF00B544D69
:100B1000FF78F5DAF822120AD57E08000A7E340042
:100B20000912097F120B6A22C2AFA9D7BA75EA006F
:100B300075E90143BA80D2AF227F01BE08000040B0
:100B400003D38001C322120AD574C1120A74120B96
:100B50006A22120AD574C2120A74120B6A22120A8D
:100B6000D57430120A74120B6A22120A3D6D337A60
:100B700037022B220009000A0000000000000000DC
:100B800000000200130000000100150A0001001619
:100B90000000010017000002001800000002001A07
:100BA00000000002011C00000001011F0100020101
:100BB00020000000010122000001012300000101CA
:090BC000240000010128000000DE
:00000001FF
