:10000000020B5ACA3B7EB3000D60607E3700217A36
:100010003700167E1401007E0400017E37001612A0
:100020000A0760417E1400007E0400017E34010056
:10003000E4120B2A6D33801C7D232E2401007A519B
:10004000827A4183E07D232E2400007A51827A4116
:1000500083F00B34BE37001640DE120BAFE47AB3E8
:10006000000D020368120BA3020368900100E00A6E
:100070003B7A370012900110E0B47D23900108E034
:10008000B40D028003020368900109E0B4420280CB
:1000900003020368120B44E4900114F00203689019
:1000A0000114E0B47D1990010CE0B40D1290010D23
:1000B000E0B4420B120B44E4900114F00203689088
:1000C0000128E0B47D19900120E0B40D12900121C7
:1000D000E0B4420B120B44E4900114F00203687E7A
:1000E0003700124D33781A900101E070149001022C
:1000F000E0700E900103E070087E3400657A3700EE
:10010000107E370012BE34000178557E3400027A2A
:100110003700167E1401007E0400017E370016129F
:100120000A077006120BA30203687E1F001D120B44
:10013000844006120B970203687E1F001DCA1B7EB7
:100140003700216D227E1400007E0400011205CCD0
:100150001BFE4006120B97020368120BAF020368E6
:100160007E370012BE3400FF78457E3400047A37B3
:1001700000167E1401007E0400017E370016120A6C
:10018000077006120BA30203686D337A37001090D4
:100190000102E07C4B6C55900103E00A3B4D326D4F
:1001A000222E2400FF7A1F001D120BAF0203687E6F
:1001B000370012BE3400FE784E7E3400047A3700D9
:1001C000167E1401007E0400017E370016120A0715
:1001D0007006120BA3020368900102E0B4010A7ECC
:1001E0003401007A370021800A900103E00A3B7A4B
:1001F00037002174017AB3000D7E3401007A370094
:100200001B120A960203687E370012BE3400FD7886
:100210002D7E3400027A3700167E1401007E040021
:10022000017E370016120A077006120BA30203683C
:10023000120A3774C11209D6120A960203687E3771
:100240000012BE34000278347E3400027A37001681
:100250007E1401007E0400017E370016120A07702A
:1002600006120BA30203687E1F001D120B844006BA
:10027000120B97020368120BAF0203687E3700125D
:10028000BE340004780674017AB300147E3700127D
:10029000BE34000368030203537E3400027A370041
:1002A000167E1401007E0400017E370016120A0734
:1002B0007006120BA30203687E37000E0B347A37E8
:1002C000000E900101E00A6B4D6678047E64010027
:1002D0007E3400807A37001B120A377D362E3400B8
:1002E000031208E87D737D177E0400017E3400024E
:1002F000E4120B2ACA697D177E0400017E1F001DCF
:10030000120B701BFD7D177E0400017D3612087FE5
:100310007EB300087D372D367A71827A6183F07E54
:10032000B3001A7D372D360B347A71827A6183F0EF
:1003300074307D372D360B357A71827A6183F07D8A
:10034000362E3400037D177E040001120996120A2E
:10035000968015120A3774C11209D67E3700100B29
:10036000347A370010120A96DA3B227E1402027E9B
:100370000400017E340400120AC3C2AF75EA00759E
:10038000E90175BA8074047E34FE017E24007E7A11
:100390001BB07E34FDEC7E24007E7E1BB0F59FA951
:1003A000D19DA9C09D74807E34FE027E24007E7A99
:1003B0001BB07E34FE027E24007E7E1BB030E0F255
:1003C00074407E34FE007E24007E7A1BB053DC0F26
:1003D00043DCA0000000000074017E34FE017E2496
:1003E000007E7A1BB07E34FE007E24007E7E1BB031
:1003F00044087A1BB074017E34FE0B7E24007E7AA2
:100400001BB074017E34FE937E24007E7A1BB0A95B
:10041000D79DA9C69DD2AF742F7E34FEA07E240046
:100420007E7A1BB0438E805389F0438901758A0020
:10043000758C00C28DD28C7594007593017E34FE4C
:10044000307E24007E7E1BB044017A1BB0E47E34F3
:10045000FE187E24007E7A1BB07E34FE107E2400BF
:100460007E7E1BB044017A1BB075F5301204AA7E63
:1004700034FE107E24007E7E1BB054FE7A1BB07EBC
:1004800034FE407E24007E7E1BB054FE7A1BB07585
:1004900094007593011209411207437E370010BE84
:1004A00034006428F31207EC80EECA797E34FE1023
:1004B0007E24007E7E1BB054FE7A1BB07E34FE404C
:1004C0007E24007E7E1BB044017A1BB075940075BB
:1004D00093017E1801F4120B0F6D778018A280B380
:1004E000500A7E37000A0B347A37000A7E18000A59
:1004F000120B0F0B74BE7401F448E27E37000ABE83
:100500003401C228031207EC7E34FE107E24007EE4
:100510007E1BB044017A1BB07E34FE407E24007EF8
:100520007E1BB054FE7A1BB07594007593017E1843
:1005300001F4120B0F6D778018A280B3500A7E373A
:10054000000A0B347A37000A7E18000A120B0F0BD0
:1005500074BE7401F448E27E37000A4D33686A6D58
:10056000337A37000A7E34FE107E24007E7E1BB074
:1005700054FE7A1BB07E34FE407E24007E7E1BB08B
:1005800054FE7A1BB07594007593017E1801F41225
:100590000B0F6D778018A280B3500A7E37000A0BCC
:1005A000347A37000A7E18000A120B0F0B74BE74DF
:1005B00001F448E27E37000A4D33680D7E37000AA9
:1005C000BE34000028031207ECDA79227F717F60C5
:1005D000A9D7C7693FFFFD692FFFFB5E3401FF7894
:1005E00036A9C4C775C503693FFFFD692FFFFB7CB2
:1005F000B5F5F6693FFFFD692FFFFB7CB6F5C369D2
:100600005FFFFD694FFFFBF5C475C65A75C6A500AF
:10061000000000A924C7FC75C5029F118046A9C42B
:10062000C7691FFFFD690FFFFB2F017CB1F5F6695C
:100630001FFFFD690FFFFB2F017CB2F5C3695FFF50
:10064000FD694FFFFB2F21F5C47D132D1D7D0C7E11
:100650000BB0F5C275C65A75C6A500000000A924E6
:10066000C7FC0B1CBF1740B675C70075C50075C623
:100670000075C3FF75C4FF7D3FCA39693FFFFB6941
:100680002FFFF97F06120A671BFD7003D38001C399
:1006900022CA79E47AB3000C758C00758A00801E3A
:1006A000E58C7C4B6C55E58A0A3B4D32BE344E20BE
:1006B000280C7E3400657A370010C3020740A28000
:1006C000B340DD758C00758A00801BE58C7C4B6C1B
:1006D00055E58A0A3B4D32BE34010428097EB30039
:1006E000156003C3805A2080E27E18001A120B0F97
:1006F000308003C3804A6D7780227E180034120B4D
:100700000F7C6FA280E4337C7B7CB660053E701466
:1007100078FB4E73000C7A73000C0B74BE740008E7
:1007200048D87E180034120B0FA280B35003C38048
:100730000F74017AB300157E73000C7A730009D32D
:10074000DA7922CA3B6D337A37000EE47AB30015AA
:100750007E1401007E0400017E340102E4120B2AA3
:10076000120A969F33807312069150747EB3000D67
:1007700060297E3700210B35BE37000E68627EB3DC
:10078000000C7D372E3401007A71827A6183F07E0D
:1007900037000E0B347A37000E803DE58C7C4B6CB5
:1007A00055E58A0A3B4D32BE3400FA28086D337A8B
:1007B00037000E802B7EB3000C7D372E3401007A7B
:1007C00071827A6183F0BE380101780C7E370010A7
:1007D0002E3400147A3700100B3CBE3801024087DB
:1007E0007EB300156003120003DA3B227E34F8006A
:1007F0007E2400FF7E1BA07EF410007EE400FF9F9D
:10080000557E680040740A2F661478FB2F657E08B9
:100810000100BEA00168086D337A370010805F695F
:100820003700020B7A20BF15400B693700020B7AA4
:1008300020BF1628086D337A3700108041695700B1
:1008400006694700047E3410007E2400FFBF21406B
:100850001B740A2F001478FB2E0400FF2E081000D2
:100860006937000669270004BF1028086D337A37FE
:100870000010800A7E3410007E2400FF9918227D2B
:10088000437F706D557A5700236D3380467F072D67
:10089000137E0BA06C5580347E0700235E0400019C
:1008A0007CBA54010A1B6D1068147E1700231E14B5
:1008B0007A1700236E14A0017A170023800A7E178E
:1008C00000231E147A1700231EA00B50BE500840B0
:1008D000C70B34BD3440B67E7300247A7300087EA3
:1008E0007300237A73001A227D537E3401257E24FF
:1008F0000000691100020B1A00BE08000078039F77
:10090000112269400004BD4550047F1080E49D45DC
:10091000BE4400185012695000020B0A4079510081
:10092000021B1A407F1080149E4400067940000488
:100930007F102D342E340006795100042E34000629
:10094000227E340030CA397E34F8007E2400FF7ED7
:100950001401007E040001120B701BFD900102E0E7
:10096000BEB00C6830900102E0BEB0FF6827900175
:1009700002E06021740C900102F07E34F8007E24C5
:1009800000FFCA1B7E1800307E1401007E040001A7
:100990001205CC1BFE22CA3BCA397F300BFD6D33DA
:1009A000793FFFFF801F693FFFFF2D377D267E1BAC
:1009B000B01209D67E180034120B0F693FFFFF0BEF
:1009C00034793FFFFF692FFFFD693FFFFFBD3248CC
:1009D000D51BFEDA3B22CA797CFBC2807E1800342C
:1009E000120B0F6CEE80167CBF30E004D2808002C8
:1009F000C2800BE01EF07E180034120B0FBEE00820
:100A000040E5D280DA7922CA797D537F707F172D35
:100A1000357E1BE07F172D3529F100017F077D35DD
:100A200012087FBEE30008780ABEF3001A78047447
:100A3000018001E4DA7922D2807E34FE107E240027
:100A40007E7E1BB054FE7A1BB07E34FE407E2400B6
:100A50007E7E1BB054FE7A1BB04394015393FE7EFE
:100A6000180034120B0F227F217F70693FFFFD4D6C
:100A7000337802E4221B34793FFFFD7E2B607E7BBE
:100A800070BC76680ABC76280374012274FF220BBE
:100A9000F40B5480D6227E34FE107E24007E7E1B12
:100AA000B044017A1BB07E34FE407E24007E7E1B63
:100AB000B054FE7A1BB07594007593016D337A378C
:100AC0000018227DF37F207E3401257E24000079EA
:100AD0001100021B1A009F11793200021B2A207D8F
:100AE0003F9E34000679320004227F217F707F1000
:100AF000800A7E2B307A1B300B540B34691FFFFDAC
:100B00007D011B04790FFFFD4D1178E67F17227FD1
:100B100071758C00758A00E58C7C4B6C55E58A0AF2
:100B20003B4D326D22BF1740EE22CAF87DF37CFBAD
:100B30007F207F1080071BF47A2BF00B544DFF7839
:100B4000F5DAF822120A377E140FE87E0400FF7EE1
:100B5000340009120996120A96227584017E440413
:100B60001FE47A49B01B4478F97EF8002402036B35
:100B70007F217F70693FFFFDCA397F127F07120A0C
:100B8000EA1BFD227F217E3410007E2400FFBF215E
:100B90004003D38001C322120A3774C11209D6124E
:100BA0000A9622120A3774C21209D6120A96221223
:100BB0000A3774301209D6120A962275ED21A5EF74
:100BC000540FA2E0640822A5EC6480A5FC22A5ECE9
:100BD000547FA5FC2275ED22A5EF2275ED25A5EF2A
:100BE000227C7475ED27227D3275ED282275ED3358
:100BF000A5EF22A5FF75ED342275ED35A5EF22A5F1
:100C0000FF75ED36226D0075ED02226D0075ED0465
:100C10002275ED1C2275ED1D2275ED1E2275ED1F4E
:100C20002275ED202275ED2D2275ED2E2275ED2F0A
:100C30002275ED302275ED292275ED322275ED31E8
:0D0C40002275ED022275ED042275ED0622ED
:100FE0005925E3DA4EB863D93437310035060601A6
:010FF00030D0
:00000001FF
