:10000000020B60CA3B7EB3002260607E3700207A1C
:1000100037001C7E1400007E0400017E37001C1295
:100020000A0560417E1401027E0400017E34010055
:10003000E4120B306D33801C7D232E2400007A5196
:10004000827A4183E07D232E2401027A51827A4113
:1000500083F00B34BE37001C40DE120B9DE47AB3F4
:100060000022020368120BB5020368900000E00A48
:100070003B7A370012900010E0B47D23900008E036
:10008000B40D028003020368900009E0B4420280CC
:1000900003020368120B4AE4900014F00203689014
:1000A0000014E0B47D1990000CE0B40D1290000D26
:1000B000E0B4420B120B4AE4900014F00203689083
:1000C0000028E0B47D19900020E0B40D12900021CA
:1000D000E0B4420B120B4AE4900014F00203687E75
:1000E0003700124D33781A900001E070149000022E
:1000F000E0700E900003E070087E3400657A3700EF
:10010000087E370012BE34000178557E3400027A32
:1001100037001C7E1400007E0400017E37001C1294
:100120000A057006120BB50203687E1F0018120B39
:100130008A4006120BA90203687E1F0018CA1B7EA4
:100140003700206D227E1401027E0400011206C2D7
:100150001BFE4006120BA9020368120B9D020368E6
:100160007E370012BE3400FF78457E3400047A37B3
:10017000001C7E1400007E0400017E37001C120A61
:10018000057006120BB50203686D337A37000890CC
:100190000002E07C4B6C55900003E00A3B4D326D51
:1001A000222E2400FF7A1F0018120B9D0203687E86
:1001B000370012BE3400FE784E7E3400047A3700D9
:1001C0001C7E1400007E0400017E37001C120A050C
:1001D0007006120BB5020368900002E0B4010A7EBB
:1001E0003401007A370020800A900003E00A3B7A4D
:1001F00037002074017AB300227E3401007A370080
:1002000010120A940203687E370012BE3400FD7893
:100210002D7E3400027A37001C7E1400007E04001C
:10022000017E37001C120A057006120BB502036826
:10023000120A3574C11209D4120A940203687E3777
:100240000012BE34000278347E3400027A37001C7B
:100250007E1400007E0400017E37001C120A057027
:1002600006120BB50203687E1F0018120B8A4006A7
:10027000120BA9020368120B9D0203687E3700125D
:10028000BE340004780674017AB300147E3700127D
:10029000BE34000368030203537E3400027A370041
:1002A0001C7E1400007E0400017E37001C120A052B
:1002B0007006120BB50203687E37000D0B347A37D7
:1002C000000D900001E00A6B4D6678047E64010029
:1002D0007E3400807A370010120A357D362E3400C5
:1002E000031208B27D737D177E0400017E34000284
:1002F000E4120B30CA697D177E0400017E1F0018CE
:10030000120B761BFD7D177E0400017D3612084915
:100310007EB3001E7D372D367A71827A6183F07E3E
:10032000B3001F7D372D360B347A71827A6183F0EA
:1003300074307D372D360B357A71827A6183F07D8A
:10034000362E3400037D177E040001120960120A64
:10035000948015120A3574C11209D47E3700080B37
:10036000347A370008120A94DA3B227E1402027EA5
:100370000400017E340400120AC1C2AF75EA0075A0
:10038000E90075BA80439D0375A61A759F6B43DC1F
:100390008053DC9F43DC4000000000007E34FE0000
:1003A0007E24007E7E1BB044807A1BB07E34FE002B
:1003B0007E24007E7E1BB044407A1BB074017E34E4
:1003C000FE057E24007E7A1BB074807E34FE077E9C
:1003D00024007E7A1BB07E34FE077E24007E7E1BC6
:1003E000B030E0F2539D3F439D80D2AFE47E34FEB7
:1003F000F07E24007E7A1BB074277E34FEF17E24CA
:10040000007E7A1BB074FF7E34FEF27E24007E7A7A
:100410001BB074FF7E34FEF37E24007E7A1BB07422
:10042000FF7E34FEEE7E24007E7A1BB074FF7E34A5
:10043000FEEF7E24007E7A1BB07E34FEE07E240038
:100440007E7E1BB044017A1BB07594007593027ECA
:1004500034FE307E24007E7E1BB044027A1BB0E462
:100460007E34FE187E24007E7A1BB07E34FE107E21
:1004700024007E7E1BB044027A1BB075F52812045E
:10048000BC7E34FE107E24007E7E1BB054FD7A1BA1
:10049000B07E34FE407E24007E7E1BB054FD7A1B6D
:1004A000B075940075930212090B1207877E37000E
:1004B00008BE34006428F3120B0D80EECA797E3436
:1004C000FE107E24007E7E1BB054FD7A1BB07E346D
:1004D000FE407E24007E7E1BB044027A1BB07594E1
:1004E000007593027E1801F41209A06D778018A29E
:1004F00081B3500A7E37000A0B347A37000A7E181F
:10050000000A1209A00B74BE7401F448E27E3700A1
:100510000ABE3401C22803120B0D7E34FE107E2465
:10052000007E7E1BB044027A1BB07E34FE407E24E7
:10053000007E7E1BB054FD7A1BB07594007593024B
:100540007E1801F41209A06D778018A281B3500AB9
:100550007E37000A0B347A37000A7E18000A120927
:10056000A00B74BE7401F448E27E37000A4D336874
:100570006A6D337A37000A7E34FE107E24007E7E58
:100580001BB054FD7A1BB07E34FE407E24007E7E7C
:100590001BB054FD7A1BB07594007593027E180150
:1005A000F41209A06D778018A281B3500A7E37003B
:1005B0000A0B347A37000A7E18000A1209A00B745D
:1005C000BE7401F448E27E37000A4D33680D7E3771
:1005D000000ABE3400002803120B0DDA7922CA7912
:1005E000E47AB3001774017E34FEE77E24007E7A3D
:1005F0001BB080307E34FEEE7E24007E7E1B707C3D
:10060000476C557E14FEEF7E04007E7E0B700A3729
:100610004D32BE344E20280C7E3400657A370008F7
:10062000C30206BFA281B340CB74017E34FEE77ED5
:1006300024007E7A1BB0802D7E34FEEE7E24007E68
:100640007E1B707C476C557E14FEEF7E04007E7E20
:100650000B700A374D32BE34010428097EB3000FF7
:100660006003C3805A2081D07E18001A1209A0307E
:100670008103C3804A6D7780227E1800341209A05E
:100680007C6FA281E4337C7B7CB660053E7014787D
:10069000FB4E7300177A7300170B74BE7400084882
:1006A000D87E1800341209A0A281B35003C3800F72
:1006B00074017AB3000F7E7300177A73000CD3DADB
:1006C00079227F717F60A9D7C7693FFFFD692FFF3E
:1006D000FB5E3401FF7836A9C4C775C503693FFFC7
:1006E000FD692FFFFB7CB5F5F6693FFFFD692FFF24
:1006F000FB7CB6F5C3695FFFFD694FFFFBF5C47571
:10070000C65A75C6A500000000A924C7FC75C5021D
:100710009F118046A9C4C7691FFFFD690FFFFB2F0A
:10072000017CB1F5F6691FFFFD690FFFFB2F017C0E
:10073000B2F5C3695FFFFD694FFFFB2F21F5C47D53
:10074000132D1D7D0C7E0BB0F5C275C65A75C6A55E
:1007500000000000A924C7FC0B1CBF1740B675C7DA
:100760000075C50075C60075C3FF75C4FF7D3FCA1F
:1007700039693FFFFB692FFFF97F06120A651BFDF0
:100780007003D38001C322CA3B6D337A37000DE476
:100790007AB3000F7E1400007E0400017E34010253
:1007A000E4120B30120A949F330208341205DE4023
:1007B0000302083D7EB3002260297E3700200B35FE
:1007C000BE37000D68777EB300177D372E340000EA
:1007D0007A71827A6183F07E37000D0B347A3700AC
:1007E0000D804F7E34FEEE7E24007E7E1B707C47A3
:1007F0006C557E14FEEF7E04007E7E0B700A374D32
:1008000032BE3400FA28086D337A37000D802E7E10
:10081000B300177D372E3400007A71827A6183F03D
:10082000BE380101780C7E3700082E3400147A3768
:1008300000080B3CBE38010250030207AC7EB30037
:100840000F6003120003DA3B227D437F706D557AFF
:100850005700236D3380467F072D137E0BA06C5508
:1008600080347E0700235E0400017CBA54010A1B19
:100870006D1068147E1700231E147A1700236E145F
:10088000A0017A170023800A7E1700231E147A170E
:1008900000231EA00B50BE500840C70B34BD34408F
:1008A000B67E7300247A73001E7E7300237A730071
:1008B0001F227D537E3401257E2400006911000231
:1008C0000B1A00BE08000078039F11226940000443
:1008D000BD4550047F1080E49D45BE440018501271
:1008E000695000020B0A40795100021B1A407F1028
:1008F00080149E440006794000047F102D342E346D
:100900000006795100042E340006227E340030CADD
:10091000397E34F8007E2400FF7E1400007E04003F
:1009200001120B761BFD900002E0BEB00C68309007
:100930000002E0BEB0FF6827900002E06021740C66
:10094000900002F07E34F8007E2400FFCA1B7E185F
:1009500000307E1400007E0400011206C21BFE223D
:10096000CA3BCA397F300BFD6D33793FFFFF801FD3
:10097000693FFFFF2D377D267E1BB01209D47E18FC
:1009800000341209A0693FFFFF0B34793FFFFF6974
:100990002FFFFD693FFFFFBD3248D51BFEDA3B222A
:1009A0007F7174017E34FEE77E24007E7A1BB07E68
:1009B00034FEEE7E24007E7E1B707C476C557E14D8
:1009C000FEEF7E04007E7E0B700A374D326D22BF33
:1009D0001740DC22CA797CFBC2817E1800341209E0
:1009E000A06CEE80167CBF30E004D2818002C28110
:1009F0000BE01EF07E1800341209A0BEE00840E5AE
:100A0000D281DA7922CA797D537F707F172D357EA6
:100A10001BE07F172D3529F100017F077D35120876
:100A200049BEE3001E780ABEF3001F7804740180FB
:100A300001E4DA7922D2817E34FE107E24007E7EAB
:100A40001BB054FD7A1BB07E34FE407E24007E7EB7
:100A50001BB054FD7A1BB04394025393FD7E1800E3
:100A6000341209A0227F217F70693FFFFD4D33784A
:100A700002E4221B34793FFFFD7E2B607E7B70BC3D
:100A800076680ABC76280374012274FF220BF40BEB
:100A90005480D6227E34FE107E24007E7E1BB0441D
:100AA000027A1BB07E34FE407E24007E7E1BB05452
:100AB000FD7A1BB07594007593026D337A3700157B
:100AC000227DF37F207E3401257E240000791100F1
:100AD000021B1A009F11793200021B2A207D3F9EC3
:100AE00034000679320004227F217F707F10800A53
:100AF0007E2B307A1B300B540B34691FFFFD7D01B8
:100B00001B04790FFFFD4D1178E67F17227E34F824
:100B1000007E2400FF7E1BB0BEB00168086D337AF2
:100B2000370008800A7E3410007E2400FF991822C6
:100B3000CAF87DF37CFB7F207F1080071BF47A2BA3
:100B4000F00B544DFF78F5DAF822120A357E140FB7
:100B5000E87E0400FF7E340009120960120A942224
:100B60007584017E44041FE47A49B01B4478F97E01
:100B7000F8002402036B7F217F70693FFFFDCA39B3
:100B80007F127F07120AE81BFD227F217E341000AE
:100B90007E2400FFBF214003D38001C322120A3507
:100BA00074301209D4120A9422120A3574C112093F
:100BB000D4120A9422120A3574C21209D4120A9469
:100BC0002275ED21A5EF540FA2E0640822A5EC6484
:100BD00080A5FC22A5EC547FA5FC2275ED22A5EF93
:100BE0002275ED25A5EF227C7475ED27227D3275E7
:100BF000ED282275ED33A5EF22A5FF75ED342275A2
:100C0000ED35A5EF22A5FF75ED36226D0075ED02DD
:100C1000226D0075ED042275ED1C2275ED1D227507
:100C2000ED1E2275ED1F2275ED202275ED2D22752A
:100C3000ED2E2275ED2F2275ED302275ED292275EE
:100C4000ED322275ED312275ED022275ED0422752B
:030C5000ED06228C
:100FE0005925E3DA4EB863D93437310135060601A5
:010FF00030D0
:00000001FF
