:10000000020C1CCA3B7EB3000D60607E3700217A73
:100010003700167E1401007E0400017E37001612A0
:100020000AE460417E1400007E0400017E34010079
:10003000E4120BEC6D33801C7D232E2401007A51D9
:10004000827A4183E07D232E2400007A51827A4116
:1000500083F00B34BE37001640DE120C71E47AB325
:10006000000D020368120C65020368900100E00AAB
:100070003B7A370012900110E0B47D23900108E034
:10008000B40D028003020368900109E0B4420280CB
:1000900003020368120C06E4900114F00203689056
:1000A0000114E0B47D1990010CE0B40D1290010D23
:1000B000E0B4420B120C06E4900114F002036890C5
:1000C0000128E0B47D19900120E0B40D12900121C7
:1000D000E0B4420B120C06E4900114F00203687EB7
:1000E0003700124D33781A900101E070149001022C
:1000F000E0700E900103E070087E3400657A3700EE
:10010000107E370012BE34000178557E3400027A2A
:100110003700167E1401007E0400017E370016129F
:100120000AE47006120C650203687E1F001D120CA3
:10013000464006120C590203687E1F001DCA1B7E32
:100140003700216D227E1400007E04000112070397
:100150001BFE4006120C59020368120C7102036860
:100160007E370012BE3400FF78457E3400047A37B3
:1001700000167E1401007E0400017E370016120A6C
:10018000E47006120C650203686D337A3700109034
:100190000102E07C4B6C55900103E00A3B4D326D4F
:1001A000222E2400FF7A1F001D120C710203687EAC
:1001B000370012BE3400FE784E7E3400047A3700D9
:1001C000167E1401007E0400017E370016120AE438
:1001D0007006120C65020368900102E0B4010A7E09
:1001E0003401007A370021800A900103E00A3B7A4B
:1001F00037002174017AB3000D7E3401007A370094
:100200001B120B730203687E370012BE3400FD78A8
:100210002D7E3400027A3700167E1401007E040021
:10022000017E370016120AE47006120C650203689C
:10023000120B1474C1120AB3120B730203687E37D7
:100240000012BE34000278347E3400027A37001681
:100250007E1401007E0400017E370016120AE4704D
:1002600006120C650203687E1F001D120C46400634
:10027000120C59020368120C710203687E370012D7
:10028000BE340004780674017AB300147E3700127D
:10029000BE34000368030203537E3400027A370041
:1002A000167E1401007E0400017E370016120AE457
:1002B0007006120C650203687E37000E0B347A3725
:1002C000000E900101E00A6B4D6678047E64010027
:1002D0007E3400807A37001B120B147D362E3400DA
:1002E000031209867D737D177E0400017E340002AF
:1002F000E4120BECCA697D177E0400017E1F001D0D
:10030000120C321BFD7D177E0400017D3612091D83
:100310007EB300087D372D367A71827A6183F07E54
:10032000B3001A7D372D360B347A71827A6183F0EF
:1003300074307D372D360B357A71827A6183F07D8A
:10034000362E3400037D177E040001120A34120B8E
:10035000738015120B1474C1120AB37E3700100B90
:10036000347A370010120B73DA3B227E1402027EBD
:100370000400017E340400120BA0C2AF75EA0075C0
:10038000E90175BA8074047E34FE017E24007E7A11
:100390001BB07E34FDEC7E24007E7E1BB0F59FA951
:1003A000D19DA9C09D74807E34FE027E24007E7A99
:1003B0001BB07E34FE027E24007E7E1BB030E0F255
:1003C00074407E34FE007E24007E7A1BB053DC0F26
:1003D00043DCA0000000000074017E34FE017E2496
:1003E000007E7A1BB07E34FE007E24007E7E1BB031
:1003F00044087A1BB074017E34FE0B7E24007E7AA2
:100400001BB074017E34FE937E24007E7A1BB0A95B
:10041000D79DA9C69DD2AFE47E34FEF07E24007E37
:100420007A1BB0742F7E34FEF17E24007E7A1BB0DE
:1004300074FF7E34FEF27E24007E7A1BB074FF7E51
:1004400034FEF37E24007E7A1BB074FF7E34FEEE11
:100450007E24007E7A1BB074FF7E34FEEF7E240083
:100460007E7A1BB07E34FEE07E24007E7E1BB0448C
:10047000017A1BB07594007593017E34FE307E24A2
:10048000007E7E1BB044017A1BB0E47E34FE187EF1
:1004900024007E7A1BB07E34FE107E24007E7E1BFC
:1004A000B044017A1BB075F5301204E77E34FE10BB
:1004B0007E24007E7E1BB054FE7A1BB07E34FE404C
:1004C0007E24007E7E1BB054FE7A1BB075940075AE
:1004D00093011209DF1207C87E370010BE34006492
:1004E00028F312088A80EECA797E34FE107E24003A
:1004F0007E7E1BB054FE7A1BB07E34FE407E24000C
:100500007E7E1BB044017A1BB07594007593017E0A
:100510001801F4120A746D778018A280B3500A7E15
:1005200037000A0B347A37000A7E18000A120A7460
:100530000B74BE7401F448E27E37000ABE3401C277
:10054000280312088A7E34FE107E24007E7E1BB0B3
:1005500044017A1BB07E34FE407E24007E7E1BB0B8
:1005600054FE7A1BB07594007593017E1801F41245
:100570000A746D778018A280B3500A7E37000A0B88
:10058000347A37000A7E18000A120A740B74BE749B
:1005900001F448E27E37000A4D33686A6D337A37DA
:1005A000000A7E34FE107E24007E7E1BB054FE7A4C
:1005B0001BB07E34FE407E24007E7E1BB054FE7A4B
:1005C0001BB07594007593017E1801F4120A746DC6
:1005D000778018A280B3500A7E37000A0B347A372E
:1005E000000A7E18000A120A740B74BE7401F448E3
:1005F000E27E37000A4D33680D7E37000ABE3400B4
:1006000000280312088ADA7922CA79E47AB3000C46
:10061000E47E34FEEE7E24007E7A1BB0E47E34FE5F
:10062000EF7E24007E7A1BB080307E34FEEE7E2486
:10063000007E7E1B707C476C557E14FEEF7E0400AE
:100640007E7E0B700A374D32BE344E20280C7E342D
:1006500000657A370010C3020700A280B340CBE4E4
:100660007E34FEEE7E24007E7A1BB0E47E34FEEF04
:100670007E24007E7A1BB0802D7E34FEEE7E240028
:100680007E7E1B707C476C557E14FEEF7E04007EE0
:100690007E0B700A374D32BE34010428097EB30048
:1006A000156003C3805A2080D07E18001A120A7485
:1006B000308003C3804A6D7780227E180034120A8E
:1006C000747C6FA280E4337C7B7CB660053E701442
:1006D00078FB4E73000C7A73000C0B74BE74000828
:1006E00048D87E180034120A74A280B35003C38025
:1006F0000F74017AB300157E73000C7A730009D36E
:10070000DA79227F717F60A9D7C7693FFFFD692F22
:10071000FFFB5E3401FF7836A9C4C775C503693F86
:10072000FFFD692FFFFB7CB5F5F6693FFFFD692FE3
:10073000FFFB7CB6F5C3695FFFFD694FFFFBF5C4A6
:1007400075C65A75C6A500000000A924C7FC75C56A
:10075000029F118046A9C4C7691FFFFD690FFFFBF7
:100760002F017CB1F5F6691FFFFD690FFFFB2F011B
:100770007CB2F5C3695FFFFD694FFFFB2F21F5C414
:100780007D132D1D7D0C7E0BB0F5C275C65A75C646
:10079000A500000000A924C7FC0B1CBF1740B675BC
:1007A000C70075C50075C60075C3FF75C4FF7D3FE2
:1007B000CA39693FFFFB692FFFF97F06120B441B03
:1007C000FD7003D38001C322CA3B6D337A37000E1C
:1007D000E47AB300157E1401007E0400017E34012A
:1007E00002E4120BEC120B739F3302087512060918
:1007F000400302087E7EB3000D60297E3700210B86
:1008000035BE37000E68777EB3000C7D372E34017D
:10081000007A71827A6183F07E37000E0B347A376A
:10082000000E804F7E34FEEE7E24007E7E1B707CA8
:10083000476C557E14FEEF7E04007E7E0B700A37F7
:100840004D32BE3400FA28086D337A37000E802E00
:100850007EB3000C7D372E3401007A71827A618379
:10086000F0BE380101780C7E3700102E3400147A67
:100870003700100B3CBE38010250030207ED7EB377
:1008800000156003120003DA3B227E34F8007E2458
:1008900000FF7E1BA07EF410007EE400FF9F557ECB
:1008A000680040740A2F661478FB2F657E080100EB
:1008B000BEA00168086D337A370010805F69370089
:1008C000020B7A20BF15400B693700020B7A20BF5C
:1008D0001628086D337A3700108041695700066981
:1008E0004700047E3410007E2400FFBF21401B74AB
:1008F0000A2F001478FB2E0400FF2E081000693721
:10090000000669270004BF1028086D337A370010ED
:10091000800A7E3410007E2400FF9918227D437FD8
:10092000706D557A5700236D3380467F072D137EF7
:100930000BA06C5580347E0700235E0400017CBA56
:1009400054010A1B6D1068147E1700231E147A17B9
:1009500000236E14A0017A170023800A7E1700235B
:100960001E147A1700231EA00B50BE500840C70B60
:1009700034BD3440B67E7300247A7300087E730061
:10098000237A73001A227D537E3401257E240000D1
:10099000691100020B1A00BE08000078039F1122A3
:1009A00069400004BD4550047F1080E49D45BE446D
:1009B00000185012695000020B0A40795100021BC6
:1009C0001A407F1080149E440006794000047F1076
:1009D0002D342E340006795100042E340006227E78
:1009E000340030CA397E34F8007E2400FF7E1401C2
:1009F000007E040001120C321BFD900102E0BEB02B
:100A00000C6830900102E0BEB0FF6827900102E060
:100A10006021740C900102F07E34F8007E2400FF07
:100A2000CA1B7E1800307E1401007E0400011207EC
:100A3000031BFE22CA3BCA397F300BFD6D33793F61
:100A4000FFFF801F693FFFFF2D377D267E1BB01201
:100A50000AB37E180034120A74693FFFFF0B347921
:100A60003FFFFF692FFFFD693FFFFFBD3248D51BE8
:100A7000FEDA3B227F71E47E34FEEE7E24007E7A35
:100A80001BB0E47E34FEEF7E24007E7A1BB07E3401
:100A9000FEEE7E24007E7E1B707C476C557E14FE2D
:100AA000EF7E04007E7E0B700A374D326D22BF1739
:100AB00040DC22CA797CFBC2807E180034120A74A2
:100AC0006CEE80167CBF30E004D2808002C2800BC6
:100AD000E01EF07E180034120A74BEE00840E5D231
:100AE00080DA7922CA797D537F707F172D357E1B7E
:100AF000E07F172D3529F100017F077D3512091D93
:100B0000BEE30008780ABEF3001A7804740180017D
:100B1000E4DA7922D2807E34FE107E24007E7E1BB1
:100B2000B054FE7A1BB07E34FE407E24007E7E1BD5
:100B3000B054FE7A1BB04394015393FE7E180034E8
:100B4000120A74227F217F70693FFFFD4D337802C6
:100B5000E4221B34793FFFFD7E2B607E7B70BC76E8
:100B6000680ABC76280374012274FF220BF40B542C
:100B700080D6227E34FE107E24007E7E1BB044018F
:100B80007A1BB07E34FE407E24007E7E1BB054FE75
:100B90007A1BB07594007593016D337A3700182273
:100BA0007DF37F207E3401257E2400007911000230
:100BB0001B1A009F11793200021B2A207D3F9E34B0
:100BC000000679320004227F217F707F10800A7E28
:100BD0002B307A1B300B540B34691FFFFD7D011B3A
:100BE00004790FFFFD4D1178E67F1722CAF87DF3D7
:100BF0007CFB7F207F1080071BF47A2BF00B544D79
:100C0000FF78F5DAF822120B147E140FE87E040048
:100C1000FF7E340009120A34120B73227584017EA0
:100C200044041FE47A49B01B4478F97EF80024029A
:100C3000036B7F217F70693FFFFDCA397F127F07F9
:100C4000120BC71BFD227F217E3410007E2400FF83
:100C5000BF214003D38001C322120B1474C1120AB6
:100C6000B3120B7322120B1474C2120AB3120B7359
:100C700022120B147430120AB3120B732275ED2179
:100C8000A5EF540FA2E0640822A5EC6480A5FC2225
:100C9000A5EC547FA5FC2275ED22A5EF2275ED256C
:100CA000A5EF227C7475ED27227D3275ED28227523
:100CB000ED33A5EF22A5FF75ED342275ED35A5EFD7
:100CC00022A5FF75ED36226D0075ED02226D0075CF
:100CD000ED042275ED1C2275ED1D2275ED1E2275A9
:100CE000ED1F2275ED202275ED2D2275ED2E22755A
:100CF000ED2F2275ED302275ED292275ED3222752A
:0F0D0000ED312275ED022275ED042275ED06220C
:100FE0005925E3DA4EB863D93437310035060601A6
:010FF00030D0
:00000001FF
