:10000000020AB4CA3B7EB3001660467E37023A7AD3
:100010003701257E0801287E370125120B24602B2D
:100020007E08001B7E340100E4120BE86D33800A69
:10003000095301281953001B0B34BE37012540F02A
:10004000120C46E47AB3001602032D120C3A020396
:100050002D7E7301280A377A37011F7EB30138B429
:100060007D237EB30130B40D02800302032D7EB3E5
:100070000131B44202800302032D120C02E47AB370
:10008000013C02032D7EB3013CB47D197EB30134E3
:10009000B40D127EB30135B4420B120C02E47AB3F4
:1000A000013C02032D7EB30150B47D197EB301489B
:1000B000B40D127EB30149B4420B120C02E47AB3C0
:1000C000013C02032D7E37011F4D33781A7EB301A8
:1000D0002970147EB3012A700E7EB3012B70087E46
:1000E0003400657A37011B7E37011FBE340001786A
:1000F000437E3400027A3701257E0801287E3701CD
:1001000025120B247006120C3A02032D7E1F0236B4
:10011000120C144006120C2E02032D7E1F0236CA4A
:100120001B7E37023A7E08001B1205D21BFE120C02
:100130004602032D7E37011FBE3400FF783D7E341A
:1001400000047A3701257E0801287E370125120B2D
:10015000247006120C3A02032D6D337A37011B7E90
:1001600073012A7C476C557E73012B0A374D326D23
:10017000227A1F0236120C4602032D7E37011FBE63
:100180003400FE784A7E3400047A3701257E080167
:10019000287E370125120B247006120C3A02032D1B
:1001A0007EB3012AB4010A7E3401007A37023A8014
:1001B0000A7E73012B0A377A37023A74017AB30048
:1001C000167E3401007A37022D120C5202032D7E66
:1001D00037011FBE3400FD78297E3400027A3701D2
:1001E000257E0801287E370125120B247006120C8B
:1001F0003A02032D120B5474C1120AF3120C52026C
:10020000032D7E37011FBE34000278307E34000299
:100210007A3701257E0801287E370125120B2470CC
:1002200006120C3A02032D7E1F0236120C144006F1
:10023000120C2E02032D120C4602032D7E37011FD5
:10024000BE340004780674017AB301217E37011FA1
:10025000BE34000368030203187E3400027A3701BB
:10026000257E0801287E370125120B247006120C0A
:100270003A02032D7E3700170B347A3700177E734E
:1002800001290A674D6678047E6401007E3400808F
:100290007A37022D7D362E3400031209567D7312F3
:1002A0000B547D177E0400017E340002E4120BE83B
:1002B000CA697D177E0400017E1F02361208971B53
:1002C000FD7D177E0400017D3612082E7EB30008E6
:1002D0007D372D367A71827A6183F07EB3022C7D70
:1002E000372D360B347A71827A6183F074307D3722
:1002F0002D360B357A71827A6183F07D362E34008B
:10030000037D177E040001120A35120C527D177E00
:100310000400011204318015120B5474C1120AF347
:100320007E37011B0B347A37011B120C52DA3B2249
:10033000CA79E47AB3001574BF7E34FEF17E2400DE
:100340007E7A1BB0E47E34FEEE7E24007E7A1BB003
:10035000E47E34FEEF7E24007E7A1BB0802F7E3454
:10036000FEEE7E24007E7E1B707C476C557E14FE64
:10037000EF7E04007E7E0B700A374D32BE34C350D0
:10038000280B7E3400657A37011B02042EA281B34C
:1003900040CC742F7E34FEF17E24007E7A1BB0E4C4
:1003A0007E34FEEE7E24007E7A1BB0E47E34FEEFC7
:1003B0007E24007E7A1BB0802A7E34FEEE7E2400EE
:1003C0007E7E1B707C476C557E14FEEF7E04007EA3
:1003D0007E0B700A374D32BE3400FA28067EB30118
:1003E00022704B2081D37E18001A120A756D778017
:1003F000227E180034120A757C6FA281E4337C7B64
:100400007CB660053E701478FB4E7300157A73005D
:10041000150B74BE74000848D87E18001A120A75AD
:1004200074017AB301227E7300157A730231DA798E
:10043000227F20BE28000078030205179E54000684
:100440007E3403407E24000069F100020B1AE0BEF6
:1004500078000078197E3403407E24000079510032
:10046000021B1A409F11793200021B2A2022BF274B
:1004700050157E3403407E240000795100021B1A7F
:10048000407F679F77801569D700020B7AC0BE68EE
:1004900000006808BF6238047F7680EBBE68000009
:1004A0006831692200047F022D122E140006BF0657
:1004B0007821693600042E3400067F020B162D3297
:1004C0001B0A30693600020B6A20793200021B2AAF
:1004D00020800779D200021B2AC0BE78000068374E
:1004E000692700047F072D122E140006BF02782012
:1004F000693200042E3400067F070B162D321B0ACA
:1005000030693200020B2A20793700021B7A202240
:10051000795700021B7A4022CA797E34FE107E246D
:10052000007E7E1BB054FD7A1BB07E34FE407E24DC
:10053000007E7E1BB044027A1BB07E1801F4120AC2
:10054000756D778018A281B3500A7E3700130B3483
:100550007A3700137E18000A120A750B74BE7401F4
:10056000F448E27E3700134D3368646D337A370008
:10057000137E34FE107E24007E7E1BB054FD7A1B59
:10058000B07E34FE407E24007E7E1BB054FD7A1B7C
:10059000B07E1801F4120A756D778018A281B350ED
:1005A0000A7E3700130B347A3700137E18000A12C4
:1005B0000A750B74BE7401F448E27E3700134D33A4
:1005C000680D7E370013BE34000028031209F4DAE8
:1005D00079227DF3A9D7C7693FFFFD692FFFFB7D16
:1005E000E35EE401FF7836A9C4C775C503693FFF20
:1005F000FD692FFFFB7CB5F5F6693FFFFD692FFF15
:10060000FB7CB6F5C3695FFFFD694FFFFBF5C47561
:10061000C65A75C6A500000000A924C7FC75C5020E
:10062000A9C4C7693FFFFD692FFFFB7CB5F5F669DB
:100630003FFFFD692FFFFB7CB6F5C3695FFFFD69D6
:100640004FFFFBF5C47E0BB0F5C275C65A75C6A543
:1006500000000000A924C7FC693FFFFD692FFFFBD4
:100660000B1C793FFFFD792FFFFB0B147DEF1BE483
:100670007DFE78AC75C70075C50075C60075C3FFF3
:1006800075C4FF22CA796D776D337A370017E47A23
:10069000B301227E0801287E340102E4120BE86DCA
:1006A0007780711203307EB3001660207E37023AE5
:1006B0000B35BE37001768627E7300151977012865
:1006C0007E3700170B347A37001780467E34FEEEF3
:1006D0007E24007E7E1B707C476C557E14FEEF7E70
:1006E00004007E7E0B700A374D32BE3400FA2808B3
:1006F0006D337A37001780227E7300151977012831
:10070000BE740101780C7E37011B2E3400147A3739
:10071000011B0B74BE7401024889120003DA7922AE
:10072000C2AF75EA0075E90175BA8074047E34FEC3
:10073000017E24007E7A1BB07E34FDEC7E24007E98
:100740007E1BB0F59FA9D19DA9C09D74807E34FE0B
:10075000027E24007E7A1BB07E34FE027E24007E60
:100760007E1BB030E0F274407E34FE007E24007EBA
:100770007A1BB053DC0F43DCA000000000007401C2
:100780007E34FE017E24007E7A1BB07E34FE007E25
:1007900024007E7E1BB044087A1BB074017E34FEB8
:1007A0000B7E24007E7A1BB0A9D79DA9C69DD2AF2F
:1007B00022E47E34FEB57E24007E7A1BB0E47E34D3
:1007C000FEB77E24007E7A1BB074FF7E34FEF27E7C
:1007D00024007E7A1BB074FF7E34FEF37E24007EFC
:1007E0007A1BB0E47E34FEEE7E24007E7A1BB0E4F9
:1007F0007E34FEEF7E24007E7A1BB0E47E34FEF071
:100800007E24007E7A1BB0742F7E34FEF17E24009D
:100810007E7A1BB0E47E34FEE47E24007E7A1BB038
:1008200074017E34FEE07E24007E7A1BB0227D437C
:100830007F706D557A57023E6D3380467F072D13CA
:100840007E0BA06C5580347E07023E5E0400017C66
:10085000BA54010A1B6D1068147E17023E1E147AEA
:1008600017023E6E14A0017A17023E800A7E17021C
:100870003E1E147A17023E1EA00B50BE500840C701
:100880000B34BD3440B67E73023F7A7300087E732A
:10089000023E7A73022C227F717F60A9D7C775C58B
:1008A000016D33803EA9C4C77D131A021A002F07B9
:1008B0007CB1F5F67D131A021A002F077CB2F5C33E
:1008C0007D531A4A1A482F27F5C475C65A75C6A50E
:1008D00000000000A924C7FCE5C27F062D137A0B97
:1008E000B00B34692FFFFDBD3248BA75C70075C51E
:1008F0000075C60075C3FF75C4FF221207207E1461
:1009000000007E0400017E340400120BA275F53055
:100910001207B1120B7B1205187E34FE407E2400B4
:100920007E7E1BB054FD7A1BB07E34FE107E240008
:100930007E7E1BB044027A1BB07E7301277A73005F
:100940000D1209AF1206847E37011BBE34006428E5
:10095000F31209F480EE7D537E3403407E240000C0
:10096000691100020B1A00BE08000078039F1122D3
:1009700069400004BD4550047F1080E49D45BE449D
:1009800000185012695000020B0A40795100021BF6
:100990001A407F1080149E440006794000047F10A6
:1009A0002D342E340006795100042E340006227EA8
:1009B000340030CA397E18FBFF7E080128120897E0
:1009C0001BFD7EB3012ABEB00A68287EB3012ABE91
:1009D000B0FF681F7EB3012A6019740A7AB3012A36
:1009E0007E18FBFFCA1B7E0801287E3400301205EA
:1009F000D21BFE22C2AFA9D7C775C50175F6007517
:100A0000C3FB75C4FF75C65A75C6A500000000A9D2
:100A100024C7FCE5C275C70075C50075C60075C35F
:100A2000FF75C4FFBEB00168086D337A37011B80C3
:100A30000375C72022CA3BCA397F300BFD6D33795D
:100A40003FFFFF801F693FFFFF2D377D267E1BB0D4
:100A5000120AF37E180034120A75693FFFFF0B3447
:100A6000793FFFFF692FFFFD693FFFFFBD3248D58A
:100A70001BFEDA3B227F71E47E34FEEE7E24007E94
:100A80007A1BB0E47E34FEEF7E24007E7A1BB07EBB
:100A900034FEEE7E24007E7E1B707C476C557E14F7
:100AA000FEEF7E04007E7E0B700A374D326D22BF52
:100AB0001740DC227584017E44041FE47A49B01B90
:100AC0004478F97EF8023F7E0400FF7E140C5D0B33
:100AD0000A405D44681A692000020B0E0B44800A2C
:100AE0007E0BB07A29B00B240B0C1B4478F280DF0C
:100AF0000208FBCA797CFB6CEEC28180167E18006E
:100B000034120A757CBF30E004D2818002C2810BAE
:100B1000E00EF0BEE00848E57E180034120A75D2F7
:100B200081DA7922CA797D537F707F172D357E1B3C
:100B3000E07F172D3529F100017F077D3512082E42
:100B4000BEE30008780ABEF3022C78047401800129
:100B5000E4DA79227E34FE107E24007E7E1BB054BF
:100B6000FD7A1BB07E34FE407E24007E7E1BB05496
:100B7000FD7A1BB04394025393FD22759400759344
:100B8000FF7E34FE307E24007E7E1BB044027A1B42
:100B9000B07E34FE107E24007E7E1BB044027A1BA1
:100BA000B0227DF37F207E3403407E240000791143
:100BB00000021B1A009F11793200021B2A207D3F80
:100BC0009E3400067932000422759850438E01430A
:100BD0008E0475D7F375D6FF438E1043B20353B11D
:100BE000FC4396035395FC22CAF87DF37CFB7F20DF
:100BF0007F1080071BF47A2BF00B544DFF78F5DA49
:100C0000F822120B547E08000A7E340009120A35BD
:100C1000120C52227F01BE0810004003D38001C392
:100C2000227CAB7AA1993099FDC2997CBA22120B31
:100C30005474C1120AF3120C5222120B5474C212D1
:100C40000AF3120C5222120B547430120AF3120CD3
:100C50005222120B7B6D337A37022A220A000900D6
:100C60000A343731001F060601300002001300006D
:100C7000000100150000010016000002001700002E
:100C80000002001900000002011B00000001011E0B
:100C9000010002011F0000000101210000010122EA
:0D0CA00000000101230000010127000000F9
:00000001FF
