:10000000020C277F507EC400007ED402697E9400DB
:100010001402005C4001227CEACA89CA5BCA6B12E6
:100020000E23DA6BDA5BDA897E9400147CAE2254FC
:100030000F2490D43440D430F30CBEB0414007BEFE
:10004000B05B500224204CCC68021BC00B84D389C7
:10005000944CCC680B742012004680F5CA3B6D8826
:100060009F337CAE7E5BB00B5C7007C37D38DA3BA0
:100070008994B42569C2F37E5BB00B5CA5F824D0EB
:10008000BEB00A501B7E500A20F60DAC5CA52D7C3C
:10009000CB70034EF00180DDAC5DA52D7CDB80D5FF
:1000A00024CFBEB01AA5E850055E00DFD2F390025F
:1000B000D2A3E4936011BCB078F77414934CAB30C6
:1000C000F6B34EF08080AEA3E4936010BCB078F736
:1000D0007413937C3B741D937C2B89147CB0801328
:1000E000742012004620F205BEC00250F31B6D2999
:1000F000B600011200460200511B6E691600020B89
:100100006A00BE08000078087E0400FF7E140E67B7
:1001100020F21E4CCC681A7F10E47E1B804C88684D
:10012000070B1C04BCBD78F2C2F6CA0B120230DA0F
:100130000B7E0BB060C0CA0B120046DA0B0B0C4CE6
:10014000DD68EE1BD078EA80ADD2F07E101080031F
:100150007E10085EB05F800AD2F67E100A80057EAF
:10016000100AC2F66D119F117E00201B6C7E6B7011
:1001700030F6021A3720F1051B6C7E6B6030F604F6
:100180001A261A2430F0051B6D0B6A20A5EC338269
:10019000F692F6500A7CEA9F229F217F127CAE4C99
:1001A00044780F7C457C567C676C772E00F878EF9E
:1001B00080122F117CB3337C3B9CB140047C3B0B01
:1001C00070A5D8EE7CB230E005DAB8C44C3BCA3832
:1001D0000B207E00207E3000BE18000078C1BE10CB
:1001E00008780730F404C2F480B5CA287CB2BCBDDC
:1001F00038027CBD120230DA28BC2D500A1BD0E434
:10020000CA2812002F80F07CB213DAB84004C4CAA6
:10021000B8C4CA28BEF08040095CDD7805A5DA02C2
:1002200060065EF07F12002FDA28A5DADA020051AC
:10023000BEF001680F30F402240220F50620F70317
:1002400030F6010420F229BCBC5025CAB87CBF138B
:10025000B0E67420501174307C8A5E80F068081219
:1002600002705EA00F8003120046DAB8BCBC78DBD7
:1002700030F40F7430120046745830F30274781260
:10028000004630F605742D020046742B20F5F874F4
:100290002020F7F3221B6C7E6BB010F1021B6C2048
:1002A000F60B30E704F404D2F27CCB800520E7059E
:1002B0007CDB0200755EF07F80F81B6E6916000221
:1002C0000B6A0030F0076D221B0A200B0D1B0A8001
:1002D0000200602D2B204C4248232E0053584F44DF
:1002E000494355502A4E000420800102001040F975
:1002F0004B505858E55F4995BA00010101010001D2
:10030000010202CA3B7EB3001760427E37023B7A8D
:100310003701267E080129120D4470030205277E4D
:1003200008001C7E340100E4120DF86D33800A09C8
:100330005301291953001C0B34BE37012640F0121B
:100340000E52E47AB300170205E60205277E730118
:10035000290A377A3701207A3702677E140ED07E59
:100360000400FF1200037EB30139B47D1A7EB3018D
:1003700031B40D0280030205E67EB30132B44202BD
:1003800080030205E6802C7EB3013DB47D107EB370
:100390000135B40D097EB30136B4420280157EB337
:1003A0000151B47D197EB30149B40D127EB3014AE7
:1003B000B4420B120E12E47AB3013D0205E67E3719
:1003C00001204D33781A7EB3012A70147EB3012BBD
:1003D000700E7EB3012C70087E3400657A37011CE4
:1003E0007E370120BE34000178367E3400027A3731
:1003F00001267E080129120D4470030205277E1F85
:100400000237120E3040030204ED7E1F0237CA1B72
:100410007E37023B7E08001C1208621BFE0204F3BA
:100420007E370120BE3400FF782F7E3400047A37F7
:1004300001267E080129120D4470030205276D3341
:100440007A37011C7E73012B7C477E73012C7C6400
:100450006D227A1F02370204F37E370120BE34007A
:10046000FE783C7E3400047A3701267E080129128A
:100470000D4470030205277EB3012BB401067E34C0
:10048000010080067E73012C0A377A37023B740123
:100490007AB300177E3401007A37022E0205E37E1C
:1004A000370120BE3400FD781E7E3400027A370109
:1004B000267E080129120D447002806B120D937480
:1004C000C1120D150205E37E370120BE340002780B
:1004D000287E3400027A3701267E080129120D4455
:1004E000700280437E1F0237120E304006120E3C0F
:1004F0000205E6120E520205E67E370120BE3400E8
:1005000004780674017AB301227E370120BE3400DC
:100510000368030205D17E3400027A3701267E0883
:100520000129120D447006120E470205E67E3700BF
:10053000180B347A3700187E73012A0A674D6678E3
:10054000047E6401007E3400807A37022E7D362ED0
:10055000340003120A977D73120D937D177E0400F9
:10056000017E340002E4120DF8CA697D177E040092
:10057000017E1F0237120AF01BFD7D177E04000169
:100580007D36120A377EB300087D372D367A7182A8
:100590007A6183F07EB3022D7D372D360B347A716C
:1005A000827A6183F074307D372D360B357A718213
:1005B0007A6183F07D362E3400037D177E040001BE
:1005C000120CA3120E5D7D177E0400011205E98056
:1005D00015120D9374C1120D157E37011C0B347A60
:1005E00037011C120E5DDA3B227F20BE2800007806
:1005F000030206CF9E5400067E3403697E24000069
:1006000069F100020B1AE0BE78000078197E34030D
:10061000697E240000795100021B1A409F11793233
:1006200000021B2A2022BF2750157E3403697E2436
:100630000000795100021B1A407F679F778015697F
:10064000D700020B7AC0BE6800006808BF62380499
:100650007F7680EBBE6800006831692200047F026B
:100660002D122E140006BF067821693600042E34A0
:1006700000067F020B162D321B0A30693600020B72
:100680006A20793200021B2A20800779D200021BDF
:100690002AC0BE7800006837692700047F072D1242
:1006A0002E140006BF027820693200042E340006A2
:1006B0007F070B162D321B0A30693200020B2A20ED
:1006C000793700021B7A2022795700021B7A4022D8
:1006D000CAF8E47AB3001674BF7EF4FEF17EE4003B
:1006E0007E7A7BB0E47E14FEEE7E04007E7A0BB050
:1006F0007E34FEEF7E24007E7A1BB0802B7E54FE7B
:10070000EE7E44007E7E2BB07C8B7ED4FEEF7EC4DA
:10071000007E7E6BB07CA8BE54C350280B7E540074
:10072000657A57011C0207A7A281B340D0742F7AC3
:100730007BB0E47A0BB07A1BB080267E34FEEE7E6E
:1007400024007E7E1B707C477E14FEEF7E04007EBC
:100750007E0B707C64BE3400FA28067EB3012370E1
:10076000462081D77E18001A120CDF6CFF7E18001D
:1007700034120CDFA281E4337C7B7CBF60053E70C9
:100780001478FB4E7300167A7300160BF0BEF00857
:1007900078DB7E18001A120CDF74017AB301237E15
:1007A0007300167A730232DAF822CA3B6D337A3755
:1007B0000018E47AB301237E0801297E3401021275
:1007C0000DF86D666D771206D07EB3001760207E3F
:1007D00037023B0B35BE370018685E7E7300161972
:1007E0007701297E3700180B347A37001880427E53
:1007F00034FEEE7E24007E7E1B707C477E14FEEF6E
:100800007E04007E7E0B707C64BE3400FA28086D86
:10081000337A37001880227E73001619770129BEBB
:10082000740101780C7E37011C2E3400147A3701D4
:100830001C0B74BE740102488D7D767A77026709BD
:100840007701290A377A3702657E140EC07E0400CC
:10085000FF1200030B74BE74001E48DF120303DA9C
:100860003B22CA3BCA397F30A9D7C7693FFFF76926
:100870002FFFF57D135E1401FF782A75C5037CB543
:10088000F5F67CB6F5C37CB7F5C475C65A75C6A532
:1008900000000000800B7E140ED87E0400FF1200C2
:1008A00003A924C7F175C502693FFFF7692FFFF55A
:1008B0007CB5F5F67CB6F5C37CB7F5C47E3BB0F5E8
:1008C000C275C65A75C6A500000000800B7E140EC6
:1008D000D87E0400FF120003A924C7F1693FFFF787
:1008E000692FFFF50B1C793FFFF7792FFFF50B748C
:1008F000693FFFFF1B34793FFFFF78AC75C7007578
:10090000C50075C60075C3FF75C4FF1BFDDA3B2229
:10091000CA797E34FE107E24007E7E1BB054FD7AA0
:100920001BB07E34FE407E1BB044027A1BB07E18A2
:1009300001F4120CDF6D77A281B3500A7E370013E9
:100940000B347A3700137E18000A120CDF0B74BECA
:100950007401F448E27E3700134D33685A6D337AE0
:100960003700137E34FE107E24007E7E1BB054FDC3
:100970007A1BB07E34FE407E1BB054FD7A1BB07EE5
:100980001801F4120CDF6D77A281B3500A7E370094
:10099000130B347A3700137E18000A120CDF0B7425
:1009A000BE7401F448E27E3700134D336809BE344B
:1009B00000002803120BE7DA7922C2AF75EA00754E
:1009C000E90175BA8074047E34FE017E24007E7ACB
:1009D0001BB07E34FDEC7E1BB0F59FA9D19DA9C054
:1009E0009D74807E34FE027A1BB07E34FE027E242B
:1009F000007E7E1BB030E0F274407E34FE007E2428
:100A0000007E7A1BB053DC0F43DCA0000000000026
:100A100074017E14FE017E04007E7A0BB07E1BB052
:100A200044087A1BB074017E34FE0B7A1BB0A9D740
:100A30009DA9C69DD2AF227D437F706D337A370268
:100A40003F803F7F072D137E0BA06C557E17023F22
:100A50007DD15ED400017CBA54010A0B6D0D681281
:100A60007D011E047A07023F6E04A0017A07023F4F
:100A700080061E147A17023F1EA00B50A5BD08CC9D
:100A80000B34BD3440BD7E73023F7A7300087E7321
:100A900002407A73022D227D537E3403697E240046
:100AA00000691100020B1A00BE08000078039F11B4
:100AB0002269400004BD4550047F1080E49D45BE7E
:100AC0004400185012695000020B0A40795100028C
:100AD0001B1A407F1080149E440006794000047F5A
:100AE000102D342E340006795100042E34000622D5
:100AF0007F717F60A9D7C775C5016D338030A9C4E8
:100B0000C77D131A061A002F077CB1F5F67CB2F5E3
:100B1000C37CB3F5C475C65A75C6A500000000A90C
:100B200024C7FCE5C27F062D137A0BB00B34692F66
:100B3000FFFDBD3248C875C70075C50075C6007594
:100B4000C3FF75C4FF22E47E34FEB57E24007E7AA6
:100B50001BB07E34FEB77A1BB074FF7E34FEF27A8F
:100B60001BB07E34FEF37A1BB0E47E34FEEE7A1BBB
:100B7000B07E34FEEF7A1BB07E34FEF07A1BB07488
:100B80002F7E34FEF17A1BB0E47E34FEE47A1BB093
:100B900074017E34FEE07A1BB0221209BA75F5307A
:100BA000120B46120DB6120DD97E1400007E040001
:100BB000017E340200120D6C1209107E34FE407E5C
:100BC00024007E7E1BB054FD7A1BB07E34FE107E66
:100BD0001BB044027A1BB074147AB3000D120C6679
:100BE0001207AAB2A080F9C2AFA9D7C775C501750F
:100BF000F60075C3FB75C4FF75C65A75C6A500001F
:100C00000000A924C7FCE5C275C70075C50075C6FC
:100C10000075C3FF75C4FFBEB00168076D337A3736
:100C2000011C2275C720227584017E44041FE47ACA
:100C300049B01B4478F97EF802687E0400FF7E14F8
:100C40000E6B0B0A405D44681A692000020B0E0B04
:100C500044800A7E0BB07A29B00B240B0C1B44781D
:100C6000F280DF020B9A7E340030CA397E18FBFF17
:100C70007E080129120AF01BFD7EB3012BBEB00ACB
:100C80006820BEB0FF681B6019740A7AB3012B7E1E
:100C900018FBFFCA1B7E0801297E3400301208624F
:100CA0001BFE22CA3BCA397F300BFD6D33801B69A6
:100CB0003FFFFF2D377D267E1BB0120D157E1800DD
:100CC00034120CDF693FFFFF0B34793FFFFF692FC0
:100CD000FFFD693FFFFFBD3248D51BFEDA3B227F97
:100CE00071E47E34FEEE7E24007E7A1BB07E34FEFC
:100CF000EF7A1BB07E34FEEE7E24007E7E1B707C7D
:100D0000477E14FEEF7E04007E7E0B707C646D22B5
:100D1000BF1740E022CA797CFB6CEEC2817E1800CE
:100D200034120CDF7CBF30E004D2818002C2810B20
:100D3000E00EF0BEE00848E57E180034120CDFD269
:100D400081DA7922CA797D537F102D357E1BE02907
:100D5000F100017D35120A37BEE30008780ABEF3C0
:100D6000022D780474018001E4DA79227DF37F207A
:100D70007E3403697E240000791100021B1A009F53
:100D800011793200021B2A207D3F9E340006793201
:100D90000004227E34FE107E24007E7E1BB054FDB3
:100DA0007A1BB07E34FE407E1BB054FD7A1BB043EC
:100DB00094025393FD227594007593FF7E34FE30A8
:100DC0007E24007E7E1BB044027A1BB07E34FE106F
:100DD0007E1BB044027A1BB022759850438E0143AB
:100DE0008E0475D7F375D6FF438E1043B20353B10B
:100DF000FC4396035395FC22CAF87DF37CFB7F20CD
:100E00007F1080071BF47A2BF00B544DFF78F5DA36
:100E1000F822120D937E08000A7E340009120CA3FA
:100E2000020E5D7CAB7AB1993099FDC2997CBA22F1
:100E30007F01BE0800004002D322C322120D93742A
:100E4000C1120D15020E5D120D9374C2120D150222
:100E50000E5D120D937430120D15020E5D120DB65B
:100E60006D337A37022B22283029000009000A004E
:100E7000000000000000000000020013000000015C
:100E800000150A0001001600000100170000020012
:100E90001800000002001A00000002011C000000FF
:100EA00001011F01000201200000000101220000D9
:100EB00001012300000101240000010128000000BD
:100EC0004275666665725B25645D3A25630D0A00AE
:100ED000636D643A25580A00434D445F4641494CCE
:020EE0000A0006
:00000001FF
