:10000000020D78CA3B7EB3000D60467E3702237A2C
:100010003701167E0801187E370116120C46602B38
:100020007E0800107E340100E4120D486D33800A12
:1000300009530118195300100B34BE37011640F054
:10004000120DC0E47AB3000D02032E120DB40203A8
:100050002E7E7301180A377A3701127EB30128B455
:100060007D237EB30120B40D02800302032E7EB3F4
:100070000121B44202800302032E120D62E47AB31E
:10008000012C02032E7EB3012CB47D197EB3012412
:10009000B40D127EB30125B4420B120D62E47AB3A3
:1000A000012C02032E7EB30140B47D197EB30138CA
:1000B000B40D127EB30139B4420B120D62E47AB36F
:1000C000012C02032E7E3701124D33781A7EB301C4
:1000D0001970147EB3011A700E7EB3011B70087E76
:1000E0003400657A3701107E370112BE3400017882
:1000F0004D7E3400027A3701167E0801187E3701E2
:1001000016120C467006120DB402032E7E1F021F3B
:10011000120D8E4006120DA802032E7E1F021FCA6A
:100120001B7E3702236D227E0800101205E11BFEA4
:100130004006120DA802032E120DC002032E7E37B8
:100140000112BE3400FF783D7E3400047A37011678
:100150007E0801187E370116120C467006120DB487
:1001600002032E6D337A3701107E73011A7C476CBF
:10017000557E73011B0A374D326D227A1F021F1202
:100180000DC002032E7E370112BE3400FE784A7E77
:100190003400047A3701167E0801187E37011612E2
:1001A0000C467006120DB402032E7EB3011AB40180
:1001B0000A7E3401007A370223800A7E73011B0A0B
:1001C000377A37022374017AB3000D7E3401007A46
:1001D00037021D120CD502032E7E370112BE3400E9
:1001E000FD78297E3400027A3701167E0801187ED8
:1001F000370116120C467006120DB402032E120CB3
:100200007674C1120C15120CD502032E7E37011222
:10021000BE34000278307E3400027A3701167E0840
:1002200001187E370116120C467006120DB4020337
:100230002E7E1F021F120D8E4006120DA802032EE5
:10024000120DC002032E7E370112BE340004780660
:1002500074017AB301147E370112BE3400036803BF
:100260000203197E3400027A3701167E0801187ED7
:10027000370116120C467006120DB402032E7E379B
:10028000000E0B347A37000E7E7301190A674D6633
:1002900078047E6401007E3400807A37021D120CDF
:1002A000767D362E340003120AF87D737D177E04A6
:1002B00000017E340002E4120D48CA697D177E04F5
:1002C00000017E1F021F120A941BFD7D177E040091
:1002D000017D36120A2B7EB300087D372D367A71E8
:1002E000827A6183F07EB3021C7D372D360B347A1F
:1002F00071827A6183F074307D372D360B357A71D7
:10030000827A6183F07D362E3400037D177E0400EF
:1003100001120B96120CD58015120C7674C1120CBA
:10032000157E3701100B347A370110120CD5DA3BE9
:10033000227E1400007E0400017E340400120D02AF
:10034000C2AF75EA0075E90175BA8074047E34FEA7
:10035000017E24007E7A1BB07E34FDEC7E24007E7C
:100360007E1BB0F59FA9D19DA9C09D74807E34FEEF
:10037000027E24007E7A1BB07E34FE027E24007E44
:100380007E1BB030E0F274407E34FE007E24007E9E
:100390007A1BB053DC0F43DCA000000000007401A6
:1003A0007E34FE017E24007E7A1BB07E34FE007E09
:1003B00024007E7E1BB044087A1BB074017E34FE9C
:1003C0000B7E24007E7A1BB0A9D79DA9C69DD2AF13
:1003D000E47E34FEB57E24007E7A1BB0E47E34FEDB
:1003E000B77E24007E7A1BB074FF7E34FEF27E243A
:1003F000007E7A1BB074FF7E34FEF37E24007E7A8A
:100400001BB0E47E34FEEE7E24007E7A1BB0E47ED8
:1004100034FEEF7E24007E7A1BB0E47E34FEF07E54
:1004200024007E7A1BB0742F7E34FEF17E24007E81
:100430007A1BB0E47E34FEE47E24007E7A1BB07426
:10044000017E34FEE07E24007E7A1BB07594007538
:1004500093017E34FE307E24007E7E1BB044017A00
:100460001BB0E47E34FE187E24007E7A1BB07E34FE
:10047000FE107E24007E7E1BB044017A1BB075F511
:10048000301204BF7E34FE107E24007E7E1BB054EA
:10049000FE7A1BB07E34FE407E24007E7E1BB0546C
:1004A000FE7A1BB0759400759301120B511208DB94
:1004B0007E370110BE34006428F312098480EECA2E
:1004C000797E34FE107E24007E7E1BB054FE7A1BA3
:1004D000B07E34FE407E24007E7E1BB044017A1B39
:1004E000B07594007593017E1801F4120BD66D77E8
:1004F0008018A280B3500A7E37000A0B347A370086
:100500000A7E18000A120BD60B74BE7401F448E27E
:100510007E37000ABE3401C228031209847E34FEED
:10052000107E24007E7E1BB044017A1BB07E34FE18
:10053000407E24007E7E1BB054FE7A1BB075940072
:100540007593017E1801F4120BD66D778018A28086
:10055000B3500A7E37000A0B347A37000A7E18003F
:100560000A120BD60B74BE7401F448E27E37000AFF
:100570004D33686A6D337A37000A7E34FE107E246C
:10058000007E7E1BB054FE7A1BB07E34FE407E247B
:10059000007E7E1BB054FE7A1BB0759400759301EB
:1005A0007E1801F4120BD66D778018A280B3500A22
:1005B0007E37000A0B347A37000A7E18000A120BC5
:1005C000D60B74BE7401F448E27E37000A4D3368DE
:1005D0000D7E37000ABE3400002803120984DA7940
:1005E00022CA3B7F31CA0B0BFE693FFFFB692FFF1D
:1005F000F9A9D7C7691FFFF1690FFFEF5E1401FF6B
:100600007836A9C4C775C503691FFFF1690FFFEFED
:100610007CB1F5F6691FFFF1690FFFEF7CB2F5C3FE
:10062000695FFFF1694FFFEFF5C475C65A75C6A53E
:1006300000000000A924C7FC75C5029F008042A9E4
:10064000C4C7695FFFF1694FFFEF2F207CB9F5F652
:10065000695FFFF1694FFFEF2F207CBAF5C3695F37
:10066000FFF1694FFFEF2F20F5C47E1BB0F5C27577
:10067000C65A75C6A500000000A924C7FC0B340BA0
:100680000CBF0340BA75C70075C50075C60075C3B9
:10069000FF75C4FF7D37120AF8793FFFFF792FFFFE
:1006A000FD7D37CA39693FFFEF692FFFED691FFFF5
:1006B000FD690FFFFB120A941BFD7D37CA39693FA4
:1006C000FFFD692FFFFB691FFFF9690FFFF7120C90
:1006D000A61BFD700E691FFFFF690FFFFD1207F4D7
:1006E000D3800C691FFFFF690FFFFD1207F4C3924F
:1006F000D59EF80008A2D5DA3B22CA79E47AB30085
:100700000CE47E34FEEE7E24007E7A1BB0E47E3460
:10071000FEEF7E24007E7A1BB080307E34FEEE7EBB
:1007200024007E7E1B707C476C557E14FEEF7E0499
:10073000007E7E0B700A374D32BE344E20280C7E70
:100740003400657A370110C30207F1A280B340CBB1
:10075000E47E34FEEE7E24007E7A1BB0E47E34FE1E
:10076000EF7E24007E7A1BB0802D7E34FEEE7E2448
:10077000007E7E1B707C476C557E14FEEF7E04006D
:100780007E7E0B700A374D32BE34010428097EB3D9
:1007900001156003C3805A2080D07E18001A120B06
:1007A000D6308003C3804A6D7780227E18003412D1
:1007B0000BD67C6FA280E4337C7B7CB660053E70F8
:1007C0001478FB4E73000C7A73000C0B74BE74002B
:1007D0000848D87E180034120BD6A280B35003C349
:1007E000800F74017AB301157E73000C7A730009CF
:1007F000D3DA79227F20BE28000078030208DA9E2F
:100800005400067E3403277E24000069F100020BA9
:100810001AE0BE78000078197E3403277E24000099
:10082000795100021B1A409F11793200021B2A20C5
:1008300022BF2750157E3403277E24000079510003
:10084000021B1A407F679F77801569D700020B7AD9
:10085000C0BE6800006808BF6238047F7680EBBEC7
:100860006800006831692200047F022D122E1400F6
:1008700006BF067821693600042E3400067F020B7D
:10088000162D321B0A30693600020B6A20793200BD
:10089000021B2A20800779D200021B2AC0BE7800E2
:1008A000006837692700047F072D122E140006BF49
:1008B000027820693200042E3400067F070B162DC3
:1008C000321B0A30693200020B2A20793700021BE2
:1008D0007A2022795700021B7A4022CA3B6D337A74
:1008E00037000EE47AB301157E0801187E34010248
:1008F000E4120D48120CD59F3380771206FA507817
:100900007EB3000D60227E3702230B35BE37000E0A
:1009100068667E73000C7D27197201187E37000E01
:100920000B347A37000E80487E34FEEE7E24007E43
:100930007E1B707C476C557E14FEEF7E04007E7E2D
:100940000B700A374D32BE3400FA28086D337A37FF
:10095000000E80247E73000C7D2719720118BE38AA
:100960000101780C7E3701102E3400147A37011003
:100970000B3CBE38010240837EB3011560031200B8
:1009800003DA3B227E7810006DBB7EA420007E68D7
:100990000040740A2F661478FB2F657E080100C2A0
:1009A000AFA9D7C775C50175F60075C3F875C40042
:1009B00075C65A75C6A500000000A924C7FCE5C28B
:1009C00075C70075C50075C60075C3FF75C4FFBE49
:1009D000B00168086D337A370110804E6937000224
:1009E0000B7A20BF15400B693700020B7A20BF1627
:1009F00028086D337A37011080306937000669277F
:100A00000004BE1810004017740A2F001478FB2E43
:100A10000810006937000669270004BF1028086D18
:100A2000337A370110800375C720227D437F706DB4
:100A3000557A5702256D3380467F072D137E0BA014
:100A40006C5580347E0702255E0400017CBA540197
:100A50000A1B6D1068147E1702251E147A170225D2
:100A60006E14A0017A170225800A7E1702251E1433
:100A70007A1702251EA00B50BE500840C70B34BD8C
:100A80003440B67E7302267A7300087E7302257A9C
:100A900073021C227F717F60A9D7C775C5016D33B2
:100AA000803EA9C4C77D131A021A002F077CB1F536
:100AB000F67D131A021A002F077CB2F5C37D531A74
:100AC0004A1A482F27F5C475C65A75C6A5000000F6
:100AD00000A924C7FCE5C27F062D137A0BB00B34A6
:100AE000692FFFFDBD3248BA75C70075C50075C6D0
:100AF0000075C3FF75C4FF227D537E3403277E2417
:100B00000000691100020B1A00BE08000078039F64
:100B1000112269400004BD4550047F1080E49D45CA
:100B2000BE4400185012695000020B0A407951006F
:100B3000021B1A407F1080149E4400067940000476
:100B40007F102D342E340006795100042E34000617
:100B5000227E340030CA397E18F8007E080118124F
:100B60000A941BFD7EB3011ABEB00C68287EB30147
:100B70001ABEB0FF681F7EB3011A6019740C7AB3F5
:100B8000011A7E18F800CA1B7E1800307E08011872
:100B90001205E11BFE22CA3BCA397F300BFD6D33C3
:100BA000793FFFFF801F693FFFFF2D377D267E1BAA
:100BB000B0120C157E180034120BD6693FFFFF0BE4
:100BC00034793FFFFF692FFFFD693FFFFFBD3248CA
:100BD000D51BFEDA3B227F71E47E34FEEE7E2400DC
:100BE0007E7A1BB0E47E34FEEF7E24007E7A1BB05A
:100BF0007E34FEEE7E24007E7E1B707C476C557E2C
:100C000014FEEF7E04007E7E0B700A374D326D229B
:100C1000BF1740DC22CA797CFBC2807E18003412E8
:100C20000BD66CEE80167CBF30E004D2808002C20E
:100C3000800BE01EF07E180034120BD6BEE0084098
:100C4000E5D280DA7922CA797D537F707F172D35FE
:100C50007E1BE07F172D3529F100017F077D3512BE
:100C60000A2BBEE30008780ABEF3021C7804740164
:100C70008001E4DA7922D2807E34FE107E24007E68
:100C80007E1BB054FE7A1BB07E34FE407E24007E74
:100C90007E1BB054FE7A1BB04394015393FE7E1822
:100CA0000034120BD6227F217F70693FFFFD4D3348
:100CB0007802E4221B34793FFFFD7E2B607E7B703F
:100CC000BC76680ABC76280374012274FF220BF4F8
:100CD0000B5480D6227E34FE107E24007E7E1BB014
:100CE00044017A1BB07E34FE407E24007E7E1BB021
:100CF00054FE7A1BB07594007593016D337A3702F8
:100D00001A227DF37F207E3403277E240000791190
:100D100000021B1A009F11793200021B2A207D3F1E
:100D20009E3400067932000422759850438E0143A8
:100D30008E0475D7F375D6FF438E1043B20353B1BB
:100D4000FC4396035395FC22CAF87DF37CFB7F207D
:100D50007F1080071BF47A2BF00B544DFF78F5DAE7
:100D6000F822120C767E140DD47E0400FF7E34002F
:100D700009120B96120CD5227584017E44041FE4DF
:100D80007A49B01B4478F97EF802260203317F01CC
:100D9000BE0810004003D38001C3227CAB7AA19926
:100DA0003099FDC2997CBA22120C7674C1120C15CE
:100DB000120CD522120C7674C2120C15120CD5220C
:100DC000120C767430120C15120CD5225925E3DA68
:0D0DD0004EB863D9343731003506060130C6
:00000001FF
