:10000000020DA4CA79E47AB3001674037E34FEF1BB
:100010007E24007E7A1BB0802F7E34FEEE7E24008C
:100020007E7E1B707C476C557E14FEEF7E04007E46
:100030007E0B700A374D32BE34C350280B7E34001D
:10004000657A37011C0200CEA281B340CCE47E3435
:10005000FEF17E24007E7A1BB0802A7E34FEEE7E86
:1000600024007E7E1B707C476C557E14FEEF7E0460
:10007000007E7E0B700A374D32BE3400FA28067EB1
:10008000B3012370492081D37E18001A120D656DCB
:100090007780207E180034120D65A281E4337C7BCA
:1000A0007CBF60053E701478FB4E7300167A7300B7
:1000B000160B74BE74000848DA7E18001A120D651B
:1000C00074017AB301237E7300167A730232DA79EF
:1000D00022120DE36D337A37022B22020CA2CA7969
:1000E0000BFE7EB3001760467E37023B7A3701264F
:1000F0007E0801297E370126120E4B602B7E0800F8
:100100001C7E340100E4120EA26D33800A095301F3
:10011000291953001C0B34BE37012640F0120F2A58
:10012000E47AB3001702041E120F1E02041E7E732F
:1001300001290A377A3701207EB30139B47D237E45
:10014000B30131B40D02800302041E7EB30132B448
:100150004202800302041E120EE6E47AB3013D025D
:10016000041E7EB3013DB47D197EB30135B40D127A
:100170007EB30136B4420B120EE6E47AB3013D02BF
:10018000041E7EB30151B47D197EB30149B40D1232
:100190007EB3014AB4420B120EE6E47AB3013D028B
:1001A000041E7E3701204D33781A7EB3012A701465
:1001B0007EB3012B700E7EB3012C70087E34006577
:1001C0007A37011C7E370120BE34000178437E342B
:1001D00000027A3701267E0801297E370126120E99
:1001E0004B7006120F1E02041E7E1F0237120EF8FD
:1001F0004006120F1202041E7E1F0237CA1B7E37F2
:10020000023B7E08001C1208C41BFE120F2A0204C7
:100210001E7E370120BE3400FF783D7E3400047A14
:100220003701267E0801297E370126120E4B700603
:10023000120F1E02041E6D337A37011C7E73012BD0
:100240007C476C557E73012C0A374D326D227A1F24
:100250000237120F2A02041E7E370120BE3400FE30
:10026000784A7E3400047A3701267E0801297E37D9
:100270000126120E4B7006120F1E02041E7EB301E1
:100280002BB4010A7E3401007A37023B800A7E7368
:10029000012C0A377A37023B74017AB300177E3497
:1002A00001007A37022E1200D102041E7E3701208F
:1002B000BE3400FD78297E3400027A3701267E089C
:1002C00001297E370126120E4B7006120F1E020402
:1002D0001E120E7B74C1120E1A1200D102041E7E71
:1002E000370120BE34000278307E3400027A3701B4
:1002F000267E0801297E370126120E4B7006120F4A
:100300001E02041E7E1F0237120EF84006120F1244
:1003100002041E120F2A02041E7E370120BE340082
:1003200004780674017AB301227E370120BE3400BE
:100330000368030204097E3400027A3701267E082E
:1003400001297E370126120E4B7006120F1E020481
:100350001E7E3700180B347A3700187E73012A0A84
:10036000774D7778047E7401007E3400807A3702FE
:100370002E7D372E340003120C05793FFFFF792FB5
:10038000FFFD120E7B691FFFFF690FFFFD7E34002A
:1003900004E4120EA2CA797E1F0237691FFFFD69AD
:1003A0000FFFFB120BA11BFD691FFFFF690FFFFD74
:1003B0007D37120B387E330008693FFFFF692FFF3E
:1003C000FD2D377A1B307E73022D691FFFFF690FE9
:1003D000FFFD2D17397000017430693FFFFF692F51
:1003E000FFFD2D3739B100027D372E340003691F20
:1003F000FFFF690FFFFD120D251200D1691FFFFFDE
:10040000690FFFFD1207238015120E7B74C1120EB7
:100410001A7E37011C0B347A37011C1200D11BFEE7
:10042000DA79227F507EC400007ED402697E940473
:100430003402047C4001227CEACA89CA5BCA6B127E
:100440000F05DA6BDA5BDA897E9404347CAE2254D1
:100450000F2490D43440D430F30CBEB0414007BEDA
:10046000B05B500224204CCC68021BC00B84D389A3
:10047000944CCC680B742012046680F5CA3B6D88DE
:100480009F337CAE7E5BB00B5C7007C37D38DA3B7C
:100490008994B42569C2F37E5BB00B5CA5F824D0C7
:1004A000BEB00A501B7E500A20F60DAC5CA52D7C18
:1004B000CB70034EF00180DDAC5DA52D7CDB80D5DB
:1004C00024CFBEB01AA5E850055E00DFD2F3900637
:1004D000F2A3E4936011BCB078F77414934CAB3082
:1004E000F6B34EF08080AEA3E4936010BCB078F712
:1004F0007413937C3B741D937C2B89147CB0801304
:10050000742012046620F205BEC00250F31B6D2950
:10051000B600011204660204711B6E691600020B1C
:100520006A00BE08000078087E0400FF7E140F36C3
:1005300020F21E4CCC681A7F10E47E1B804C886829
:10054000070B1C04BCBD78F2C2F6CA0B120650DAC7
:100550000B7E0BB060C0CA0B120466DA0B0B0C4C9E
:10056000DD68EE1BD078EA80ADD2F07E10108003FB
:100570007E10085EB05F800AD2F67E100A80057E8B
:10058000100AC2F66D119F117E00201B6C7E6B70ED
:1005900030F6021A3720F1051B6C7E6B6030F604D2
:1005A0001A261A2430F0051B6D0B6A20A5EC338245
:1005B000F692F6500A7CEA9F229F217F127CAE4C75
:1005C00044780F7C457C567C676C772E00F878EF7A
:1005D00080122F117CB3337C3B9CB140047C3B0BDD
:1005E00070A5D8EE7CB230E005DAB8C44C3BCA380E
:1005F0000B207E00207E3000BE18000078C1BE10A7
:1006000008780730F404C2F480B5CA287CB2BCBDB7
:1006100038027CBD120650DA28BC2D500A1BD0E4EB
:10062000CA2812044F80F07CB213DAB84004C4CA5E
:10063000B8C4CA28BEF08040095CDD7805A5DA029E
:1006400060065EF07F12044FDA28A5DADA02047140
:10065000BEF001680F30F402240220F50620F703F3
:1006600030F6010420F229BCBC5025CAB87CBF1367
:10067000B0E67420501174307C8A5E80F0680812F5
:1006800006905EA00F8003120466DAB8BCBC78DB6B
:1006900030F40F7430120466745830F30274781218
:1006A000046630F605742D020466742B20F5F87488
:1006B0002020F7F3221B6C7E6BB010F1021B6C2024
:1006C000F60B30E704F404D2F27CCB800520E7057A
:1006D0007CDB0204955EF07F80F81B6E69160002D9
:1006E0000B6A0030F0076D221B0A200B0D1B0A80DD
:1006F0000204802D2B204C4248232E0053584F4497
:10070000494355502A4E0004208001020010401930
:100710006B707878057F69B5DA050505050505056F
:100720000506067F20BE28000078030208099E54B3
:1007300000067E3403697E24000069F100020B1A72
:10074000E0BE78000078197E3403697E24000079C9
:100750005100021B1A409F11793200021B2A2022ED
:10076000BF2750157E3403697E24000079510002B2
:100770001B1A407F679F77801569D700020B7AC0EC
:10078000BE6800006808BF6238047F7680EBBE68F0
:1007900000006831692200047F022D122E14000629
:1007A000BF067821693600042E3400067F020B163E
:1007B0002D321B0A30693600020B6A2079320002A2
:1007C0001B2A20800779D200021B2AC0BE780000B5
:1007D0006837692700047F072D122E140006BF0218
:1007E0007820693200042E3400067F070B162D3264
:1007F0001B0A30693200020B2A20793700021B7A6B
:100800002022795700021B7A4022CA797E34FE10DA
:100810007E24007E7E1BB054FD7A1BB07E34FE40E9
:100820007E24007E7E1BB044027A1BB07E1801F449
:10083000120D656D778018A281B3500A7E370013C0
:100840000B347A3700137E18000A120D650B74BE44
:100850007401F448E27E3700134D3368646D337AD7
:100860003700137E34FE107E24007E7E1BB054FDC4
:100870007A1BB07E34FE407E24007E7E1BB054FD89
:100880007A1BB07E1801F4120D656D778018A28175
:10089000B3500A7E3700130B347A3700137E1800EA
:1008A0000A120D650B74BE7401F448E27E37001322
:1008B0004D33680D7E370013BE3400002803120C40
:1008C0005EDA79227DF3A9D7C775F530693FFFFD60
:1008D000692FFFFB7DE35EE401FF783375C5036993
:1008E0003FFFFD692FFFFB7CB5F5F6693FFFFD6912
:1008F0002FFFFB7CB6F5C3695FFFFD694FFFFBF57A
:10090000C475C65A75C6A500000000A924C7FC75A9
:10091000C502693FFFFD692FFFFB7CB5F5F6693F16
:10092000FFFD692FFFFB7CB6F5C3695FFFFD694FD3
:10093000FFFBF5C47E0BB0F5C275C65A75C6A5009F
:10094000000000A924C7FC693FFFFD692FFFFB0BD6
:100950001C793FFFFD792FFFFB0B147DEF1BE47D1E
:10096000FE78AF75C70075C50075C60075C3FF7505
:10097000C4FF22C2AF75EA0075E90175BA8074043C
:100980007E34FE017E24007E7A1BB07E34FDEC7E38
:1009900024007E7E1BB0F59FA9D19DA9C09D7480C7
:1009A0007E34FE027E24007E7A1BB07E34FE027E00
:1009B00024007E7E1BB030E0F274407E34FE007E68
:1009C00024007E7A1BB053DC0F43DCA00000000043
:1009D0000000000000000000000000000000000017
:1009E00074017E34FE017E24007E7A1BB074087E82
:1009F00034FE007E24007E7A1BB074FF7E34FE0B32
:100A00007E24007E7A1BB0A9D79DA9C69DD2AF22B5
:100A1000CA796D776D337A370018E47AB301237E93
:100A20000801297E340102E4120EA26D7780711252
:100A300000037EB3001760207E37023B0B35BE37C4
:100A4000001868627E730016197701297E37001836
:100A50000B347A37001880467E34FEEE7E24007E0A
:100A60007E1B707C476C557E14FEEF7E04007E7EFC
:100A70000B700A374D32BE3400FA28086D337A37CE
:100A8000001880227E73001619770129BE740101B7
:100A9000780C7E37011C2E3400147A37011C0B743D
:100AA000BE74010248891200DEDA792274FF7E34B6
:100AB000FE927E24007E7A1BB0E47E34FEB57E2456
:100AC000007E7A1BB0E47E34FEB77E24007E7A1B63
:100AD000B074037E34FEF27E24007E7A1BB074E88C
:100AE0007E34FEF37E24007E7A1BB0E47E34FEEE7C
:100AF0007E24007E7A1BB0E47E34FEEF7E24007EEE
:100B00007A1BB074BB7E34FEF07E24007E7A1BB06C
:100B100074807E34FEF17E24007E7A1BB074017EE8
:100B200034FEE47E24007E7A1BB074017E34FEE045
:100B30007E24007E7A1BB0227D437F706D557A57EC
:100B4000023F6D3380467F072D137E0BA06C5580CE
:100B5000347E07023F5E0400017CBA54010A1B6D1B
:100B60001068147E17023F1E147A17023F6E14A0FD
:100B7000017A17023F800A7E17023F1E147A17027D
:100B80003F1EA00B50BE500840C70B34BD3440B6CA
:100B90007E73023F7A7300087E7302407A73022DDF
:100BA000227F717F60A9D7C775F53075C5016D3398
:100BB000803B7D131A021A002F077CB1F5F67D13D6
:100BC0001A021A002F077CB2F5C37D531A4A1A483D
:100BD0002F27F5C475C65A75C6A500000000A924C4
:100BE000C7FCE5C27F062D137A0BB00B34692FFFCB
:100BF000FDBD3248BD75C70075C50075C60075C31B
:100C0000FF75C4FF227D537E3403697E2400006992
:100C10001100020B1A00BE08000078039F11226920
:100C2000400004BD4550047F1080E49D45BE440053
:100C3000185012695000020B0A40795100021B1A29
:100C4000407F1080149E440006794000047F102DE0
:100C5000342E340006795100042E34000622C2AF2F
:100C6000A9D7C775F53075C50175F60075C3007550
:100C7000C40075C65A75C6A500000000A924C7FCAB
:100C8000E5C275C70075C50075C60075C3FF75C49C
:100C9000FFBEB00168086D337A37011C800375C749
:100CA0002022CA7BCA6BCA5BCA4BCA2BCA1BCA0B9F
:100CB000C0D0C083C082E47E34FEE57E24007E7A0C
:100CC0001BB0B2A07E140F8F7E0400FF120423D04D
:100CD00082D083D0D0DA0BDA1BDA2BDA4BDA5BDA8C
:100CE0006BDA7B327E340030CA399F117E080129CD
:100CF000120BA11BFD7EB3012BBEB00A68267EB38A
:100D0000012BBEB0FF681D7EB3012B6017740A7AF9
:100D1000B3012B9F11CA1B7E0801297E34003012BB
:100D200008C41BFE22CA3BCA397F300BFD6D3379E4
:100D30003FFFFF801F693FFFFF2D377D267E1BB0E1
:100D4000120E1A7E180034120D65693FFFFF0B3436
:100D5000793FFFFF692FFFFD693FFFFFBD3248D597
:100D60001BFEDA3B227F71E47E34FEEE7E24007EA1
:100D70007A1BB0E47E34FEEF7E24007E7A1BB07EC8
:100D800034FEEE7E24007E7E1B707C476C557E1404
:100D9000FEEF7E04007E7E0B700A374D326D22BF5F
:100DA0001740DC227584017E44041FE47A49B01B9D
:100DB0004478F97EF802687E0400FF7E140F3A0B37
:100DC0000A405D44681A692000020B0E0B44800A39
:100DD0007E0BB07A29B00B240B0C1B4478F280DF19
:100DE000020EBC5394FD4393027E34FE187E240011
:100DF0007E7E1BB054FD7A1BB07E34FE307E240014
:100E00007E7E1BB044027A1BB07E34FE107E24002E
:100E10007E7E1BB044027A1BB022CA797CFB6CEE4A
:100E2000C28180167E180034120D657CBF30E0044C
:100E3000D2818002C2810BE00EF0BEE00848E57E60
:100E4000180034120D65D281DA7922CA797D537F78
:100E5000707F172D357E1BE07F172D3529F100019E
:100E60007F077D35120B38BEE30008780ABEF30217
:100E70002D780474018001E4DA79224394025393BB
:100E8000FD7E34FE107E24007E7E1BB054FD7A1B56
:100E9000B07E34FE407E24007E7E1BB054FD7A1B63
:100EA000B022CAF87DF37CFB7F207F1080071BF403
:100EB0007A2BF00B544DFF78F5DAF82212097312F1
:100EC0000ED343B20353B1FC4396035395FC120A6D
:100ED000AC80FE759850438E01438E0475D7F37530
:100EE000D6FF438E1022120E7B7E08000A7E34004D
:100EF00009120D251200D1227F01BE080000400317
:100F0000D38001C3227CAB7AA1993099FDC2997C30
:100F1000BA22120E7B74C1120E1A1200D122120EC6
:100F20007B74C2120E1A1200D122120E7B74301280
:100F30000E1A1200D122283029000009000A0000F0
:100F4000000000000000000002001300000001008B
:100F5000150A000100160000010017000002001829
:100F600000000002001A00000002011C0000000145
:100F7000011F010002012000000001012200000108
:100F800001230000010124000001012800000041AC
:050F90004443430A0088
:00000001FF
