:0A000000020D8602100375ED1C22AC
:07000B0002100B75ED1D2230
:0700130002101375ED1E221F
:07001B0002101B75ED1F220E
:0700230002102375ED2022FD
:07002B0002102B75ED2D22E0
:0700330002103375ED2E22CF
:07003B0002103B75ED2F22BE
:0700430002104375ED3022AD
:07004B0002104B75ED2922A4
:0700530002105375ED32228B
:07005B0002105B75ED31227C
:0700630002106375ED02229B
:07006B0002106B75ED042289
:0700730002107375ED062277
:03007B0002107BF5
:03008300021083E5
:03008B0002108BD5
:03009300021093C5
:03009B0002109BB5
:0300A3000210A3A5
:0300AB000210AB95
:0300B3000210B385
:0300BB000210BB75
:0300C3000210C365
:0300CB000210CB55
:0300D3000210D345
:0300DB000210DB35
:0300E3000210E325
:0300EB000210EB15
:0300F3000210F305
:0300FB000210FBF5
:03010300021103E3
:03010B0002110BD3
:03011300021113C3
:03011B0002111BB3
:03012300021123A3
:03012B0002112B93
:0301330002113383
:03013B0002113B73
:0301430002114363
:03014B0002114B53
:0301530002115343
:03015B0002115B33
:0301630002116323
:03016B0002116B13
:0301730002117303
:03017B0002117BF3
:03018300021183E3
:03018B0002118BD3
:03019300021193C3
:03019B0002119BB3
:0301A3000211A3A3
:0301AB000211AB93
:0301B3000211B383
:0301BB000211BB73
:0301C3000211C363
:0301CB000211CB53
:0301D3000211D343
:0301DB000211DB33
:0301E3000211E323
:0301EB000211EB13
:0301F3000211F303
:0301FB000211FBF3
:03020300021203E1
:03020B0002120BD1
:03021300021213C1
:10021B0002121B7F217F707F10800A7E2B307A1B8E
:10022B00300B540B34691FFFFD7D011B04790FFF4D
:0B023B00FD4D1178E67F1722021243F0
:10024B0002124BCA3B7EB3002260607E3700207ADD
:10025B0037001C7E1400007E0400017E37001C1248
:10026B000C5060417E1401027E0400017E340100BB
:10027B00E4120D566D33801C7D232E2400007A5121
:10028B00827A4183E07D232E2401027A51827A41C6
:10029B0083F00B34BE37001C40DE120DC3E47AB37F
:1002AB0000220205B3120DDB0205B3900000E00A39
:1002BB003B7A370012900010E0B47D23900008E0E9
:1002CB00B40D0280030205B3900009E0B442028032
:1002DB00030205B3120D70E4900014F00205B39005
:1002EB000014E0B47D1990000CE0B40D1290000DD9
:1002FB00E0B4420B120D70E4900014F00205B390C1
:10030B000028E0B47D19900020E0B40D129000217C
:10031B00E0B4420B120D70E4900014F00205B37EB2
:10032B003700124D33781A900001E07014900002E0
:10033B00E0700E900003E070087E3400657A3700A1
:10034B00087E370012BE34000178557E3400027AE5
:10035B0037001C7E1400007E0400017E37001C1247
:10036B000C507006120DDB0205B37E1F0018120D28
:10037B00B04006120DCF0205B37E1F0018CA1B7EBC
:10038B003700206D227E1401027E04000112090D3C
:10039B001BFE4006120DCF0205B3120DC30205B3AF
:1003AB007E370012BE3400FF78457E3400047A3766
:1003BB00001C7E1400007E0400017E37001C120C12
:1003CB00507006120DDB0205B36D337A37000890BF
:1003DB000002E07C4B6C55900003E00A3B4D326D04
:1003EB00222E2400FF7A1F0018120DC30205B37EC4
:1003FB00370012BE3400FE784E7E3400047A37008C
:10040B001C7E1400007E0400017E37001C120C5071
:10041B007006120DDB0205B3900002E0B4010A7EF8
:10042B003401007A370020800A900003E00A3B7AFF
:10043B0037002074017AB300227E3401007A370032
:10044B0010120CDF0205B37E370012BE3400FD78AC
:10045B002D7E3400027A37001C7E1400007E0400CF
:10046B00017E37001C120C507006120DDB0205B317
:10047B00120C8074C1120C1F120CDF0205B37E37F5
:10048B000012BE34000278347E3400027A37001C2E
:10049B007E1400007E0400017E37001C120C50708D
:1004AB0006120DDB0205B37E1F0018120DB04006BD
:1004BB00120DCF0205B3120DC30205B37E37001226
:1004CB00BE340004780674017AB300147E37001230
:1004DB00BE340003680302059E7E3400027A3700A7
:1004EB001C7E1400007E0400017E37001C120C5091
:1004FB007006120DDB0205B37E37000D0B347A3715
:10050B00000D900001E00A6B4D6678047E640100DB
:10051B007E3400807A370010120C807D362E34002A
:10052B0003120AFD7D737D177E0400017E340002E9
:10053B00E4120D56CA697D177E0400017E1F001858
:10054B00120D9C1BFD7D177E0400017D36120A9453
:10055B007EB3001E7D372D367A71827A6183F07EF1
:10056B00B3001F7D372D360B347A71827A6183F09D
:10057B0074307D372D360B357A71827A6183F07D3D
:10058B00362E3400037D177E040001120BAB120CC8
:10059B00DF8015120C8074C1120C1F7E3700080B04
:1005AB00347A370008120CDFDA3B227E1402027E0B
:1005BB000400017E340400120D0CC2AF75EA007505
:1005CB00E90075BA80439D0375A61A759F6B43DCD2
:1005DB008053DC9F43DC4000000000007E34FE00B3
:1005EB007E24007E7E1BB044807A1BB07E34FE00DE
:1005FB007E24007E7E1BB044407A1BB074017E3497
:10060B00FE057E24007E7A1BB074807E34FE077E4E
:10061B0024007E7A1BB07E34FE077E24007E7E1B78
:10062B00B030E0F2539D3F439D80D2AFE47E34FE69
:10063B00F07E24007E7A1BB074277E34FEF17E247C
:10064B00007E7A1BB074FF7E34FEF27E24007E7A2D
:10065B001BB074FF7E34FEF37E24007E7A1BB074D5
:10066B00FF7E34FEEE7E24007E7A1BB074FF7E3458
:10067B00FEEF7E24007E7A1BB07E34FEE07E2400EB
:10068B007E7E1BB044017A1BB07594007593027E7D
:10069B0034FE307E24007E7E1BB044027A1BB0E415
:1006AB007E34FE187E24007E7A1BB07E34FE107ED4
:1006BB0024007E7E1BB044027A1BB075F52812070E
:1006CB00077E34FE107E24007E7E1BB054FD7A1B09
:1006DB00B07E34FE407E24007E7E1BB054FD7A1B20
:1006EB00B0759400759302120B561209D27E370027
:1006FB0008BE34006428F3120D3380EECA797E34C1
:10070B00FE107E24007E7E1BB054FD7A1BB07E341F
:10071B00FE407E24007E7E1BB044027A1BB0759493
:10072B00007593027E1801F4120BEB6D778018A203
:10073B0081B3500A7E37000A0B347A37000A7E18D1
:10074B00000A120BEB0B74BE7401F448E27E370007
:10075B000ABE3401C22803120D337E34FE107E24F0
:10076B00007E7E1BB044027A1BB07E34FE407E249A
:10077B00007E7E1BB054FD7A1BB0759400759302FE
:10078B007E1801F4120BEB6D778018A281B3500A1F
:10079B007E37000A0B347A37000A7E18000A120BD8
:1007AB00EB0B74BE7401F448E27E37000A4D3368DC
:1007BB006A6D337A37000A7E34FE107E24007E7E0B
:1007CB001BB054FD7A1BB07E34FE407E24007E7E2F
:1007DB001BB054FD7A1BB07594007593027E180103
:1007EB00F4120BEB6D778018A281B3500A7E3700A1
:1007FB000A0B347A37000A7E18000A120BEB0B74C3
:10080B00BE7401F448E27E37000A4D33680D7E3723
:10081B00000ABE3400002803120D33DA7922CA799C
:10082B00E47AB3001774017E34FEE77E24007E7AEF
:10083B001BB080307E34FEEE7E24007E7E1B707CEF
:10084B00476C557E14FEEF7E04007E7E0B700A37DC
:10085B004D32BE344E20280C7E3400657A370008AA
:10086B00C302090AA281B340CB74017E34FEE77E3A
:10087B0024007E7A1BB0802D7E34FEEE7E24007E1B
:10088B007E1B707C476C557E14FEEF7E04007E7ED3
:10089B000B700A374D32BE34010428097EB3000FAA
:1008AB006003C3805A2081D07E18001A120BEB30E4
:1008BB008103C3804A6D7780227E180034120BEBC4
:1008CB007C6FA281E4337C7B7CB660053E70147830
:1008DB00FB4E7300177A7300170B74BE7400084835
:1008EB00D87E180034120BEBA281B35003C3800FD8
:1008FB0074017AB3000F7E7300177A73000CD3DA8E
:10090B0079227F717F60A9D7C7693FFFFD692FFFF0
:10091B00FB5E3401FF7836A9C4C775C503693FFF79
:10092B00FD692FFFFB7CB5F5F6693FFFFD692FFFD6
:10093B00FB7CB6F5C3695FFFFD694FFFFBF5C47523
:10094B00C65A75C6A500000000A924C7FC75C502D0
:10095B009F118046A9C4C7691FFFFD690FFFFB2FBD
:10096B00017CB1F5F6691FFFFD690FFFFB2F017CC1
:10097B00B2F5C3695FFFFD694FFFFB2F21F5C47D06
:10098B00132D1D7D0C7E0BB0F5C275C65A75C6A511
:10099B0000000000A924C7FC0B1CBF1740B675C78D
:1009AB000075C50075C60075C3FF75C4FF7D3FCAD2
:1009BB0039693FFFFB692FFFF97F06120CB01BFD56
:1009CB007003D38001C322CA3B6D337A37000DE429
:1009DB007AB3000F7E1400007E0400017E34010206
:1009EB00E4120D56120CDF9F33020A7F12082940C6
:1009FB0003020A887EB3002260297E3700200B3564
:100A0B00BE37000D68777EB300177D372E3400009C
:100A1B007A71827A6183F07E37000D0B347A37005E
:100A2B000D804F7E34FEEE7E24007E7E1B707C4755
:100A3B006C557E14FEEF7E04007E7E0B700A374DE4
:100A4B0032BE3400FA28086D337A37000D802E7EC3
:100A5B00B300177D372E3400007A71827A6183F0F0
:100A6B00BE380101780C7E3700082E3400147A371B
:100A7B0000080B3CBE38010250030209F77EB3009D
:100A8B000F600312024EDA3B227D437F706D557A65
:100A9B005700236D3380467F072D137E0BA06C55BB
:100AAB0080347E0700235E0400017CBA54010A1BCC
:100ABB006D1068147E1700231E147A1700236E1412
:100ACB00A0017A170023800A7E1700231E147A17C1
:100ADB0000231EA00B50BE500840C70B34BD344042
:100AEB00B67E7300247A73001E7E7300237A730024
:100AFB001F227D537E3401257E24000069110002E4
:100B0B000B1A00BE08000078039F112269400004F5
:100B1B00BD4550047F1080E49D45BE440018501223
:100B2B00695000020B0A40795100021B1A407F10DA
:100B3B0080149E440006794000047F102D342E341F
:100B4B000006795100042E340006227E340030CA90
:100B5B00397E34F8007E2400FF7E1400007E0400F2
:100B6B0001120D9C1BFD900002E0BEB00C68309092
:100B7B000002E0BEB0FF6827900002E06021740C19
:100B8B00900002F07E34F8007E2400FFCA1B7E1812
:100B9B0000307E1400007E04000112090D1BFE22A2
:100BAB00CA3BCA397F300BFD6D33793FFFFF801F86
:100BBB00693FFFFF2D377D267E1BB0120C1F7E1861
:100BCB000034120BEB693FFFFF0B34793FFFFF69DA
:100BDB002FFFFD693FFFFFBD3248D51BFEDA3B22DD
:100BEB007F7174017E34FEE77E24007E7A1BB07E1B
:100BFB0034FEEE7E24007E7E1B707C476C557E148B
:100C0B00FEEF7E04007E7E0B700A374D326D22BFE5
:100C1B001740DC22CA797CFBC2817E180034120B90
:100C2B00EB6CEE80167CBF30E004D2818002C28177
:100C3B000BE01EF07E180034120BEBBEE00840E513
:100C4B00D281DA7922CA797D537F707F172D357E59
:100C5B001BE07F172D3529F100017F077D35120A27
:100C6B0094BEE3001E780ABEF3001F780474018063
:100C7B0001E4DA7922D2817E34FE107E24007E7E5E
:100C8B001BB054FD7A1BB07E34FE407E24007E7E6A
:100C9B001BB054FD7A1BB04394025393FD7E180096
:100CAB0034120BEB227F217F70693FFFFD4D3378B0
:100CBB0002E4221B34793FFFFD7E2B607E7B70BCF0
:100CCB0076680ABC76280374012274FF220BF40B9E
:100CDB005480D6227E34FE107E24007E7E1BB044D0
:100CEB00027A1BB07E34FE407E24007E7E1BB05405
:100CFB00FD7A1BB07594007593026D337A3700152E
:100D0B00227DF37F207E3401257E240000791100A3
:100D1B00021B1A009F11793200021B2A207D3F9E75
:100D2B0034000679320004227E34F8007E2400FF62
:100D3B007E1BB0BEB00168086D337A370008800A9D
:100D4B007E3410007E2400FF991822CAF87DF37CB4
:100D5B00FB7F207F1080071BF47A2BF00B544DFF89
:100D6B0078F5DAF822120C807E140FE87E0400FF6F
:100D7B007E340009120BAB120CDF227584017E440A
:100D8B00041FE47A49B01B4478F97EF8002402056D
:100D9B00B67F217F70693FFFFDCA397F127F071233
:100DAB00021E1BFD227F217E3410007E2400FFBF1C
:100DBB00214003D38001C322120C807430120C1F0C
:100DCB00120CDF22120C8074C1120C1F120CDF22CA
:100DDB00120C8074C2120C1F120CDF2275ED21A5B0
:100DEB00EF540FA2E0640822A5EC6480A5FC22A5B9
:100DFB00EC547FA5FC2275ED22A5EF2275ED25A500
:100E0B00EF227C7475ED27227D3275ED282275ED6E
:100E1B0033A5EF22A5FF75ED342275ED35A5EF2235
:100E2B00A5FF75ED36226D0075ED02226D0075ED97
:020E3B0004228F
:100FE0005925E3DA4EB863D93437310135060601A5
:010FF00030D0
:00000001FF
