:0A000000020D0B02100375ED1C2227
:07000B0002100B75ED1D2230
:0700130002101375ED1E221F
:07001B0002101B75ED1F220E
:0700230002102375ED2022FD
:07002B0002102B75ED2D22E0
:0700330002103375ED2E22CF
:07003B0002103B75ED2F22BE
:0700430002104375ED3022AD
:07004B0002104B75ED2922A4
:0700530002105375ED32228B
:07005B0002105B75ED31227C
:0700630002106375ED02229B
:07006B0002106B75ED042289
:0700730002107375ED062277
:03007B0002107BF5
:03008300021083E5
:03008B0002108BD5
:03009300021093C5
:03009B0002109BB5
:0300A3000210A3A5
:0300AB000210AB95
:0300B3000210B385
:0300BB000210BB75
:0300C3000210C365
:0300CB000210CB55
:0300D3000210D345
:0300DB000210DB35
:0300E3000210E325
:0300EB000210EB15
:0300F3000210F305
:0300FB000210FBF5
:03010300021103E3
:03010B0002110BD3
:03011300021113C3
:03011B0002111BB3
:03012300021123A3
:03012B0002112B93
:0301330002113383
:03013B0002113B73
:0301430002114363
:03014B0002114B53
:0301530002115343
:03015B0002115B33
:0301630002116323
:03016B0002116B13
:0301730002117303
:03017B0002117BF3
:03018300021183E3
:03018B0002118BD3
:03019300021193C3
:03019B0002119BB3
:0301A3000211A3A3
:0301AB000211AB93
:0301B3000211B383
:0301BB000211BB73
:0301C3000211C363
:0301CB000211CB53
:0301D3000211D343
:0301DB000211DB33
:0301E3000211E323
:0301EB000211EB13
:0301F3000211F303
:0301FB000211FBF3
:03020300021203E1
:03020B0002120BD1
:03021300021213C1
:10021B0002121B7F217F707F10800A7E2B307A1B8E
:10022B00300B540B34691FFFFD7D011B04790FFF4D
:0B023B00FD4D1178E67F1722021243F0
:10024B0002124BCA3B7EB3002260607E3700207ADD
:10025B0037001C7E1400007E0400017E37001C1248
:10026B000C2F60417E1401027E0400017E340100DC
:10027B00E4120CDB6D33801C7D232E2400007A519D
:10028B00827A4183E07D232E2401027A51827A41C6
:10029B0083F00B34BE37001C40DE120D32E47AB310
:1002AB0000220205B7120D4A0205B7900000E00AC2
:1002BB003B7A370012900010E0B47D23900008E0E9
:1002CB00B40D0280030205B7900009E0B44202802E
:1002DB00030205B7120CF5E4900014F00205B79079
:1002EB000014E0B47D1990000CE0B40D1290000DD9
:1002FB00E0B4420B120CF5E4900014F00205B79039
:10030B000028E0B47D19900020E0B40D129000217C
:10031B00E0B4420B120CF5E4900014F00205B77E2A
:10032B003700124D33781A900001E07014900002E0
:10033B00E0700E900003E070087E3400657A3700A1
:10034B00087E370012BE34000178557E3400027AE5
:10035B0037001C7E1400007E0400017E37001C1247
:10036B000C2F7006120D4A0205B77E1F0018120DD6
:10037B00214006120D3E0205B77E1F0018CA1B7ED8
:10038B003700206D227E1401027E0400011208C08A
:10039B001BFE4006120D3E0205B7120D320205B7C9
:1003AB007E370012BE3400FF78497E3400047A3762
:1003BB00001C7E1400007E0400017E37001C120C12
:1003CB002F7006120D4A0205B76D337A370008906D
:1003DB000002E00A3B7D237C456C55900003E00A4C
:1003EB003B4D326D222E2400FF7A1F0018120D3266
:1003FB000205B77E370012BE3400FE784E7E340005
:10040B00047A37001C7E1400007E0400017E370046
:10041B001C120C2F7006120D4A0205B7900002E059
:10042B00B4010A7E3401007A370020800A90000361
:10043B00E00A3B7A37002074017AB300227E340144
:10044B00007A370010120CBE0205B77E370012BEC1
:10045B003400FD782D7E3400027A37001C7E1400A8
:10046B00007E0400017E37001C120C2F7006120D4B
:10047B004A0205B7120C9E74C1120BCF120CBE02AE
:10048B0005B77E370012BE34000278347E3400028A
:10049B007A37001C7E1400007E0400017E37001C9E
:1004AB00120C2F7006120D4A0205B77E1F00181290
:1004BB000D214006120D3E0205B7120D320205B793
:1004CB007E370012BE340004780674017AB3001430
:1004DB007E370012BE34000368030205A27E34008F
:1004EB00027A37001C7E1400007E0400017E370068
:1004FB001C120C2F7006120D4A0205B77E37000D29
:10050B000B347A37000D900001E00A6B4D667804CE
:10051B007E6401007E3400807A370010120C9E7DC1
:10052B00362E340003120AB07D737D177E04000152
:10053B007E340002E4120CDBCA697D177E040001D5
:10054B007E1F0018120D561BFD7D177E0400017DCA
:10055B0036120A477EB3001E7D372D367A71827AAA
:10056B006183F07EB3001F7D372D360B347A718299
:10057B007A6183F074307D372D360B357A71827A40
:10058B006183F07D362E3400037D177E040001124B
:10059B000C7E120CBE8015120C9E74C1120BCF7EFA
:1005AB003700080B347A370008120CBEDA3B227E78
:1005BB001402027E0400017E340400120C57C2AFF9
:1005CB0075EA0075E90075BA8043DC8053DC9F4304
:1005DB00DC4000000000007E34FE007E24007E7EA6
:1005EB001BB044807A1BB07E34FE007E24007E7EDE
:1005FB001BB044407A1BB074017E34FE057E240090
:10060B007E7A1BB074807E34FE077E24007E7A1BBC
:10061B00B07E34FE077E24007E7E1BB030E0F253AA
:10062B009D3F439D80D2AFE47E34FEF07E24007E5E
:10063B007A1BB074277E34FEF17E24007E7A1BB0C9
:10064B0074FF7E34FEF27E24007E7A1BB074FF7E34
:10065B0034FEF37E24007E7A1BB074FF7E34FEEEF4
:10066B007E24007E7A1BB074FF7E34FEEF7E240066
:10067B007E7A1BB07E34FEE07E24007E7E1BB0446F
:10068B00017A1BB05395FD5396FD7E34FE427E24BA
:10069B00007E7E1BB054FD7A1BB075F5281206D672
:1006AB004395025396FD7E34FE427E24007E7E1BD4
:1006BB00B054FD7A1BB0120B091209857E37000866
:1006CB00BE34006428F3120B5E80EECA79439502A8
:1006DB005396FD7E34FE427E24007E7E1BB054FD7D
:1006EB007A1BB07E1801F4120B996D778018A2A1BA
:1006FB00B3500A7E37000A0B347A37000A7E180093
:10070B000A120B990B74BE7401F448E27E37000A8F
:10071B00BE3401C228117E34FE997E24007E7E1BDE
:10072B00B030E203120B5E5395FD5396FD7E34FE03
:10073B00427E24007E7E1BB054FD7A1BB07E1801D6
:10074B00F4120B996D778018A2A1B3500A7E370073
:10075B000A0B347A37000A7E18000A120B990B74B5
:10076B00BE7401F448E27E37000A4D33685A6D338C
:10077B007A37000A4395025396FD7E34FE427E245F
:10078B00007E7E1BB054FD7A1BB07E1801F4120B59
:10079B00996D778018A2A1B3500A7E37000A0B34EB
:1007AB007A37000A7E18000A120B990B74BE74017B
:1007BB00F448E27E37000A4D33680D7E37000ABEDF
:1007CB003400002803120B5EDA7922E47AB30017A7
:1007DB0074017E34FEE77E24007E7A1BB080347E6B
:1007EB0034FEEE7E24007E7E1B700A377D237C4513
:1007FB006C557E14FEEF7E04007E7E0B700A374D27
:10080B0032BE344E20280C7E3400657A370008C384
:10081B000208BFA2A1B340C774017E34FEE77E2459
:10082B00007E7A1BB080317E34FEEE7E24007E7E0D
:10083B001B700A377D237C456C557E14FEEF7E04BE
:10084B00007E7E0B700A374D32BE34010428097EC0
:10085B00B3000F6003C3805C20A1CC7E18001A127A
:10086B000B9930A103C3804C6DFF80247E1800349C
:10087B00120B997D3F7C67A2A1E4337C7B7CB66035
:10088B00053E701478FB4E7300177A7300170BF448
:10089B00BEF4000848D67E180034120B99A2A1B3FF
:1008AB005003C3800F74017AB3000F7E7300177A65
:1008BB0073000CD322A9D7C7695FFFFD694FFFFBFC
:1008CB005E5401FF5E440000BE2800007836A9C4C8
:1008DB00C775C503695FFFFD694FFFFB7CB9F5F673
:1008EB00695FFFFD694FFFFB7CBAF5C3695FFFFDD5
:1008FB00694FFFFBF5C475C65A75C6A5000000000D
:10090B00A924C7FC75C5029F778046A9C4C7695F38
:10091B00FFFD694FFFFB2F277CB9F5F6695FFFFDE4
:10092B00694FFFFB2F277CBAF5C3695FFFFD694F4A
:10093B00FFFB2F27F5C47D5F2D517D407E2BB0F53E
:10094B00C275C65A75C6A500000000A924C7FC0BCA
:10095B007CBF7140B675C70075C50075C60075C301
:10096B00FF75C4FFCA39693FFFFB692FFFF9120CF2
:10097B00001BFD7003D38001C3226D337A37000D4A
:10098B00E47AB3000F7E1400007E0400017E340174
:10099B0002E4120CDB120CBE9F66020A341207D65D
:1009AB004003020A3D7EB3002260297E3700200BF4
:1009BB0035BE37000D687B7EB300177D3D2E3400AE
:1009CB00007A71827A6183F07E37000D0B347A37AF
:1009DB00000D80537E34FEEE7E24007E7E1B700A5B
:1009EB00377D237C456C557E14FEEF7E04007E7EA6
:1009FB000B700A374D32BE3400FA28086D337A3744
:100A0B00000D802E7EB300177D3D2E3400007A71D1
:100A1B00827A6183F0BE680101780C7E3700082E64
:100A2B003400147A3700080B6CBE680102500302C5
:100A3B0009A87EB3000F600312024E226D227A27A3
:100A4B0000236D22804A7F202D527E2BA06C998033
:100A5B00387EE700235EE400017CBA54010AFB6D8B
:100A6B00FE68187EF700231EF47AF700237EF7004A
:100A7B00236EF4A0017AF70023800A7EF700231E71
:100A8B00F47AF700231EA00B90BE900840C30B24F2
:100A9B00BD2340B27E7300247A73001E7E73002345
:100AAB007A73001F227D537E3401257E240000695A
:100ABB001100020B1A00BE08000078039F11226977
:100ACB00400004BD4550047F1080E49D45BE4400AA
:100ADB00185012695000020B0A40795100021B1A80
:100AEB00407F1080149E440006794000047F102D37
:100AFB00342E340006795100042E340006227E3445
:100B0B000030CA397E34F8007E2400FF7E140000CA
:100B1B007E040001120D561BFD900002E0BEB00CCE
:100B2B006830900002E0BEB0FF6827900002E060E2
:100B3B0021740C900002F07E34F8007E2400FFCA72
:100B4B001B7E1800307E1400007E0400011208C0CA
:100B5B001BFE227E34F8007E2400FF7E1BB07E3409
:100B6B0010007E2400FFBEB00168086D117A1700DB
:100B7B0008801A7E1BB0BEB00268086D337A37004E
:100B8B0008800A7E3410007E2400FF99182274011D
:100B9B007E14FEE77E04007E7A0BB07E14FEEE7EA2
:100BAB0004007E7E0B300A137D017C016C117E5498
:100BBB00FEEF7E44007E7E2B300A134D106D00BF7E
:100BCB000140D822CA797CFBC2A17E180034120BDB
:100BDB00996CEE80167CBF30E004D2A18002C2A1DA
:100BEB000BE01EF07E180034120B99BEE00840E5B6
:100BFB00D2A1DA79227F217F70693FFFFD4D3378D7
:100C0B0002E4221B34793FFFFD7E2B607E7B70BCA0
:100C1B0076680ABC76280374012274FF220BF40B4E
:100C2B005480D622CA797F202D537E2BE07F202D36
:100C3B005329F20001120A47BEE3001E780ABEF3E5
:100C4B00001F780474018001E4DA79227DF37F20A0
:100C5B007E3401257E240000791100021B1A009FAF
:100C6B0011793200021B2A207D3F9E340006793217
:100C7B000004227DF37F606DEE80137F162D3E7E88
:100C8B001BB0120BCF7E180034120B990BE4BDEF87
:100C9B0048E922D2A15395FD4396027E34FE427E53
:100CAB0024007E7E1BB054FD7A1BB07E18003412DC
:100CBB000B99225395FD5396FD7E34FE427E240004
:100CCB007E7E1BB054FD7A1BB06D337A3700152234
:100CDB00CAF87DF37CFB7F207F1080071BF47A2BF7
:100CEB00F00B544DFF78F5DAF822120C9E7E140FA0
:100CFB00E87E0400FF7E340009120C7E120CBE222B
:100D0B007584017E44041FE47A49B01B4478F97E54
:100D1B00F800240205BA7E1410007E0400FFBF10F9
:100D2B004003D38001C322120C9E7430120BCF12DE
:100D3B000CBE22120C9E74C1120BCF120CBE2212CF
:100D4B000C9E74C2120BCF120CBE22695FFFFDCA40
:100D5B005912021E1BFD2275ED21A5EF540FA2E0C7
:100D6B00640822A5EC6480A5FC22A5EC547FA5FCAD
:100D7B002275ED22A5EF2275ED25A5EF227C74756A
:100D8B00ED27227D3275ED282275ED33A5EF22A5D7
:100D9B00FF75ED342275ED35A5EF22A5FF75ED3608
:0D0DAB00226D0075ED02226D0075ED042231
:100FE0005925E3DA4EB863D9343731213506060185
:010FF00030D0
:00000001FF
