:10000000020B57CA3B7EB3000D60607E3700217A39
:100010003700167E1401007E0400017E37001612A0
:1000200009FC60417E1400007E0400017E34010062
:10003000E4120B276D33801C7D232E2401007A519E
:10004000827A4183E07D232E2400007A51827A4116
:1000500083F00B34BE37001640DE120BACE47AB3EB
:10006000000D020368120BA0020368900100E00A71
:100070003B7A370012900110E0B47D23900108E034
:10008000B40D028003020368900109E0B4420280CB
:1000900003020368120B41E4900114F0020368901C
:1000A0000114E0B47D1990010CE0B40D1290010D23
:1000B000E0B4420B120B41E4900114F0020368908B
:1000C0000128E0B47D19900120E0B40D12900121C7
:1000D000E0B4420B120B41E4900114F00203687E7D
:1000E0003700124D33781A900101E070149001022C
:1000F000E0700E900103E070087E3400657A3700EE
:10010000107E370012BE34000178557E3400027A2A
:100110003700167E1401007E0400017E370016129F
:1001200009FC7006120BA00203687E1F001D120B53
:10013000814006120B940203687E1F001DCA1B7EBD
:100140003700216D227E1400007E0400011206B9E2
:100150001BFE4006120B94020368120BAC020368EC
:100160007E370012BE3400FF78457E3400047A37B3
:1001700000167E1401007E0400017E37001612096D
:10018000FC7006120BA00203686D337A37001090E2
:100190000102E07C4B6C55900103E00A3B4D326D4F
:1001A000222E2400FF7A1F001D120BAC0203687E72
:1001B000370012BE3400FE784E7E3400047A3700D9
:1001C000167E1401007E0400017E3700161209FC21
:1001D0007006120BA0020368900102E0B4010A7ECF
:1001E0003401007A370021800A900103E00A3B7A4B
:1001F00037002174017AB3000D7E3401007A370094
:100200001B120A8B0203687E370012BE3400FD7891
:100210002D7E3400027A3700167E1401007E040021
:10022000017E3700161209FC7006120BA00203684B
:10023000120A2C74C11209CB120A8B0203687E3792
:100240000012BE34000278347E3400027A37001681
:100250007E1401007E0400017E3700161209FC7036
:1002600006120BA00203687E1F001D120B814006C0
:10027000120B94020368120BAC0203687E37001263
:10028000BE340004780674017AB300147E3700127D
:10029000BE34000368030203537E3400027A370041
:1002A000167E1401007E0400017E3700161209FC40
:1002B0007006120BA00203687E37000E0B347A37EB
:1002C000000E900101E00A6B4D6678047E64010027
:1002D0007E3400807A37001B120A2C7D362E3400C3
:1002E000031208A97D737D177E0400017E3400028D
:1002F000E4120B27CA697D177E0400017E1F001DD2
:10030000120B6D1BFD7D177E0400017D3612084027
:100310007EB300087D372D367A71827A6183F07E54
:10032000B3001A7D372D360B347A71827A6183F0EF
:1003300074307D372D360B357A71827A6183F07D8A
:10034000362E3400037D177E040001120957120A6D
:100350008B8015120A2C74C11209CB7E3700100B4A
:10036000347A370010120A8BDA3B227E1402027EA6
:100370000400017E340400120AB8C2AF75EA0075A9
:10038000E90075BA8043DC8053DC9F43DC40000009
:100390000000007E34FE007E24007E7E1BB0448080
:1003A0007A1BB07E34FE007E24007E7E1BB044406B
:1003B0007A1BB074017E34FE057E24007E7A1BB069
:1003C00074807E34FE077E24007E7A1BB07E34FE6D
:1003D000077E24007E7E1BB030E0F2539D3F439D9C
:1003E00080D2AFE47E34FEF07E24007E7A1BB074AF
:1003F000277E34FEF17E24007E7A1BB074FF7E34AB
:10040000FEF27E24007E7A1BB074FF7E34FEF37E03
:1004100024007E7A1BB074FF7E34FEEE7E24007EC4
:100420007A1BB074FF7E34FEEF7E24007E7A1BB010
:100430007E34FEE07E24007E7E1BB044017A1BB039
:100440007594007593017E34FE307E24007E7E1B01
:10045000B044017A1BB0E47E34FE187E24007E7A1C
:100460001BB07E34FE107E24007E7E1BB044017AD9
:100470001BB075F5281204B37E34FE107E24007E76
:100480007E1BB054FE7A1BB07E34FE407E24007E7C
:100490007E1BB054FE7A1BB075940075930112094F
:1004A0000212077E7E370010BE34006428F3120B60
:1004B0000480EECA797E34FE107E24007E7E1BB05E
:1004C00054FE7A1BB07E34FE407E24007E7E1BB03C
:1004D00044017A1BB07594007593017E1801F412E3
:1004E00009976D778018A280B3500A7E37000A0BF7
:1004F000347A37000A7E18000A1209970B74BE740A
:1005000001F448E27E37000ABE3401C22803120B10
:10051000047E34FE107E24007E7E1BB044017A1BD4
:10052000B07E34FE407E24007E7E1BB054FE7A1BDB
:10053000B07594007593017E1801F41209976D77D8
:100540008018A280B3500A7E37000A0B347A370035
:100550000A7E18000A1209970B74BE7401F448E26F
:100560007E37000A4D33686A6D337A37000A7E346D
:10057000FE107E24007E7E1BB054FE7A1BB07E34BB
:10058000FE407E24007E7E1BB054FE7A1BB0759424
:10059000007593017E1801F41209976D778018A2F7
:1005A00080B3500A7E37000A0B347A37000A7E186F
:1005B000000A1209970B74BE7401F448E27E3700FA
:1005C0000A4D33680D7E37000ABE3400002803123E
:1005D0000B04DA7922CA79E47AB3000C74017E3410
:1005E000FEE77E24007E7A1BB080307E34FEEE7EF5
:1005F00024007E7E1B707C476C557E14FEEF7E04CB
:10060000007E7E0B700A374D32BE344E20280C7EA1
:100610003400657A370010C30206B6A280B340CB1F
:1006200074017E34FEE77E24007E7A1BB0802D7E2E
:1006300034FEEE7E24007E7E1B707C476C557E145B
:10064000FEEF7E04007E7E0B700A374D32BE340111
:100650000428097EB300156003C3805A2080D07E31
:1006600018001A120997308003C3804A6D778022E0
:100670007E1800341209977C6FA280E4337C7B7C67
:10068000B660053E701478FB4E73000C7A73000C54
:100690000B74BE74000848D87E180034120997A263
:1006A00080B35003C3800F74017AB300157E7300CA
:1006B0000C7A730009D3DA79227F717F60A9D7C7DA
:1006C000693FFFFD692FFFFB5E3401FF7836A9C447
:1006D000C775C503693FFFFD692FFFFB7CB5F5F6C4
:1006E000693FFFFD692FFFFB7CB6F5C3695FFFFD26
:1006F000694FFFFBF5C475C65A75C6A5000000001A
:10070000A924C7FC75C5029F118046A9C4C7691FEB
:10071000FFFD690FFFFB2F017CB1F5F6691FFFFD9F
:10072000690FFFFB2F017CB2F5C3695FFFFD694FC5
:10073000FFFB2F21F5C47D132D1D7D0C7E0BB0F525
:10074000C275C65A75C6A500000000A924C7FC0BD7
:100750001CBF1740B675C70075C50075C60075C3C8
:10076000FF75C4FF7D3FCA39693FFFFB692FFFF961
:100770007F06120A5C1BFD7003D38001C322CA3BB3
:100780006D337A37000EE47AB300157E1401007ED3
:100790000400017E340102E4120B27120A8B9F33FE
:1007A00002082B1205D540030208347EB3000D6009
:1007B000297E3700210B35BE37000E68777EB300E7
:1007C0000C7D372E3401007A71827A6183F07E3796
:1007D000000E0B347A37000E804F7E34FEEE7E24FE
:1007E000007E7E1B707C476C557E14FEEF7E0400FD
:1007F0007E7E0B700A374D32BE3400FA28086D3306
:100800007A37000E802E7EB3000C7D372E34010027
:100810007A71827A6183F0BE380101780C7E3700EC
:10082000102E3400147A3700100B3CBE38010250F1
:10083000030207A37EB300156003120003DA3B2214
:100840007D437F706D557A5700236D3380467F0757
:100850002D137E0BA06C5580347E0700235E0400B0
:10086000017CBA54010A1B6D1068147E1700231E08
:10087000147A1700236E14A0017A170023800A7ED1
:100880001700231E147A1700231EA00B50BE500819
:1008900040C70B34BD3440B67E7300247A73000821
:1008A0007E7300237A73001A227D537E3401257EE5
:1008B000240000691100020B1A00BE080000780332
:1008C0009F112269400004BD4550047F1080E49DC3
:1008D00045BE4400185012695000020B0A4079517D
:1008E00000021B1A407F1080149E440006794000CD
:1008F000047F102D342E340006795100042E34006C
:1009000006227E340030CA397E34F8007E2400FF8F
:100910007E1401007E040001120B6D1BFD9001028C
:10092000E0BEB00C6830900102E0BEB0FF682790D6
:100930000102E06021740C900102F07E34F8007E28
:100940002400FFCA1B7E1800307E1401007E0400C4
:10095000011206B91BFE22CA3BCA397F300BFD6D5E
:1009600033793FFFFF801F693FFFFF2D377D267ED4
:100970001BB01209CB7E180034120997693FFFFFA4
:100980000B34793FFFFF692FFFFD693FFFFFBD3249
:1009900048D51BFEDA3B227F7174017E34FEE77E70
:1009A00024007E7A1BB07E34FEEE7E24007E7E1B09
:1009B000707C476C557E14FEEF7E04007E7E0B70CB
:1009C0000A374D326D22BF1740DC22CA797CFBC248
:1009D000807E1800341209976CEE80167CBF30E0E0
:1009E00004D2808002C2800BE01EF07E1800341218
:1009F0000997BEE00840E5D280DA7922CA797D53B2
:100A00007F707F172D357E1BE07F172D3529F10074
:100A1000017F077D35120840BEE30008780ABEF367
:100A2000001A780474018001E4DA7922D2807E34DD
:100A3000FE107E24007E7E1BB054FE7A1BB07E34F6
:100A4000FE407E24007E7E1BB054FE7A1BB0439491
:100A5000015393FE7E180034120997227F217F7084
:100A6000693FFFFD4D337802E4221B34793FFFFDDF
:100A70007E2B607E7B70BC76680ABC76280374018E
:100A80002274FF220BF40B5480D6227E34FE107E9B
:100A900024007E7E1BB044017A1BB07E34FE407E73
:100AA00024007E7E1BB054FE7A1BB07594007593B3
:100AB000016D337A370018227DF37F207E340125C3
:100AC0007E240000791100021B1A009F1179320068
:100AD000021B2A207D3F9E34000679320004227FCB
:100AE000217F707F10800A7E2B307A1B300B540BD5
:100AF00034691FFFFD7D011B04790FFFFD4D117847
:100B0000E67F17227E34F8007E2400FF7E1BB0BEF5
:100B1000B00168086D337A370010800A7E34100007
:100B20007E2400FF991822CAF87DF37CFB7F207F8A
:100B30001080071BF47A2BF00B544DFF78F5DAF890
:100B400022120A2C7E140FE87E0400FF7E34000976
:100B5000120957120A8B227584017E44041FE47A1D
:100B600049B01B4478F97EF8002402036B7F217F93
:100B700070693FFFFDCA397F127F07120ADF1BFD34
:100B8000227F217E3410007E2400FFBF214003D34A
:100B90008001C322120A2C74C11209CB120A8B22C3
:100BA000120A2C74C21209CB120A8B22120A2C745C
:100BB000301209CB120A8B2275ED21A5EF540FA23A
:100BC000E0640822A5EC6480A5FC22A5EC547FA576
:100BD000FC2275ED22A5EF2275ED25A5EF227C7490
:100BE00075ED27227D3275ED282275ED33A5EF22B4
:100BF000A5FF75ED342275ED35A5EF22A5FF75ED46
:100C000036226D0075ED02226D0075ED042275ED42
:100C10001C2275ED1D2275ED1E2275ED1F2275ED4E
:100C2000202275ED2D2275ED2E2275ED2F2275ED0A
:100C3000302275ED292275ED322275ED312275EDE8
:0A0C4000022275ED042275ED062274
:100FE0005925E3DA4EB863D93437310035060601A6
:010FF00030D0
:00000001FF
