:10000000020DB6CA3B7EB3001760467E37023B7ACC
:100010003701267E0801297E370126120E26602B25
:100020007E08001C7E340100E4120EC36D33800A8A
:10003000095301291953001C0B34BE37012640F027
:10004000120F21E47AB3001702032D120F150203D9
:100050002D7E7301290A377A3701207EB30139B426
:100060007D237EB30131B40D02800302032D7EB3E4
:100070000132B44202800302032D120EDDE47AB392
:10008000013D02032D7EB3013DB47D197EB30135E0
:10009000B40D127EB30136B4420B120EDDE47AB316
:1000A000013D02032D7EB30151B47D197EB3014998
:1000B000B40D127EB3014AB4420B120EDDE47AB3E2
:1000C000013D02032D7E3701204D33781A7EB301A6
:1000D0002A70147EB3012B700E7EB3012C70087E43
:1000E0003400657A37011C7E370120BE3400017868
:1000F000437E3400027A3701267E0801297E3701CB
:1001000026120E267006120F1502032D7E1F0237CF
:10011000120EEF4006120F0902032D7E1F0237CA8E
:100120001B7E37023B7E08001C1208181BFE120FB4
:100130002102032D7E370120BE3400FF783D7E343E
:1001400000047A3701267E0801297E370126120E27
:10015000267006120F1502032D6D337A37011C7EAF
:1001600073012B7C476C557E73012C0A374D326D21
:10017000227A1F0237120F2102032D7E370120BE83
:100180003400FE784A7E3400047A3701267E080166
:10019000297E370126120E267006120F1502032D36
:1001A0007EB3012BB4010A7E3401007A37023B8012
:1001B0000A7E73012C0A377A37023B74017AB30046
:1001C000177E3401007A37022E120F2D02032D7E86
:1001D000370120BE3400FD78297E3400027A3701D1
:1001E000267E0801297E370126120E267006120F80
:1001F0001502032D120E5674C1120DF5120F2D02A9
:10020000032D7E370120BE34000278307E34000298
:100210007A3701267E0801297E370126120E2670C4
:1002200006120F1502032D7E1F0237120EEF400635
:10023000120F0902032D120F2102032D7E37012018
:10024000BE340004780674017AB301227E3701209F
:10025000BE34000368030203187E3400027A3701BB
:10026000267E0801297E370126120E267006120FFF
:100270001502032D7E3700180B347A3700187E7371
:10028000012A0A674D6678047E6401007E3400808E
:100290007A37022E7D362E340003120C197D73122C
:1002A0000E567D177E0400017E340002E4120EC358
:1002B000CA697D177E0400017E1F0237120BB51B31
:1002C000FD7D177E0400017D36120B4C7EB30008C5
:1002D0007D372D367A71827A6183F07EB3022D7D6F
:1002E000372D360B347A71827A6183F074307D3722
:1002F0002D360B357A71827A6183F07D362E34008B
:10030000037D177E040001120CF8120F2D7D177E5D
:100310000400011207318015120E5674C1120DF53A
:100320007E37011C0B347A37011C120F2DDA3B2269
:100330007F507EC400007ED402697E940341020394
:10034000894001227CEACA89CA5BCA6B120EFCDAB8
:100350006BDA5BDA897E9403417CAE22540F2490E1
:10036000D43440D430F30CBEB0414007BEB05B5033
:100370000224204CCC68021BC00B84D389944CCC43
:10038000680B742012037380F5CA3B6D889F337C21
:10039000AE7E5BB00B5C7007C37D38DA3B8994B4EA
:1003A0002569C2F37E5BB00B5CA5F824D0BEB00A11
:1003B000501B7E500A20F60DAC5CA52D7CCB700343
:1003C0004EF00180DDAC5DA52D7CDB80D524CFBE59
:1003D000B01AA5E850055E00DFD2F39005FFA3E454
:1003E000936011BCB078F77414934CAB30F6B34EF5
:1003F000F08080AEA3E4936010BCB078F7741393E0
:100400007C3B741D937C2B89147CB0801374201268
:10041000037320F205BEC00250F31B6D29B6000124
:1004200012037302037E1B6E691600020B6A00BE84
:1004300008000078087E0400FF7E140F3720F21EAB
:100440004CCC681A7F10E47E1B804C8868070B1C1C
:1004500004BCBD78F2C2F6CA0B12055DDA0B7E0B46
:10046000B060C0CA0B120373DA0B0B0C4CDD68EEE4
:100470001BD078EA80ADD2F07E101080037E100889
:100480005EB05F800AD2F67E100A80057E100AC236
:10049000F66D119F117E00201B6C7E6B7030F60292
:1004A0001A3720F1051B6C7E6B6030F6041A261A91
:1004B0002430F0051B6D0B6A20A5EC3382F692F612
:1004C000500A7CEA9F229F217F127CAE4C44780F19
:1004D0007C457C567C676C772E00F878EF80122F75
:1004E000117CB3337C3B9CB140047C3B0B70A5D8A2
:1004F000EE7CB230E005DAB8C44C3BCA380B207E43
:1005000000207E3000BE18000078C1BE10087807B9
:1005100030F404C2F480B5CA287CB2BCBD38027C79
:10052000BD12055DDA28BC2D500A1BD0E4CA281282
:10053000035C80F07CB213DAB84004C4CAB8C4CA01
:1005400028BEF08040095CDD7805A5DA0260065E11
:10055000F07F12035CDA28A5DADA02037EBEF0012E
:10056000680F30F402240220F50620F70330F6016C
:100570000420F229BCBC5025CAB87CBF13B0E67475
:1005800020501174307C8A5E80F0680812059D5EF0
:10059000A00F8003120373DAB8BCBC78DB30F40F11
:1005A0007430120373745830F3027478120373308A
:1005B000F605742D020373742B20F5F8742020F7D0
:1005C000F3221B6C7E6BB010F1021B6C20F60B301B
:1005D000E704F404D2F27CCB800520E7057CDB0243
:1005E00003A25EF07F80F81B6E691600020B6A00A2
:1005F00030F0076D221B0A200B0D1B0A8002038DB1
:100600002D2B204C4248232E0053584F444943552C
:10061000502A4E00042080010200104026787D857B
:1006200085128C76C2E7040404040404040405055E
:10063000CA79E47AB3001674BF7E34FEF17E2400DA
:100640007E7A1BB0E47E34FEEE7E24007E7A1BB000
:10065000E47E34FEEF7E24007E7A1BB0802F7E3451
:10066000FEEE7E24007E7E1B707C476C557E14FE61
:10067000EF7E04007E7E0B700A374D32BE34C350CD
:10068000280B7E3400657A37011C02072EA281B345
:1006900040CC742F7E34FEF17E24007E7A1BB0E4C1
:1006A0007E34FEEE7E24007E7A1BB0E47E34FEEFC4
:1006B0007E24007E7A1BB0802A7E34FEEE7E2400EB
:1006C0007E7E1B707C476C557E14FEEF7E04007EA0
:1006D0007E0B700A374D32BE3400FA28067EB30115
:1006E00023704B2081D37E18001A120D386D77804D
:1006F000227E180034120D387C6FA281E4337C7B9B
:100700007CB660053E701478FB4E7300167A730059
:10071000160B74BE74000848D87E18001A120D38E3
:1007200074017AB301237E7300167A730232DA7988
:10073000227F20BE28000078030208179E5400067E
:100740007E3403697E24000069F100020B1AE0BECA
:1007500078000078197E3403697E24000079510006
:10076000021B1A409F11793200021B2A2022BF2748
:1007700050157E3403697E240000795100021B1A53
:10078000407F679F77801569D700020B7AC0BE68EB
:1007900000006808BF6238047F7680EBBE68000006
:1007A0006831692200047F022D122E140006BF0654
:1007B0007821693600042E3400067F020B162D3294
:1007C0001B0A30693600020B6A20793200021B2AAC
:1007D00020800779D200021B2AC0BE78000068374B
:1007E000692700047F072D122E140006BF0278200F
:1007F000693200042E3400067F070B162D321B0AC7
:1008000030693200020B2A20793700021B7A20223D
:10081000795700021B7A4022CA3BCA397F30A9D7D8
:10082000C7693FFFF7692FFFF55E3401FF78407518
:10083000C503693FFFF7692FFFF57CB5F5F6693F02
:10084000FFF7692FFFF57CB6F5C3695FFFF7694FC6
:10085000FFF5F5C475C65A75C6A500000000800BEB
:100860007E140F907E0400FF120330A924C7F17597
:10087000C502693FFFF7692FFFF57CB5F5F6693FC3
:10088000FFF7692FFFF57CB6F5C3695FFFF7694F86
:10089000FFF5F5C47E3BB0F5C275C65A75C6A50016
:1008A000000000800B7E140F907E0400FF120330C6
:1008B000A924C7F1693FFFF7692FFFF50B1C793FAA
:1008C000FFF7792FFFF50B74693FFFFF1B34793F6A
:1008D000FFFF789E75C70075C50075C60075C3FF1C
:1008E00075C4FF1BFDDA3B22CA797E34FE107E24DC
:1008F000007E7E1BB054FD7A1BB07E34FE407E2409
:10090000007E7E1BB044027A1BB07E1801F4120DEB
:10091000386D778018A281B3500A7E3700130B34EC
:100920007A3700137E18000A120D380B74BE74015A
:10093000F448E27E3700134D3368646D337A370034
:10094000137E34FE107E24007E7E1BB054FD7A1B85
:10095000B07E34FE407E24007E7E1BB054FD7A1BA8
:10096000B07E1801F4120D386D778018A281B35053
:100970000A7E3700130B347A3700137E18000A12F0
:100980000D380B74BE7401F448E27E3700134D330A
:10099000680D7E370013BE3400002803120CB7DA4E
:1009A0007922CA796D776D337A370018E47AB3010A
:1009B000237E0801297E340102E4120EC36D778084
:1009C000711206307EB3001760207E37023B0B3574
:1009D000BE37001868627E730016197701297E37CA
:1009E00000180B347A37001880467E34FEEE7E24E1
:1009F000007E7E1B707C476C557E14FEEF7E0400EB
:100A00007E7E0B700A374D32BE3400FA28086D33F3
:100A10007A37001880227E73001619770129BE7478
:100A20000101780C7E37011C2E3400147A37011C2A
:100A30000B74BE7401024889120003DA7922C2AF36
:100A400075EA0075E90175BA8074047E34FE017E92
:100A500024007E7A1BB07E34FDEC7E24007E7E1B5B
:100A6000B0F59FA9D19DA9C09D74807E34FE027E01
:100A700024007E7A1BB07E34FE027E24007E7E1B24
:100A8000B030E0F274407E34FE007E24007E7A1B9B
:100A9000B053DC0F43DCA0000000000074017E3482
:100AA000FE017E24007E7A1BB07E34FE007E240090
:100AB0007E7E1BB044087A1BB074017E34FE0B7E30
:100AC00024007E7A1BB0A9D79DA9C69DD2AF22E48F
:100AD0007E34FEB57E24007E7A1BB0E47E34FEB701
:100AE0007E24007E7A1BB074FF7E34FEF27E2400EA
:100AF0007E7A1BB074FF7E34FEF37E24007E7A1B68
:100B0000B0E47E34FEEE7E24007E7A1BB0E47E34B8
:100B1000FEEF7E24007E7A1BB0E47E34FEF07E245D
:100B2000007E7A1BB0742F7E34FEF17E24007E7A24
:100B30001BB0E47E34FEE47E24007E7A1BB0740198
:100B40007E34FEE07E24007E7A1BB0227D437F70DF
:100B50006D557A57023F6D3380467F072D137E0B0C
:100B6000A06C5580347E07023F5E0400017CBA54BD
:100B7000010A1B6D1068147E17023F1E147A1702BB
:100B80003F6E14A0017A17023F800A7E17023F1EB3
:100B9000147A17023F1EA00B50BE500840C70B34FA
:100BA000BD3440B67E7302407A7300087E73023F04
:100BB0007A73022D227F717F60A9D7C775C5016D39
:100BC00033803EA9C4C77D131A021A002F077CB1D7
:100BD000F5F67D131A021A002F077CB2F5C37D5378
:100BE0001A4A1A482F27F5C475C65A75C6A50000BB
:100BF0000000A924C7FCE5C27F062D137A0BB00BB9
:100C000034692FFFFDBD3248BA75C70075C5007540
:100C1000C60075C3FF75C4FF227D537E3403697E11
:100C2000240000691100020B1A00BE0800007803BE
:100C30009F112269400004BD4550047F1080E49D4F
:100C400045BE4400185012695000020B0A40795109
:100C500000021B1A407F1080149E44000679400059
:100C6000047F102D342E340006795100042E3400F8
:100C700006227E340030CA397E18FBFF7E08012927
:100C8000120BB51BFD7EB3012BBEB00A68287EB3E4
:100C9000012BBEB0FF681F7EB3012B6019740A7A66
:100CA000B3012B7E18FBFFCA1B7E0801297E34008E
:100CB000301208181BFE22C2AFA9D7C775C501752F
:100CC000F60075C3FB75C4FF75C65A75C6A500004E
:100CD0000000A924C7FCE5C275C70075C50075C62C
:100CE0000075C3FF75C4FFBEB00168086D337A3765
:100CF000011C800375C72022CA3BCA397F300BFD17
:100D00006D33793FFFFF801F693FFFFF2D377D2641
:100D10007E1BB0120DF57E180034120D38693FFFAE
:100D2000FF0B34793FFFFF692FFFFD693FFFFFBDD8
:100D30003248D51BFEDA3B227F71E47E34FEEE7E24
:100D400024007E7A1BB0E47E34FEEF7E24007E7A9F
:100D50001BB07E34FEEE7E24007E7E1B707C476CD2
:100D6000557E14FEEF7E04007E7E0B700A374D32F6
:100D70006D22BF1740DC22120A3E75F530120ACFF1
:100D8000120E7D1208E87E34FE407E24007E7E1B1B
:100D9000B054FD7A1BB07E34FE107E24007E7E1B94
:100DA000B044027A1BB07E7301287A73000D120CD6
:100DB000721209A280FB7584017E44041FE47A4903
:100DC000B01B4478F97EF802687E0400FF7E140FA1
:100DD0003B0B0A405D44681A692000020B0E0B446D
:100DE000800A7E0BB07A29B00B240B0C1B4478F2DE
:100DF00080DF020D77CA797CFB6CEEC28180167EA3
:100E0000180034120D387CBF30E004D2818002C259
:100E1000810BE00EF0BEE00848E57E180034120DAC
:100E200038D281DA7922CA797D537F707F172D35C8
:100E30007E1BE07F172D3529F100017F077D3512DC
:100E40000B4CBEE30008780ABEF3022D780474014F
:100E50008001E4DA79227E34FE107E24007E7E1B3F
:100E6000B054FD7A1BB07E34FE407E24007E7E1B93
:100E7000B054FD7A1BB04394025393FD2275940045
:100E80007593FF7E34FE307E24007E7E1BB04402CC
:100E90007A1BB07E34FE107E24007E7E1BB044029E
:100EA0007A1BB022759850438E01438E0475D7F398
:100EB00075D6FF438E1043B20353B1FC43960353E0
:100EC00095FC22CAF87DF37CFB7F207F1080071BF6
:100ED000F47A2BF00B544DFF78F5DAF822120E5607
:100EE0007E08000A7E340009120CF8120F2D227FB2
:100EF00001BE0810004003D38001C3227CAB7AA15D
:100F0000993099FDC2997CBA22120E5674C1120D05
:100F1000F5120F2D22120E5674C2120DF5120F2D5E
:100F200022120E567430120DF5120F2D22120E7D64
:100F30006D337A37022B22283029000009000A3449
:100F40003731001F060601300002001300000001C7
:100F500000150A0001001600000100170000020041
:100F60001800000002001A00000002011C0000002E
:100F700001011F0100020120000000010122000008
:100F800001012300000101240000010128000000EC
:0A0F9000434D445F4641494C0A00FE
:00000001FF
