:100000000211472EF800067E1413527E0400FF12E0
:1000100003F47EB30017BEB00068717E37023B7AEE
:100020003701267E0801297E370126120F0FBEB048
:100030000068537E08001C7E340100E41212376D04
:1000400033793FFFFB8028692FFFFB7E3401292D88
:10005000327E3950691FFFFB7E34001C2D317A3906
:1000600050692FFFFB7E3400012D32793FFFFB7E6C
:10007000270126693FFFFBBD3240CC1212A3E47A70
:10008000B300170203EF1212970203EF7E730129E8
:100090000A377A3701207EB30139BEB07D78237EDE
:1000A000B30131BEB00D68030203EF7EB30132BE6F
:1000B000B04268030203EF121268E47AB3013D0212
:1000C00003EF7EB3013DBEB07D781D7EB30135BE2A
:1000D000B00D78147EB30136BEB042780B121268B0
:1000E000E47AB3013D0203EF7EB30151BEB07D78E7
:1000F0001D7EB30149BEB00D78147EB3014ABEB077
:1001000042780B121268E47AB3013D0203EF6D22CC
:100110007E370120BD3278237EB3012ABEB000783D
:100120001A7EB3012BBEB00078117EB3012CBEB095
:100130000078087E3400657A37011C7E2701207E16
:10014000340001BD2378467E3400027A3701267ED2
:100150000801297E370126120F0FBEB00078061263
:1001600012970203EF7E1F0237121251400612123D
:100170008B0203EF7E1F0237CA1B7E37023B7E08CD
:10018000001C1208381BFE1212A30203EF7E270187
:10019000207E3400FFBD2378427E3400047A37018C
:1001A000267E0801297E370126120F0FBEB0007887
:1001B000061212970203EF6D337A37011C7E73012A
:1001C0002B0A277C456C557E73012C0A374D326D06
:1001D000227A1F02371212A30203EF7E2701207E2C
:1001E0003400FEBD23784F7E3400047A3701267E2A
:1001F0000801297E370126120F0FBEB000780612C3
:1002000012970203EF7EB3012BBEB001780A7E3451
:1002100001007A37023B800A7E73012C0A377A3755
:10022000023B74017AB300177E3401007A37022E44
:100230001212AF0203EF7E2701207E3400FDBD23A2
:10024000782C7E3400027A3701267E0801297E3719
:100250000126120F0FBEB00078061212970203EFAC
:100260001211C374C112101E1212AF0203EF7E27C7
:1002700001207E340002BD2378337E3400027A37B9
:1002800001267E0801297E370126120F0FBEB0001D
:1002900078061212970203EF7E1F023712125140A6
:1002A0000612128B0203EF1212A30203EF7E270144
:1002B000207E340004BD23780674017AB301227EC7
:1002C0002701207E340003BD2368030203D67E3459
:1002D00000027A3701267E0801297E370126120F97
:1002E0000FBEB00078061212970203EF7E270018A7
:1002F0007E3400012D327A3700187E73012A0A37C6
:10030000793FFFFF6D22693FFFFFBD3278087E34E1
:100310000100793FFFFF7E3400807A37022E692F7B
:10032000FFFF7E3400032D32120F70793FFFFD1264
:1003300011C3691FFFFD7E0400017E340002E41238
:100340001237693FFFFFCA39691FFFFB7E040001B6
:100350007E1F0237120CD81BFD691FFFFD7E0400B3
:1003600001693FFFFF120C137EB30008692FFFFFE6
:10037000693FFFFD2D327A71827A6183F07EB3028C
:100380002D693FFFFF692FFFFD2D237E3400012DD6
:10039000327A71827A6183F07430693FFFFF692F8E
:1003A000FFFD2D237E3400022D327A71827A618323
:1003B000F0692FFFFF7E3400032D32691FFFFD7EA1
:1003C0000400011210B71212AF691FFFFD7E040076
:1003D00001120B2C80191211C374C112101E7E273A
:1003E000011C7E3400012D327A37011C1212AF9E9F
:1003F000F80006227F507EC400007ED402697E94FD
:10040000040502044D4001227CEACA89CA5BCA6B1A
:1004100012127ADA6BDA5BDA897E9404057CAE22FA
:10042000540F2490D43440D430F30CBEB041400774
:10043000BEB05B500224204CCC68021BC00B84D39E
:1004400089944CCC680B742012043780F5CA3B6D3C
:10045000889F337CAE7E5BB00B5C7007C37D38DA5F
:100460003B8994B42569C2F37E5BB00B5CA5F8248C
:10047000D0BEB00A501B7E500A20F60DAC5CA52DF4
:100480007CCB70034EF00180DDAC5DA52D7CDB8064
:10049000D524CFBEB01AA5E850055E00DFD2F39098
:1004A00006C3A3E4936011BCB078F77414934CAB0B
:1004B00030F6B34EF08080AEA3E4936010BCB07809
:1004C000F77413937C3B741D937C2B89147CB08050
:1004D00013742012043720F205BEC00250F31B6DC6
:1004E00029B600011204370204421B6E691600028D
:1004F0000B6A00BE08000078087E0400FF7E14121C
:10050000B920F21E4CCC681A7F10E47E1B804C8808
:1005100068070B1C04BCBD78F2C2F6CA0B12062198
:10052000DA0B7E0BB060C0CA0B120437DA0B0B0C6F
:100530004CDD68EE1BD078EA80ADD2F07E101080E2
:10054000037E10085EB05F800AD2F67E100A800536
:100550007E100AC2F66D119F117E00201B6C7E6B0F
:100560007030F6021A3720F1051B6C7E6B6030F696
:10057000041A261A2430F0051B6D0B6A20A5EC33F3
:1005800082F692F6500A7CEA9F229F217F127CAE6F
:100590004C44780F7C457C567C676C772E00F8784D
:1005A000EF80122F117CB3337C3B9CB140047C3B29
:1005B0000B70A5D8EE7CB230E005DAB8C44C3BCA6B
:1005C000380B207E00207E3000BE18000078C1BEAF
:1005D0001008780730F404C2F480B5CA287CB2BC95
:1005E000BD38027CBD120621DA28BC2D500A1BD072
:1005F000E4CA2812042080F07CB213DAB84004C4A4
:10060000CAB8C4CA28BEF08040095CDD7805A5DA06
:100610000260065EF07F120420DA28A5DADA02040E
:1006200042BEF001680F30F402240220F50620F7E4
:100630000330F6010420F229BCBC5025CAB87CBFA7
:1006400013B0E67420501174307C8A5E80F0680824
:100650001206615EA00F8003120437DAB8BCBC78C2
:10066000DB30F40F7430120437745830F3027478AE
:1006700012043730F605742D020437742B20F5F878
:10068000742020F7F3221B6C7E6BB010F1021B6C00
:1006900020F60B30E704F404D2F27CCB800520E78F
:1006A000057CDB0204665EF07F80F81B6E69160035
:1006B000020B6A0030F0076D221B0A200B0D1B0A8B
:1006C000800204512D2B204C4248232E0053584FBA
:1006D00044494355502A4E00042080010200104036
:1006E000EA3C414949D6503A86AB04050505050464
:1006F000050506060BFDE47AB300167E1413407E52
:100700000400FF1203F474BF7E34FEF17E24007EE9
:100710007A1BB0E47E34FEEE7E24007E7A1BB0E4C9
:100720007E34FEEF7E24007E7A1BB080337E34FE62
:10073000EE7E24007E7E1B700A377C676C777E1409
:10074000FEEF7E04007E7E0B500A254D237E34C3CF
:1007500050BD23280B7E3400657A37011C02083512
:10076000A281B340C8742F7E34FEF17E24007E7ACD
:100770001BB0E47E34FEEE7E24007E7A1BB0E47E65
:1007800034FEEF7E24007E7A1BB080317E34FEEE94
:100790007E24007E7E1B700A377C676C777E14FE99
:1007A000EF7E04007E7E0B500A254D237E3400FA36
:1007B000BD2328097EB30123BEB00078782081CC08
:1007C0007E18001A12106C6D33793FFFFF80327E65
:1007D00018003412106C693FFFFFA281E4337C6B78
:1007E0007CB760053E601478FB7E7300164C767A09
:1007F000730016692FFFFF7E3400012D32793FFF11
:10080000FF692FFFFF7E340008BD2348C27E180019
:100810001A12106C74017AB301237E7300167A7376
:1008200002327E7300167A7302687E1413357E04DA
:1008300000FF1203F41BFD22CA39CA0BD3A9D7C784
:100840006D22691FFFF7690FFFF57E3401FF5D31EF
:10085000BD3278437403F5C5693FFFF7692FFFF593
:100860007CB5F5F6693FFFF7692FFFF57CB6F5C358
:10087000695FFFF7694FFFF5F5C4745AF5C674A5B3
:10088000F5C600000000800B7E1413607E0400FF9C
:100890001203F4A924C7F17402F5C5693FFFF76993
:1008A0002FFFF57CB5F5F6693FFFF7692FFFF57C63
:1008B000B6F5C3695FFFF7694FFFF5F5C4693FFF00
:1008C000FF692FFFFD7E1BB0F5C2745AF5C674A5F3
:1008D000F5C600000000800B7E1413607E0400FF4C
:1008E0001203F4A924C7F1691FFFF7690FFFF57E12
:1008F0001800012F10793FFFF7792FFFF5693FFFAF
:10090000FF692FFFFD0B34793FFFFF792FFFFD6952
:100910002FFFFB7E3400019D23792FFFFB6D33BD3C
:1009200023680302089BE4F5C7E4F5C5E4F5C67443
:10093000FFF5C374FFF5C49EF80006220BFD74FD9D
:100940007E14FE107E04007E7E0B705C7B7A0B7042
:1009500074027E14FE407E04007E7E0B704C7B7A17
:100960000B707E1801F412106C6D33793FFFFF801D
:1009700028A281B3500E7E2700137E3400012D3251
:100980007A3700137E18000A12106C692FFFFF7E61
:100990003400012D32793FFFFF692FFFFF7E3401C4
:1009A000F4BD2348CC6D227E370013BD327803029C
:1009B0000A366D337A37001374FD7E14FE107E0400
:1009C000007E7E0B705C7B7A0B7074FD7E14FE40A3
:1009D0007E04007E7E0B705C7B7A0B707E1801F4C7
:1009E00012106C6D33793FFFFF8028A281B3500E47
:1009F0007E2700137E3400012D327A3700137E18D3
:100A0000000A12106C692FFFFF7E3400012D32792D
:100A10003FFFFF692FFFFF7E3401F4BD2348CC6DFB
:100A2000227E370013BD32680D6D227E370013BD64
:100A3000322803120FC91BFD220BFD6D33793FFFD6
:100A4000FF6D337A370018E47AB301237E08012959
:100A50007E340102E41212376D33793FFFFF020B3F
:100A6000177E1413267E0400FF1203F41206F47E90
:100A7000B30017BEB00068367E37023B7E2400020A
:100A80002D237E370018BD327803020B267E5300DB
:100A900016691FFFFF7E3401292D317A39507E27D8
:100AA00000187E3400012D327A370018805B7E34C6
:100AB000FEEE7E24007E7E1B700A377C676C777E9C
:100AC00014FEEF7E04007E7E0B500A254D237E34FB
:100AD00000FABD2328086D337A37001880487E530A
:100AE0000016691FFFFF7E3401292D317A395069C4
:100AF0002FFFFF7E340101BD23780E7E2400147E7B
:100B000037011C2D327A37011C692FFFFF7E34001C
:100B1000012D32793FFFFF692FFFFF7E340102BDB7
:100B2000235803020A611200031BFD227F20BE2806
:100B300000007803020C129E5400067E34036A7E85
:100B400024000069F100020B1AE0BE780000781959
:100B50007E34036A7E240000795100021B1A409FF4
:100B600011793200021B2A2022BF2750157E340340
:100B70006A7E240000795100021B1A407F679F772C
:100B8000801569D700020B7AC0BE6800006808BFF4
:100B90006238047F7680EBBE68000068316922000D
:100BA000047F022D122E140006BF0678216936003C
:100BB000042E3400067F020B162D321B0A306936D4
:100BC00000020B6A20793200021B2A20800779D2AA
:100BD00000021B2AC0BE7800006837692700047F26
:100BE000072D122E140006BF027820693200042E51
:100BF0003400067F070B162D321B0A3069320002C3
:100C00000B2A20793700021B7A2022795700021B19
:100C10007A4022CA39CA0B0BFE6D337A37023F6D18
:100C200033793FFFFF020CB4691FFFFF693FFFFBF1
:100C3000692FFFF92D317E1B70397FFFFEE439BF2C
:100C4000FFFD80586D227E37023F7E1400015D1348
:100C5000296FFFFE7E70015C760A376D31BD326808
:100C60001A7E37023F1E347A37023F7E24A0017E6F
:100C700037023F6D327A37023F800A7E37023F1ECD
:100C8000347A37023F297FFFFE1E70397FFFFE292D
:100C90006FFFFD7E70012C76397FFFFD29AFFFFDD0
:100CA0007408BCAB409E692FFFFF7E3400012D32DB
:100CB000793FFFFF692FFFF7693FFFFFBD32500308
:100CC000020C287E73023F7A7300087E7302407A1A
:100CD00073022D9EF8000A22CA1BCA0B0BFDD3A972
:100CE000D7C77401F5C56D33793FFFFF8075C3A980
:100CF000C4C7691FFFFF1A021A00693FFFF9692F75
:100D0000FFF72F107CB5F5F6691FFFFF1A021A00D6
:100D1000693FFFF9692FFFF72F107CB6F5C3693FD4
:100D2000FFFF1A261A24695FFFF9694FFFF72F2189
:100D3000F5C4745AF5C674A5F5C600000000A924D0
:100D4000C7FCE5C2691FFFFF693FFFFD692FFFFB7D
:100D50002D317A1BB0692FFFFF7E3400012D3279CF
:100D60003FFFFF692FFFF3693FFFFFBD32580302CA
:100D70000CEEE4F5C7E4F5C5E4F5C674FFF5C374FD
:100D8000FFF5C49EF8000A22C3C2AFE4F5EA74017D
:100D9000F5E97480F5BA74047E34FE017E24007E89
:100DA0007A1BB07E34FDEC7E24007E7E1BB0F59F66
:100DB000D3A9D19DC3A9C09D74807E34FE027E2438
:100DC000007E7A1BB07E34FE027E24007E7E1BB045
:100DD00030E0F274407E34FE007E24007E7A1BB048
:100DE00053DC0F43DCA0000000000074017E34FEE1
:100DF000017E24007E7A1BB074087E14FE007E04FF
:100E0000007E7E0B704C7B7A0B7074017E34FE0B7F
:100E10007E24007E7A1BB0D3A9D79DC3A9C69DD3DB
:100E2000D2AF22E47E34FEB57E24007E7A1BB0E48D
:100E30007E34FEB77E24007E7A1BB074FF7E34FEC3
:100E4000F27E24007E7A1BB074FF7E34FEF37E2493
:100E5000007E7A1BB0E47E34FEEE7E24007E7A1B98
:100E6000B0E47E34FEEF7E24007E7A1BB0E47E3454
:100E7000FEF07E24007E7A1BB0742F7E34FEF17E5D
:100E800024007E7A1BB0E47E34FEE47E24007E7A69
:100E90001BB074017E34FEE07E24007E7A1BB022FB
:100EA000120D887430F5F5120E23121186121215E8
:100EB0007E1400007E0400017E3402001211EE1246
:100EC000093C74FD7E14FE407E04007E7E0B705C47
:100ED0007B7A0B7074027E14FE107E04007E7E0B03
:100EE000704C7B7A0B707E7301287A73000D1210A0
:100EF000FF120A397E37011C7A3702677E141312FB
:100F00007E0400FF1203F4A2A0B392A080E322CAE1
:100F100039CA0B0BFD691FFFF9693FFFFD692FFF00
:100F2000FB2D317E1B707AFB70691FFFF9693FFF53
:100F3000FD692FFFFB2D310B347E1B70397FFFFFC6
:100F4000691FFFFD690FFFFB693FFFF9120C137E5C
:100F5000FB607E730008BC767810296FFFFF7E73FC
:100F6000022DBC76780474018001E49EF80008220A
:100F70007D537E34036A7E240000691100020B1A3F
:100F800000BE08000078039F112269400004BD459F
:100F900050047F1080E49D45BE44001850126950F3
:100FA00000020B0A40795100021B1A407F10801486
:100FB0009E440006794000047F102D342E34000634
:100FC000795100042E340006220BFCC3C2AFD3A912
:100FD000D7C77401F5C5E4F5F674FBF5C374FFF5E6
:100FE000C4745AF5C674A5F5C600000000A924C74C
:100FF000FCE5C27AFBB0E4F5C7E4F5C5E4F5C674D8
:10100000FFF5C374FFF5C47EFBB0BEB00168086D88
:10101000337A37011C80047420F5C71BFC22CAB840
:101020000BFCE47AFBB0C3C281802B7E1800341223
:10103000106C29BFFFFF30E005D3D2818003C3C20B
:10104000817EFB607E70012C767AFB70297FFFFF2A
:101050000E70397FFFFF7EFBA07408BCAB48CC7ECE
:1010600018003412106CD3D2811BFD22CA1BE47EFF
:1010700034FEEE7E24007E7A1BB0E47E34FEEF7EEA
:1010800024007E7A1BB07E34FEEE7E24007E7E1B22
:10109000700A077C016C117E34FEEF7E24007E7E98
:1010A0001B700A174D106D00693FFFFF692FFFFD90
:1010B000BF0140D21BFE22CA39CA0B0BFD6D33792A
:1010C0003FFFFF8029691FFFFF693FFFFD692FFF79
:1010D000FB2D317E1BB012101E7E18003412106CD6
:1010E000692FFFFF7E3400012D32793FFFFF692F0A
:1010F000FFF9693FFFFFBD3248CB9EF80008227E12
:10110000340030CA397E18FBFF7E080129120CD842
:101110001BFD7EB3012BBEB00A682B7EB3012BBE34
:10112000B0FF68227EB3012BBEB0006819740A7A42
:10113000B3012B7E18FBFFCA1B7E0801297E3400F9
:10114000301208381BFE227584017E44041FE47AA5
:1011500049B01B4478F97EF802697E0400FF7E14D2
:1011600012BD0B0A405D44681A692000020B0E0B89
:1011700044800A7E0BB07A29B00B240B0C1B4478F8
:10118000F280DF020EA05394FD43930274FD7E149F
:10119000FE187E04007E7E0B705C7B7A0B707402FE
:1011A0007E14FE307E04007E7E0B704C7B7A0B70CA
:1011B00074027E14FE107E04007E7E0B704C7B7ADF
:1011C0000B702274FD7E14FE107E04007E7E0B7078
:1011D0005C7B7A0B7074FD7E14FE407E04007E7E84
:1011E0000B705C7B7A0B704394025393FD227DF36A
:1011F0007F207E34036A7E240000791100021B1ACE
:10120000009F11793200021B2A207D3F9E34000688
:1012100079320004227450F598438E01438E047491
:10122000F3F5D774FFF5D6438E1043B20353B1FCE8
:101230004396035395FC22CAF87DF37CFB7F207F05
:101240001080071BF47A2BF00B544DFF78F5DAF879
:1012500022CA1B693FFFFF692FFFFDBE1800004037
:1012600003D38001C31BFE221211C37E08000A7E35
:101270003400091210B71212AF227AB30269F5993D
:101280003099FDC3C2997EB30269221211C374C1A1
:1012900012101E1212AF221211C374C212101E12AB
:1012A00012AF221211C3743012101E1212AF22128A
:1012B00011866D337A37022B22283029000009006D
:1012C0000A000000000000000000000200130000FF
:1012D000000100150A0001001600000100170000BF
:1012E00002001800000002001A00000002011C00A9
:1012F000000001011F010002012000000001012285
:101300000000010123000001012400000101280068
:101310000000696E76616C69645F636F6D6D616E0C
:10132000643A25640A00524543454956494E4720D0
:10133000464F520A007278627974653A25750A0040
:1013400053455249414C2052454144204348415263
:101350000A004445434F444520494E5055540A0025
:0A136000434D445F4641494C0A002A
:00000001FF
