:10000000020DAFCA790BFE7EB3001760467E370241
:100010003B7A3701267E0801297E370126120E56CB
:10002000602B7E08001C7E340100E4120EAD6D339F
:10003000800A095301291953001C0B34BE370126CD
:1000400040F0120F1EE47AB30017020343120F129E
:100050000203437E7301290A377A3701207EB301F8
:1000600039B47D237EB30131B40D02800302034312
:100070007EB30132B442028003020343120EDAE47B
:100080007AB3013D0203437EB3013DB47D197EB3D3
:100090000135B40D127EB30136B4420B120EDAE410
:1000A0007AB3013D0203437EB30151B47D197EB39F
:1000B0000149B40D127EB3014AB4420B120EDAE4C8
:1000C0007AB3013D0203437E3701204D33781A7E17
:1000D000B3012A70147EB3012B700E7EB3012C7015
:1000E000087E3400657A37011C7E370120BE34005B
:1000F0000178437E3400027A3701267E0801297E8A
:10010000370126120E567006120F120203437E1F8D
:100110000237120EEC4006120F060203437E1F0246
:1001200037CA1B7E37023B7E08001C1208E81BFE04
:10013000120F1E0203437E370120BE3400FF783DBC
:100140007E3400047A3701267E0801297E37012695
:10015000120E567006120F120203436D337A3701E6
:100160001C7E73012B7C476C557E73012C0A374D26
:10017000326D227A1F0237120F1E0203437E3701AF
:1001800020BE3400FE784A7E3400047A3701267E91
:100190000801297E370126120E567006120F120230
:1001A00003437EB3012BB4010A7E3401007A370287
:1001B0003B800A7E73012C0A377A37023B74017A3E
:1001C000B300177E3401007A37022E120F2A020381
:1001D000437E370120BE3400FD78297E3400027A48
:1001E0003701267E0801297E370126120E56700639
:1001F000120F12020343120E8674C1120E25120F43
:100200002A0203437E370120BE34000278307E3458
:1002100000027A3701267E0801297E370126120E58
:10022000567006120F120203437E1F0237120EECA5
:100230004006120F06020343120F1E0203437E37CD
:100240000120BE340004780674017AB301227E379F
:100250000120BE340003680302032E7E3400027ABC
:100260003701267E0801297E370126120E567006B8
:10027000120F120203437E3700180B347A3700182E
:100280007E73012A0A774D7778047E7401007E34EC
:1002900000807A37022E7D372E340003120C0E793F
:1002A0003FFFFF792FFFFD120E86691FFFFF690FC9
:1002B000FFFD7E340004E4120EADCA797E1F0237C2
:1002C000691FFFFD690FFFFB120BAA1BFD691FFFD2
:1002D000FF690FFFFD7D37120B417E330008693F38
:1002E000FFFF692FFFFD2D377A1B307E73022D69CA
:1002F0001FFFFF690FFFFD2D173970000174306972
:100300003FFFFF692FFFFD2D3739B100027D372EEA
:10031000340003691FFFFF690FFFFD120D30120F3C
:100320002A691FFFFF690FFFFD1207478015120E94
:100330008674C1120E257E37011C0B347A37011CDE
:10034000120F2A1BFEDA79227F507EC400007ED471
:1003500002697E9403590203A14001227CEACA8902
:10036000CA5BCA6B120EF9DA6BDA5BDA897E940328
:10037000597CAE22540F2490D43440D430F30CBEB8
:10038000B0414007BEB05B500224204CCC68021B39
:10039000C00B84D389944CCC680B742012038B80DF
:1003A000F5CA3B6D889F337CAE7E5BB00B5C7007FB
:1003B000C37D38DA3B8994B42569C2F37E5BB00B08
:1003C0005CA5F824D0BEB00A501B7E500A20F60D62
:1003D000AC5CA52D7CCB70034EF00180DDAC5DA53F
:1003E0002D7CDB80D524CFBEB01AA5E850055E0079
:1003F000DFD2F3900617A3E4936011BCB078F774D2
:1004000014934CAB30F6B34EF08080AEA3E493600F
:1004100010BCB078F77413937C3B741D937C2B89CC
:10042000147CB08013742012038B20F205BEC0022E
:1004300050F31B6D29B6000112038B0203961B6E4D
:10044000691600020B6A00BE08000078087E0400EE
:10045000FF7E140F3420F21E4CCC681A7F10E47E0D
:100460001B804C8868070B1C04BCBD78F2C2F6CA1E
:100470000B120575DA0B7E0BB060C0CA0B12038B32
:10048000DA0B0B0C4CDD68EE1BD078EA80ADD2F0B5
:100490007E101080037E10085EB05F800AD2F67E68
:1004A000100A80057E100AC2F66D119F117E002091
:1004B0001B6C7E6B7030F6021A3720F1051B6C7EC8
:1004C0006B6030F6041A261A2430F0051B6D0B6A97
:1004D00020A5EC3382F692F6500A7CEA9F229F21F7
:1004E0007F127CAE4C44780F7C457C567C676C77E1
:1004F0002E00F878EF80122F117CB3337C3B9CB137
:1005000040047C3B0B70A5D8EE7CB230E005DAB835
:10051000C44C3BCA380B207E00207E3000BE180041
:100520000078C1BE1008780730F404C2F480B5CA60
:10053000287CB2BCBD38027CBD120575DA28BC2D02
:10054000500A1BD0E4CA2812037480F07CB213DA7C
:10055000B84004C4CAB8C4CA28BEF08040095CDDF3
:100560007805A5DA0260065EF07F120374DA28A52A
:10057000DADA020396BEF001680F30F4022402209A
:10058000F50620F70330F6010420F229BCBC502503
:10059000CAB87CBF13B0E67420501174307C8A5EF8
:1005A00080F068081205B55EA00F800312038BDA95
:1005B000B8BCBC78DB30F40F743012038B74583045
:1005C000F302747812038B30F605742D02038B74DA
:1005D0002B20F5F8742020F7F3221B6C7E6BB010F3
:1005E000F1021B6C20F60B30E704F404D2F27CCB52
:1005F000800520E7057CDB0203BA5EF07F80F81BF4
:100600006E691600020B6A0030F0076D221B0A208B
:100610000B0D1B0A800203A52D2B204C4248232ED4
:100620000053584F44494355502A4E00042080013E
:10063000020010403E90959D9D2AA48EDAFF04048E
:100640000404040404040505CA79E47AB3001674AA
:10065000BF7E34FEF17E24007E7A1BB0E47E34FE41
:10066000EE7E24007E7A1BB0E47E34FEEF7E240012
:100670007E7A1BB0802F7E34FEEE7E24007E7E1BB1
:10068000707C476C557E14FEEF7E04007E7E0B70FE
:100690000A374D32BE34C350280B7E3400657A379A
:1006A000011C020744A281B340CC742F7E34FEF1BA
:1006B0007E24007E7A1BB0E47E34FEEE7E24007E33
:1006C0007A1BB0E47E34FEEF7E24007E7A1BB0807D
:1006D0002A7E34FEEE7E24007E7E1B707C476C55A5
:1006E0007E14FEEF7E04007E7E0B700A374D32BE14
:1006F0003400FA28067EB3012370492081D37E1886
:10070000001A120D706D7780207E180034120D7063
:10071000A281E4337C7B7CBF60053E701478FB4E85
:100720007300167A7300160B74BE74000848DA7EE4
:1007300018001A120D7074017AB301237E7300162B
:100740007A730232DA79227F20BE28000078030211
:10075000082D9E5400067E3403697E24000069F152
:1007600000020B1AE0BE78000078197E3403697E1F
:10077000240000795100021B1A409F1179320002B7
:100780001B2A2022BF2750157E3403697E240000D7
:10079000795100021B1A407F679F77801569D70047
:1007A000020B7AC0BE6800006808BF6238047F761A
:1007B00080EBBE6800006831692200047F022D12C0
:1007C0002E140006BF067821693600042E34000678
:1007D0007F020B162D321B0A30693600020B6A208D
:1007E000793200021B2A20800779D200021B2AC01E
:1007F000BE7800006837692700047F072D122E1489
:100800000006BF027820693200042E3400067F07FC
:100810000B162D321B0A30693200020B2A20793761
:1008200000021B7A2022795700021B7A4022CA79E3
:100830007E34FE107E24007E7E1BB054FD7A1BB0F9
:100840007E34FE407E24007E7E1BB044027A1BB0C4
:100850007E1801F4120D706D778018A281B3500AD2
:100860007E3700130B347A3700137E18000A120DFE
:10087000700B74BE7401F448E27E3700134D336888
:10088000646D337A3700137E34FE107E24007E7E42
:100890001BB054FD7A1BB07E34FE407E24007E7E69
:1008A0001BB054FD7A1BB07E1801F4120D706D77E9
:1008B0008018A281B3500A7E3700130B347A3700B8
:1008C000137E18000A120D700B74BE7401F448E216
:1008D0007E3700134D33680D7E370013BE340000A1
:1008E0002803120CABDA79227DF3A9D7C775F5304E
:1008F000693FFFFD692FFFFB7DE35EE401FF783375
:1009000075C503693FFFFD692FFFFB7CB5F5F669EF
:100910003FFFFD692FFFFB7CB6F5C3695FFFFD69F3
:100920004FFFFBF5C475C65A75C6A500000000A9A7
:1009300024C7FC75C502693FFFFD692FFFFB7CB52D
:10094000F5F6693FFFFD692FFFFB7CB6F5C3695FD4
:10095000FFFD694FFFFBF5C47E0BB0F5C275C65AAB
:1009600075C6A500000000A924C7FC693FFFFD690A
:100970002FFFFB0B1C793FFFFD792FFFFB0B147D35
:10098000EF1BE47DFE78AF75C70075C50075C60026
:1009900075C3FF75C4FF22CA796D776D337A37004E
:1009A00018E47AB301237E0801297E340102E4129F
:1009B0000EAD6D7780711206487EB3001760207E01
:1009C00037023B0B35BE37001868627E730016197C
:1009D0007701297E3700180B347A37001880467E5D
:1009E00034FEEE7E24007E7E1B707C476C557E14A8
:1009F000FEEF7E04007E7E0B700A374D32BE34005F
:100A0000FA28086D337A37001880227E7300161991
:100A1000770129BE740101780C7E37011C2E340049
:100A2000147A37011C0B74BE74010248891200034A
:100A3000DA7922C2AF75EA0075E90175BA807404EB
:100A40007E34FE017E24007E7A1BB07E34FDEC7E77
:100A500024007E7E1BB0F59FA9D19DA9C09D748006
:100A60007E34FE027E24007E7A1BB07E34FE027E3F
:100A700024007E7E1BB030E0F274407E34FE007EA7
:100A800024007E7A1BB053DC0F43DCA00000000082
:100A90000074017E34FE017E24007E7A1BB07E3419
:100AA000FE007E24007E7E1BB044087A1BB07401D9
:100AB0007E34FE0B7E24007E7A1BB0A9D79DA9C68A
:100AC0009DD2AF22E47E34FEB57E24007E7A1BB038
:100AD000E47E34FEB77E24007E7A1BB074FF7E3441
:100AE000FEF27E24007E7A1BB074FF7E34FEF37E1D
:100AF00024007E7A1BB0E47E34FEEE7E24007E7AF3
:100B00001BB0E47E34FEEF7E24007E7A1BB0E47ED0
:100B100034FEF07E24007E7A1BB0742F7E34FEF10A
:100B20007E24007E7A1BB0E47E34FEE47E24007EC8
:100B30007A1BB074017E34FEE07E24007E7A1BB006
:100B4000227D437F706D557A57023F6D3380467F1B
:100B5000072D137E0BA06C5580347E07023F5E0488
:100B600000017CBA54010A1B6D1068147E17023F05
:100B70001E147A17023F6E14A0017A17023F800AF2
:100B80007E17023F1E147A17023F1EA00B50BE5064
:100B90000840C70B34BD3440B67E73023F7A730001
:100BA000087E7302407A73022D227F717F60A9D77D
:100BB000C775F53075C5016D33803B7D131A021A78
:100BC000002F077CB1F5F67D131A021A002F077C5F
:100BD000B2F5C37D531A4A1A482F27F5C475C65A71
:100BE00075C6A500000000A924C7FCE5C27F062D3C
:100BF000137A0BB00B34692FFFFDBD3248BD75C7AA
:100C00000075C50075C60075C3FF75C4FF227D530E
:100C10007E3403697E240000691100020B1A00BEB5
:100C200008000078039F112269400004BD4550046C
:100C30007F1080E49D45BE440018501269500002A8
:100C40000B0A40795100021B1A407F1080149E4409
:100C50000006794000047F102D342E3400067951AF
:100C600000042E34000622120A33120EC743B203C8
:100C700053B1FC4396035395FC120AC47E34FEEE36
:100C80007E24007E7E1B707C476C557E14FEEF7EBA
:100C900004007E7E0B700A374D327A3702677E146D
:100CA0000F8D7E0400FF12034880D1C2AFA9D7C7C1
:100CB00075F53075C50175F60075C30075C400750E
:100CC000C65A75C6A500000000A924C7FCE5C27578
:100CD000C70075C50075C60075C3FF75C4FFBEB0FB
:100CE0000168086D337A37011C800375C720227EA6
:100CF000340030CA399F117E080129120BAA1BFD4E
:100D00007EB3012BBEB00A68267EB3012BBEB0FFB6
:100D1000681D7EB3012B6017740A7AB3012B9F11F3
:100D2000CA1B7E0801297E3400301208E81BFE220F
:100D3000CA3BCA397F300BFD6D33793FFFFF801FFF
:100D4000693FFFFF2D377D267E1BB0120E257E18D2
:100D50000034120D70693FFFFF0B34793FFFFF69CC
:100D60002FFFFD693FFFFFBD3248D51BFEDA3B2256
:100D70007F71E47E34FEEE7E24007E7A1BB0E47E3A
:100D800034FEEF7E24007E7A1BB07E34FEEE7E249D
:100D9000007E7E1B707C476C557E14FEEF7E040047
:100DA0007E7E0B700A374D326D22BF1740DC2275F4
:100DB00084017E44041FE47A49B01B4478F97EF82C
:100DC00002687E0400FF7E140F380B0A405D446801
:100DD0001A692000020B0E0B44800A7E0BB07A29A0
:100DE000B00B240B0C1B4478F280DF020C67539489
:100DF000FD4393027E34FE187E24007E7E1BB05499
:100E0000FD7A1BB07E34FE307E24007E7E1BB04413
:100E1000027A1BB07E34FE107E24007E7E1BB0441E
:100E2000027A1BB022CA797CFB6CEEC28180167EEE
:100E3000180034120D707CBF30E004D2818002C2F1
:100E4000810BE00EF0BEE00848E57E180034120D7C
:100E500070D281DA7922CA797D537F707F172D3560
:100E60007E1BE07F172D3529F100017F077D3512AC
:100E70000B41BEE30008780ABEF3022D780474012A
:100E80008001E4DA79224394025393FD7E34FE100C
:100E90007E24007E7E1BB054FD7A1BB07E34FE4063
:100EA0007E24007E7E1BB054FD7A1BB022CAF87DE2
:100EB000F37CFB7F207F1080071BF47A2BF00B5410
:100EC0004DFF78F5DAF822759850438E01438E0471
:100ED00075D7F375D6FF438E1022120E867E08005A
:100EE0000A7E340009120D30120F2A227F01BE083B
:100EF00000004003D38001C3227CAB7AA1993099D2
:100F0000FDC2997CBA22120E8674C1120E25120FF0
:100F10002A22120E8674C2120E25120F2A22120ED7
:100F2000867430120E25120F2A22120DEE6D337ABE
:100F300037022B22283029000009000A0000000097
:100F40000000000000000200130000000100150A6C
:100F50000001001600000100170000020018000048
:100F60000002001A00000002011C00000001011F25
:100F70000100020120000000010122000001012304
:100F80000000010124000001012800000025750A6D
:010F90000060
:00000001FF
