:10000000020DB0CA3B7EB3000D60607E3700217ADE
:100010003700167E1401007E0400017E37001612A0
:100020000C9D60417E1400007E0400017E340100BE
:10003000E4120D806D33801C7D232E2401007A5143
:10004000827A4183E07D232E2400007A51827A4116
:1000500083F00B34BE37001640DE120DEBE47AB3AA
:10006000000D020364120DDF020364900100E00A38
:100070003B7A370012900110E0B47D23900108E034
:10008000B40D028003020364900109E0B4420280CF
:1000900003020364120D9AE4900114F002036490C9
:1000A0000114E0B47D1990010CE0B40D1290010D23
:1000B000E0B4420B120D9AE4900114F00203649034
:1000C0000128E0B47D19900120E0B40D12900121C7
:1000D000E0B4420B120D9AE4900114F00203647E26
:1000E0003700124D33781A900101E070149001022C
:1000F000E0700E900103E070087E3400657A3700EE
:10010000107E370012BE34000178557E3400027A2A
:100110003700167E1401007E0400017E370016129F
:100120000C9D7006120DDF0203647E1F001D120D70
:10013000C64006120DD30203647E1F001DCA1B7E3B
:100140003700216D227E1400007E04000112061784
:100150001BFE4006120DD3020364120DEB02036472
:100160007E370012BE3400FF78417E3400047A37B7
:1001700000167E1401007E0400017E370016120C6A
:100180009D7006120DDF0203646D337A3700109004
:100190000102E07C4B6C55900103E00A3B4D326D4F
:1001A000227A1F001D120DEB0203647E370012BE7F
:1001B0003400FE784E7E3400047A3700167E140137
:1001C000007E0400017E370016120C9D7006120D91
:1001D000DF020364900102E0B4010A7E3401007A78
:1001E000370021800A900103E00A3B7A370021742E
:1001F000017AB3000D7E3401007A37001B120D2CFA
:100200000203647E370012BE3400FD782D7E340078
:10021000027A3700167E1401007E0400017E37004A
:1002200016120C9D7006120DDF020364120CCD74C1
:10023000C1120C6C120D2C0203647E370012BE3406
:10024000000278347E3400027A3700167E140100F2
:100250007E0400017E370016120C9D7006120DDF21
:100260000203647E1F001D120DC64006120DD3024C
:100270000364120DEB0203647E370012BE340004E7
:10028000780674017AB300147E370012BE3400037E
:10029000680302034F7E3400027A3700167E140191
:1002A000007E0400017E370016120C9D7006120DB0
:1002B000DF0203647E37000E0B347A37000E9001A4
:1002C00001E00A6B4D6678047E6401007E34008094
:1002D0007A37001B120CCD7D362E340003120B47EB
:1002E0007D737D177E0400017E340002E4120D80D0
:1002F000CA697D177E0400017E1F001D120AE31BE0
:10030000FD7D177E0400017D36120A7A7EB3000857
:100310007D372D367A71827A6183F07EB3001A7D43
:10032000372D360B347A71827A6183F074307D37E1
:100330002D360B357A71827A6183F07D362E34004A
:10034000037D177E040001120BED120D2C80151297
:100350000CCD74C1120C6C7E3700100B347A370050
:1003600010120D2CDA3B227E1402027E0400017E64
:10037000340400120D59C2AF75EA0075E90175BA6F
:100380008074047E34FE017E24007E7A1BB07E34AD
:10039000FDEC7E24007E7E1BB0F59FA9D19DA9C0F7
:1003A0009D74807E34FE027E24007E7A1BB07E34F3
:1003B000FE027E24007E7E1BB030E0F274407E346C
:1003C000FE007E24007E7A1BB053DC0F43DCA000CD
:1003D0000000000074017E34FE017E24007E7A1B42
:1003E000B07E34FE007E24007E7E1BB044087A1B63
:1003F000B074017E34FE0B7E24007E7A1BB0A9D738
:100400009DA9C69DD2AFE47E34FEB57E24007E7ADF
:100410001BB0E47E34FEB77E24007E7A1BB074FFEE
:100420007E34FEF27E24007E7A1BB074FF7E34FEA2
:10043000F37E24007E7A1BB0E47E34FEEE7E240040
:100440007E7A1BB0E47E34FEEF7E24007E7A1BB001
:10045000E47E34FEF07E24007E7A1BB0742F7E345E
:10046000FEF17E24007E7A1BB0E47E34FEE47E241E
:10047000007E7A1BB074017E34FEE07E24007E7A1A
:100480001BB07594007593017E34FE307E24007E8F
:100490007E1BB044017A1BB0E47E34FE187E24003B
:1004A0007E7A1BB07E34FE107E24007E7E1BB0441C
:1004B000017A1BB075F5301204F57E34FE107E24EF
:1004C000007E7E1BB054FE7A1BB07E34FE407E243C
:1004D000007E7E1BB054FE7A1BB0759400759301AC
:1004E000120BA01209117E370010BE34006428F3ED
:1004F0001209D380EECA797E34FE107E24007E7EFF
:100500001BB054FE7A1BB07E34FE407E24007E7EFB
:100510001BB044017A1BB07594007593017E1801DD
:10052000F4120C2D6D778018A280B3500A7E37002C
:100530000A0B347A37000A7E18000A120C2D0B744D
:10054000BE7401F448E27E37000ABE3401C22803BB
:100550001209D37E34FE107E24007E7E1BB044013F
:100560007A1BB07E34FE407E24007E7E1BB054FE9B
:100570007A1BB07594007593017E1801F4120C2D4E
:100580006D778018A280B3500A7E37000A0B347A48
:1005900037000A7E18000A120C2D0B74BE7401F489
:1005A00048E27E37000A4D33686A6D337A37000AB5
:1005B0007E34FE107E24007E7E1BB054FE7A1BB07B
:1005C0007E34FE407E24007E7E1BB054FE7A1BB03B
:1005D0007594007593017E1801F4120C2D6D7780CF
:1005E00018A280B3500A7E37000A0B347A37000A0B
:1005F0007E18000A120C2D0B74BE7401F448E27EC2
:1006000037000A4D33680D7E37000ABE34000028DB
:10061000031209D3DA7922CA3B7F31CA0B0BFE6978
:100620003FFFFB692FFFF9A9D7C7691FFFF1690FCA
:10063000FFEF5E1401FF7836A9C4C775C503691FB3
:10064000FFF1690FFFEF7CB1F5F6691FFFF1690F4C
:10065000FFEF7CB2F5C3695FFFF1694FFFEFF5C4AF
:1006600075C65A75C6A500000000A924C7FC75C54B
:10067000029F008042A9C4C7695FFFF1694FFFEF85
:100680002F207CB9F5F6695FFFF1694FFFEF2F204E
:100690007CBAF5C3695FFFF1694FFFEF2F20F5C406
:1006A0007E1BB0F5C275C65A75C6A500000000A92C
:1006B00024C7FC0B340B0CBF0340BA75C70075C5CB
:1006C0000075C60075C3FF75C4FF7D37120B4779EF
:1006D0003FFFFF792FFFFD7D37CA39693FFFEF6983
:1006E0002FFFED691FFFFD690FFFFB120AE31BFDE2
:1006F0007D37CA39693FFFFD692FFFFB691FFFF98D
:10070000690FFFF7120CFD1BFD700E691FFFFF69DB
:100710000FFFFD12082AD3800C691FFFFF690FFF2E
:10072000FD12082AC392D59EF80008A2D5DA3B2212
:10073000CA79E47AB3000CE47E34FEEE7E24007EB7
:100740007A1BB0E47E34FEEF7E24007E7A1BB080FC
:10075000307E34FEEE7E24007E7E1B707C476C551E
:100760007E14FEEF7E04007E7E0B700A374D32BE93
:10077000344E20280C7E3400657A370010C30208FE
:1007800027A280B340CBE47E34FEEE7E24007E7A46
:100790001BB0E47E34FEEF7E24007E7A1BB0802DF9
:1007A0007E34FEEE7E24007E7E1B707C476C557E80
:1007B00014FEEF7E04007E7E0B700A374D32BE348D
:1007C000010428097EB300156003C3805A2080D03D
:1007D0007E18001A120C2D308003C3804A6D77807A
:1007E000227E180034120C2D7C6FA280E4337C7BB7
:1007F0007CB660053E701478FB4E73000C7A730073
:100800000C0B74BE74000848D87E180034120C2DEE
:10081000A280B35003C3800F74017AB300157E73B6
:10082000000C7A730009D3DA79227F20BE280000F9
:1008300078030209109E5400067E3401257E2400B0
:100840000069F100020B1AE0BE78000078197E34CE
:1008500001257E240000795100021B1A409F117966
:100860003200021B2A2022BF2750157E3401257E2C
:10087000240000795100021B1A407F679F77801582
:1008800069D700020B7AC0BE6800006808BF6238F2
:10089000047F7680EBBE6800006831692200047F27
:1008A000022D122E140006BF067821693600042E90
:1008B0003400067F020B162D321B0A306936000207
:1008C0000B6A20793200021B2A20800779D20002AD
:1008D0001B2AC0BE7800006837692700047F072DF7
:1008E000122E140006BF027820693200042E340054
:1008F000067F070B162D321B0A30693200020B2AC5
:1009000020793700021B7A2022795700021B7A4097
:1009100022CA3B6D337A37000EE47AB300157E1499
:1009200001007E0400017E340102E4120D80120DEC
:100930002C9F330209BE12073040030209C77EB361
:10094000000D60297E3700210B35BE37000E687719
:100950007EB3000C7D372E3401007A71827A618378
:10096000F07E37000E0B347A37000E804F7E34FE57
:10097000EE7E24007E7E1B707C476C557E14FEEF5D
:100980007E04007E7E0B700A374D32BE3400FA289A
:10099000086D337A37000E802E7EB3000C7D372E23
:1009A0003401007A71827A6183F0BE380101780CDB
:1009B0007E3700102E3400147A3700100B3CBE38FE
:1009C000010250030209367EB300156003120003D2
:1009D000DA3B227E7810006DBB7EA420007E68008A
:1009E00040740A2F661478FB2F657E080100C2AFA1
:1009F000A9D7C775C50175F60075C3F875C400752C
:100A0000C65A75C6A500000000A924C7FCE5C2753A
:100A1000C70075C50075C60075C3FF75C4FFBEB0BD
:100A20000168086D337A370010804E693700020B79
:100A30007A20BF15400B693700020B7A20BF1628B9
:100A4000086D337A37001080306937000669270057
:100A500004BE1810004017740A2F001478FB2E08EB
:100A600010006937000669270004BF1028086D339D
:100A70007A370010800375C720227D437F706D5543
:100A80007A5700236D3380467F072D137E0BA06CB1
:100A90005580347E0700235E0400017CBA54010AAD
:100AA0001B6D1068147E1700231E147A1700236E26
:100AB00014A0017A170023800A7E1700231E147ADF
:100AC0001700231EA00B50BE500840C70B34BD3486
:100AD00040B67E7300247A7300087E7300237A7315
:100AE000001A227F717F60A9D7C775C5016D338059
:100AF0003EA9C4C77D131A021A002F077CB1F5F670
:100B00007D131A021A002F077CB2F5C37D531A4ACF
:100B10001A482F27F5C475C65A75C6A500000000EF
:100B2000A924C7FCE5C27F062D137A0BB00B3469EC
:100B30002FFFFDBD3248BA75C70075C50075C600E8
:100B400075C3FF75C4FF227D537E3401257E2400CA
:100B500000691100020B1A00BE08000078039F1103
:100B60002269400004BD4550047F1080E49D45BECD
:100B70004400185012695000020B0A4079510002DB
:100B80001B1A407F1080149E440006794000047FA9
:100B9000102D342E340006795100042E3400062224
:100BA0007E340030CA397E18F8007E1401007E04BD
:100BB0000001120AE31BFD900102E0BEB00C682C9C
:100BC000900102E0BEB0FF6823900102E0601D7456
:100BD0000C900102F07E18F800CA1B7E1800307ECF
:100BE0001401007E0400011206171BFE22CA3BCA34
:100BF000397F300BFD6D33793FFFFF801F693FFF69
:100C0000FF2D377D267E1BB0120C6C7E180034122F
:100C10000C2D693FFFFF0B34793FFFFF692FFFFD6C
:100C2000693FFFFFBD3248D51BFEDA3B227F71E4EE
:100C30007E34FEEE7E24007E7A1BB0E47E34FEEF2E
:100C40007E24007E7A1BB07E34FEEE7E24007E7E03
:100C50001B707C476C557E14FEEF7E04007E7E0B7D
:100C6000700A374D326D22BF1740DC22CA797CFBF7
:100C7000C2807E180034120C2D6CEE80167CBF30C2
:100C8000E004D2808002C2800BE01EF07E180034A7
:100C9000120C2DBEE00840E5D280DA7922CA797DB7
:100CA000537F707F172D357E1BE07F172D3529F17F
:100CB00000017F077D35120A7ABEE30008780ABE7C
:100CC000F3001A780474018001E4DA7922D2807E7C
:100CD00034FE107E24007E7E1BB054FE7A1BB07E54
:100CE00034FE407E24007E7E1BB054FE7A1BB0434F
:100CF00094015393FE7E180034120C2D227F217F25
:100D000070693FFFFD4D337802E4221B34793FFFC9
:100D1000FD7E2B607E7B70BC76680ABC76280374EF
:100D2000012274FF220BF40B5480D6227E34FE1075
:100D30007E24007E7E1BB044017A1BB07E34FE40D0
:100D40007E24007E7E1BB054FE7A1BB07594007525
:100D500093016D337A370018227DF37F207E3401B2
:100D6000257E240000791100021B1A009F117932A0
:100D700000021B2A207D3F9E3400067932000422A7
:100D8000CAF87DF37CFB7F207F1080071BF47A2B51
:100D9000F00B544DFF78F5DAF822120CCD7E140DCD
:100DA000FF7E0400FF7E340009120BED120D2C2291
:100DB0007584017E44041FE47A49B01B4478F97EAF
:100DC000F800240203677F01BE0810004003D380AF
:100DD00001C322120CCD74C1120C6C120D2C221204
:100DE0000CCD74C2120C6C120D2C22120CCD74306E
:100DF000120C6C120D2C225925E3DA4EB863D9344B
:080E0000373100350606013010
:00000001FF
