:10000000020D41CA790BFE7EB3001760467E3702AF
:100010003B7A3701267E0801297E370126120DE83A
:10002000602B7E08001C7E340100E4120E3F6D330D
:10003000800A095301291953001C0B34BE370126CD
:1000400040F0120EC9E47AB30017020343120EBD4A
:100050000203437E7301290A377A3701207EB301F8
:1000600039B47D237EB30131B40D02800302034312
:100070007EB30132B442028003020343120E85E4D0
:100080007AB3013D0203437EB3013DB47D197EB3D3
:100090000135B40D127EB30136B4420B120E85E465
:1000A0007AB3013D0203437EB30151B47D197EB39F
:1000B0000149B40D127EB3014AB4420B120E85E41D
:1000C0007AB3013D0203437E3701204D33781A7E17
:1000D000B3012A70147EB3012B700E7EB3012C7015
:1000E000087E3400657A37011C7E370120BE34005B
:1000F0000178437E3400027A3701267E0801297E8A
:10010000370126120DE87006120EBD0203437E1F52
:100110000237120E974006120EB10203437E1F02F1
:1001200037CA1B7E37023B7E08001C1208B71BFE35
:10013000120EC90203437E370120BE3400FF783D12
:100140007E3400047A3701267E0801297E37012695
:10015000120DE87006120EBD0203436D337A3701AB
:100160001C7E73012B7C476C557E73012C0A374D26
:10017000326D227A1F0237120EC90203437E370105
:1001800020BE3400FE784A7E3400047A3701267E91
:100190000801297E370126120DE87006120EBD02F5
:1001A00003437EB3012BB4010A7E3401007A370287
:1001B0003B800A7E73012C0A377A37023B74017A3E
:1001C000B300177E3401007A37022E120ED50203D7
:1001D000437E370120BE3400FD78297E3400027A48
:1001E0003701267E0801297E370126120DE87006A8
:1001F000120EBD020343120E1874C1120DB7120E77
:10020000D50203437E370120BE34000278307E34AD
:1002100000027A3701267E0801297E370126120D59
:10022000E87006120EBD0203437E1F0237120E97BE
:100230004006120EB1020343120EC90203437E3779
:100240000120BE340004780674017AB301227E379F
:100250000120BE340003680302032E7E3400027ABC
:100260003701267E0801297E370126120DE8700627
:10027000120EBD0203437E3700180B347A37001884
:100280007E73012A0A774D7778047E7401007E34EC
:1002900000807A37022E7D372E340003120BE4796A
:1002A0003FFFFF792FFFFD120E18691FFFFF690F37
:1002B000FFFD7E340004E4120E3FCA797E1F023730
:1002C000691FFFFD690FFFFB120B801BFD691FFFFC
:1002D000FF690FFFFD7D37120B177E330008693F62
:1002E000FFFF692FFFFD2D377A1B307E73022D69CA
:1002F0001FFFFF690FFFFD2D173970000174306972
:100300003FFFFF692FFFFD2D3739B100027D372EEA
:10031000340003691FFFFF690FFFFD120CC2120EAC
:10032000D5691FFFFF690FFFFD1206488015120EE9
:100330001874C1120DB77E37011C0B347A37011CBB
:10034000120ED51BFEDA79227F507EC400007ED4C7
:1003500002697E9403590203A14001227CEACA8902
:10036000CA5BCA6B120EA4DA6BDA5BDA897E94037D
:10037000597CAE22540F2490D43440D430F30CBEB8
:10038000B0414007BEB05B500224204CCC68021B39
:10039000C00B84D389944CCC680B742012038B80DF
:1003A000F5CA3B6D889F337CAE7E5BB00B5C7007FB
:1003B000C37D38DA3B8994B42569C2F37E5BB00B08
:1003C0005CA5F824D0BEB00A501B7E500A20F60D62
:1003D000AC5CA52D7CCB70034EF00180DDAC5DA53F
:1003E0002D7CDB80D524CFBEB01AA5E850055E0079
:1003F000DFD2F3900617A3E4936011BCB078F774D2
:1004000014934CAB30F6B34EF08080AEA3E493600F
:1004100010BCB078F77413937C3B741D937C2B89CC
:10042000147CB08013742012038B20F205BEC0022E
:1004300050F31B6D29B6000112038B0203961B6E4D
:10044000691600020B6A00BE08000078087E0400EE
:10045000FF7E140EDF20F21E4CCC681A7F10E47E63
:100460001B804C8868070B1C04BCBD78F2C2F6CA1E
:100470000B120575DA0B7E0BB060C0CA0B12038B32
:10048000DA0B0B0C4CDD68EE1BD078EA80ADD2F0B5
:100490007E101080037E10085EB05F800AD2F67E68
:1004A000100A80057E100AC2F66D119F117E002091
:1004B0001B6C7E6B7030F6021A3720F1051B6C7EC8
:1004C0006B6030F6041A261A2430F0051B6D0B6A97
:1004D00020A5EC3382F692F6500A7CEA9F229F21F7
:1004E0007F127CAE4C44780F7C457C567C676C77E1
:1004F0002E00F878EF80122F117CB3337C3B9CB137
:1005000040047C3B0B70A5D8EE7CB230E005DAB835
:10051000C44C3BCA380B207E00207E3000BE180041
:100520000078C1BE1008780730F404C2F480B5CA60
:10053000287CB2BCBD38027CBD120575DA28BC2D02
:10054000500A1BD0E4CA2812037480F07CB213DA7C
:10055000B84004C4CAB8C4CA28BEF08040095CDDF3
:100560007805A5DA0260065EF07F120374DA28A52A
:10057000DADA020396BEF001680F30F4022402209A
:10058000F50620F70330F6010420F229BCBC502503
:10059000CAB87CBF13B0E67420501174307C8A5EF8
:1005A00080F068081205B55EA00F800312038BDA95
:1005B000B8BCBC78DB30F40F743012038B74583045
:1005C000F302747812038B30F605742D02038B74DA
:1005D0002B20F5F8742020F7F3221B6C7E6BB010F3
:1005E000F1021B6C20F60B30E704F404D2F27CCB52
:1005F000800520E7057CDB0203BA5EF07F80F81BF4
:100600006E691600020B6A0030F0076D221B0A208B
:100610000B0D1B0A800203A52D2B204C4248232ED4
:100620000053584F44494355502A4E00042080013E
:10063000020010403E90959D9D2AA48EDAFF04048E
:1006400004040404040405057F20BE280000780388
:1006500002072E9E5400067E3403697E2400006942
:10066000F100020B1AE0BE78000078197E340369AD
:100670007E240000795100021B1A409F117932003C
:10068000021B2A2022BF2750157E3403697E2400D6
:1006900000795100021B1A407F679F77801569D748
:1006A00000020B7AC0BE6800006808BF6238047F91
:1006B0007680EBBE6800006831692200047F022D5D
:1006C000122E140006BF067821693600042E34006D
:1006D000067F020B162D321B0A30693600020B6AA8
:1006E00020793200021B2A20800779D200021B2ABF
:1006F000C0BE7800006837692700047F072D122EDE
:10070000140006BF027820693200042E3400067FF0
:10071000070B162D321B0A30693200020B2A207992
:100720003700021B7A2022795700021B7A4022CA26
:1007300079E47AB3001674037E34FEF17E24007EE1
:100740007A1BB0802F7E34FEEE7E24007E7E1B70EE
:100750007C476C557E14FEEF7E04007E7E0B700A93
:10076000374D32BE34C350280B7E3400657A3701D2
:100770001C0207FAA281B340CCE47E34FEF17E2451
:10078000007E7A1BB0802A7E34FEEE7E24007E7EC0
:100790001B707C476C557E14FEEF7E04007E7E0B42
:1007A000700A374D32BE3400FA28067EB30123703A
:1007B000492081D37E18001A120D026D7780207EA9
:1007C000180034120D02A281E4337C7B7CBF6005EB
:1007D0003E701478FB4E7300167A7300160B74BECD
:1007E00074000848DA7E18001A120D0274017AB3F8
:1007F00001237E7300167A730232DA7922CA797E77
:1008000034FE107E24007E7E1BB054FD7A1BB07E29
:1008100034FE407E24007E7E1BB044027A1BB07EF4
:100820001801F4120D026D778018A281B3500A7E70
:100830003700130B347A3700137E18000A120D02AA
:100840000B74BE7401F448E27E3700134D336864C4
:100850006D337A3700137E34FE107E24007E7E1BBB
:10086000B054FD7A1BB07E34FE407E24007E7E1B99
:10087000B054FD7A1BB07E1801F4120D026D778022
:1008800018A281B3500A7E3700130B347A37001355
:100890007E18000A120D020B74BE7401F448E27E49
:1008A0003700134D33680D7E370013BE3400002827
:1008B00003120C3DDA79227DF3A9D7C775F53069AB
:1008C0003FFFFD692FFFFB7DE35EE401FF78337599
:1008D000C503693FFFFD692FFFFB7CB5F5F6693F56
:1008E000FFFD692FFFFB7CB6F5C3695FFFFD694F14
:1008F000FFFBF5C475C65A75C6A500000000A92403
:10090000C7FC75C502693FFFFD692FFFFB7CB5F58C
:10091000F6693FFFFD692FFFFB7CB6F5C3695FFFFA
:10092000FD694FFFFBF5C47E0BB0F5C275C65A7565
:10093000C6A500000000A924C7FC693FFFFD692F80
:10094000FFFB0B1C793FFFFD792FFFFB0B147DEFA5
:100950001BE47DFE78AF75C70075C50075C60075D0
:10096000C3FF75C4FF22CA796D776D337A370018DB
:10097000E47AB301237E0801297E340102E4120ED9
:100980003F6D77807112072F7EB3001760207E378E
:10099000023B0B35BE37001868627E73001619776C
:1009A00001297E3700180B347A37001880467E34D0
:1009B000FEEE7E24007E7E1B707C476C557E14FE0E
:1009C000EF7E04007E7E0B700A374D32BE3400FA93
:1009D00028086D337A37001880227E730016197745
:1009E0000129BE740101780C7E37011C2E340014DD
:1009F0007A37011C0B74BE7401024889120003DAB5
:100A00007922C2AF75EA0075E90175BA8074047E77
:100A100034FE017E24007E7A1BB07E34FDEC7E2401
:100A2000007E7E1BB0F59F7E34FDF77E24007E7E27
:100A30001BB0F5A674407E34FE007E24007E7A1B37
:100A4000B053DC0F43DCA0000000000000000000F9
:100A5000000000000000000000000074017E34FE71
:100A6000017E24007E7A1BB07E34FE007E24007E50
:100A70007E1BB044087A1BB074017E34FE0B7E24CA
:100A8000007E7A1BB0A9D79DA9C69DD2AF22743033
:100A90007E34FE927E24007E7A1BB0E47E34FEB566
:100AA0007E24007E7A1BB0E47E34FEB77E24007E76
:100AB0007A1BB074FF7E34FEF27E24007E7A1BB077
:100AC00074FF7E34FEF37E24007E7A1BB0E47E3415
:100AD000FEEE7E24007E7A1BB0E47E34FEEF7E24A0
:100AE000007E7A1BB0E47E34FEF07E24007E7A1B0A
:100AF000B0E47E34FEF17E24007E7A1BB0E47E34C6
:100B0000FEE47E24007E7A1BB074017E34FEE07E1B
:100B100024007E7A1BB0227D437F706D557A570288
:100B20003F6D3380467F072D137E0BA06C558034BC
:100B30007E07023F5E0400017CBA54010A1B6D105F
:100B400068147E17023F1E147A17023F6E14A0012C
:100B50007A17023F800A7E17023F1E147A17023F5F
:100B60001EA00B50BE500840C70B34BD3440B67EAB
:100B700073023F7A7300087E7302407A73022D225B
:100B80007F717F60A9D7C775F53075C5016D33805A
:100B90003B7D131A021A002F077CB1F5F67D131A5C
:100BA000021A002F077CB2F5C37D531A4A1A482F48
:100BB00027F5C475C65A75C6A500000000A924C74C
:100BC000FCE5C27F062D137A0BB00B34692FFFFDB5
:100BD000BD3248BD75C70075C50075C60075C3FF39
:100BE00075C4FF227D537E3403697E2400006911A1
:100BF00000020B1A00BE08000078039F1122694012
:100C00000004BD4550047F1080E49D45BE4400189B
:100C10005012695000020B0A40795100021B1A4021
:100C20007F1080149E440006794000047F102D340C
:100C30002E340006795100042E34000622C2AFA9DA
:100C4000D7C775F53075C50175F60075C30075C455
:100C50000075C65A75C6A500000000A924C7FCE5AA
:100C6000C275C70075C50075C60075C3FF75C4FFA2
:100C7000BEB00168086D337A37011C800375C72048
:100C8000227E340030CA399F117E080129120B8060
:100C90001BFD7EB3012BBEB00A68267EB3012BBEBE
:100CA000B0FF681D7EB3012B6017740A7AB3012B65
:100CB0009F11CA1B7E0801297E3400301208B71B21
:100CC000FE22CA3BCA397F300BFD6D33793FFFFFEF
:100CD000801F693FFFFF2D377D267E1BB0120DB7A9
:100CE0007E180034120D02693FFFFF0B34793FFF7D
:100CF000FF692FFFFD693FFFFFBD3248D51BFEDABC
:100D00003B227F71E47E34FEEE7E24007E7A1BB0AF
:100D1000E47E34FEEF7E24007E7A1BB07E34FEEE4D
:100D20007E24007E7E1B707C476C557E14FEEF7E19
:100D300004007E7E0B700A374D326D22BF1740DCF7
:100D4000227584017E44041FE47A49B01B4478F97B
:100D50007EF802687E0400FF7E140EE30B0A405DFD
:100D600044681A692000020B0E0B44800A7E0BB007
:100D70007A29B00B240B0C1B4478F280DF020E5949
:100D80005394FD4393027E34FE187E24007E7E1B26
:100D9000B054FD7A1BB07E34FE307E24007E7E1B74
:100DA000B044027A1BB07E34FE107E24007E7E1B8F
:100DB000B044027A1BB022CA797CFB6CEEC28180FF
:100DC000167E180034120D027CBF30E004D2818000
:100DD00002C2810BE00EF0BEE00848E57E18003448
:100DE000120D02D281DA7922CA797D537F707F1782
:100DF0002D357E1BE07F172D3529F100017F077D02
:100E000035120B17BEE30008780ABEF3022D7804F2
:100E100074018001E4DA79224394025393FD7E3415
:100E2000FE107E24007E7E1BB054FD7A1BB07E3403
:100E3000FE407E24007E7E1BB054FD7A1BB022CA89
:100E4000F87DF37CFB7F207F1080071BF47A2BF06A
:100E50000B544DFF78F5DAF822120A02120E724393
:100E6000B20353B1FC7E140F387E0400FF12034816
:100E700080F3759850438E01438E0475D7F375D671
:100E8000FF438E1022120E187E08000A7E340009DD
:100E9000120CC2120ED5227F01BE0800004003D3FF
:100EA0008001C3227CAB7AA1993099FDC2997CBAAA
:100EB00022120E1874C1120DB7120ED522120E187E
:100EC00074C2120DB7120ED522120E187430120D04
:100ED000B7120ED522120D806D337A37022B2228DD
:100EE0003029000009000A00000000000000000096
:100EF000000200130000000100150A0001001600A6
:100F000000010017000002001800000002001A0093
:100F1000000002011C00000001011F01000201206D
:100F20000000000101220000010123000001012452
:100F3000000001012800000053797374656D436C53
:0C0F40006F636B5F436F6E6669670A00A9
:00000001FF
