:10000000020C3BCA3B7EB3000D60607E3700217A54
:100010003700167E1401007E0400017E37001612A0
:100020000B0360417E1400007E0400017E34010059
:10003000E4120C0B6D33801C7D232E2401007A51B9
:10004000827A4183E07D232E2400007A51827A4116
:1000500083F00B34BE37001640DE120C90E47AB306
:10006000000D020368120C84020368900100E00A8C
:100070003B7A370012900110E0B47D23900108E034
:10008000B40D028003020368900109E0B4420280CB
:1000900003020368120C25E4900114F00203689037
:1000A0000114E0B47D1990010CE0B40D1290010D23
:1000B000E0B4420B120C25E4900114F002036890A6
:1000C0000128E0B47D19900120E0B40D12900121C7
:1000D000E0B4420B120C25E4900114F00203687E98
:1000E0003700124D33781A900101E070149001022C
:1000F000E0700E900103E070087E3400657A3700EE
:10010000107E370012BE34000178557E3400027A2A
:100110003700167E1401007E0400017E370016129F
:100120000B037006120C840203687E1F001D120C64
:10013000654006120C780203687E1F001DCA1B7EF4
:100140003700216D227E1400007E04000112072278
:100150001BFE4006120C78020368120C9002036822
:100160007E370012BE3400FF78457E3400047A37B3
:1001700000167E1401007E0400017E370016120B6B
:10018000037006120C840203686D337A37001090F6
:100190000102E07C4B6C55900103E00A3B4D326D4F
:1001A000222E2400FF7A1F001D120C900203687E8D
:1001B000370012BE3400FE784E7E3400047A3700D9
:1001C000167E1401007E0400017E370016120B0318
:1001D0007006120C84020368900102E0B4010A7EEA
:1001E0003401007A370021800A900103E00A3B7A4B
:1001F00037002174017AB3000D7E3401007A370094
:100200001B120B920203687E370012BE3400FD7889
:100210002D7E3400027A3700167E1401007E040021
:10022000017E370016120B037006120C840203685D
:10023000120B3374C1120AD2120B920203687E377A
:100240000012BE34000278347E3400027A37001681
:100250007E1401007E0400017E370016120B03702D
:1002600006120C840203687E1F001D120C654006F6
:10027000120C78020368120C900203687E37001299
:10028000BE340004780674017AB300147E3700127D
:10029000BE34000368030203537E3400027A370041
:1002A000167E1401007E0400017E370016120B0337
:1002B0007006120C840203687E37000E0B347A3706
:1002C000000E900101E00A6B4D6678047E64010027
:1002D0007E3400807A37001B120B337D362E3400BB
:1002E000031209A57D737D177E0400017E34000290
:1002F000E4120C0BCA697D177E0400017E1F001DED
:10030000120C511BFD7D177E0400017D3612093C45
:100310007EB300087D372D367A71827A6183F07E54
:10032000B3001A7D372D360B347A71827A6183F0EF
:1003300074307D372D360B357A71827A6183F07D8A
:10034000362E3400037D177E040001120A53120B6F
:10035000928015120B3374C1120AD27E3700100B33
:10036000347A370010120B92DA3B227E1402027E9E
:100370000400017E340400120BBFC2AF75EA0075A1
:10038000E90175BA8074047E34FE017E24007E7A11
:100390001BB07E34FDEC7E24007E7E1BB0F59FA951
:1003A000D19DA9C09D74807E34FE027E24007E7A99
:1003B0001BB07E34FE027E24007E7E1BB030E0F255
:1003C00074407E34FE007E24007E7A1BB053DC0F26
:1003D00043DCA0000000000074017E34FE017E2496
:1003E000007E7A1BB07E34FE007E24007E7E1BB031
:1003F00044087A1BB074017E34FE0B7E24007E7AA2
:100400001BB074017E34FE937E24007E7A1BB0A95B
:10041000D79DA9C69DD2AFE47E34FEB57E24007E72
:100420007A1BB0E47E34FEB77E24007E7A1BB07463
:10043000FF7E34FEF27E24007E7A1BB074FF7E3491
:10044000FEF37E24007E7A1BB0E47E34FEEE7E2432
:10045000007E7A1BB0E47E34FEEF7E24007E7A1BA1
:10046000B0E47E34FEF07E24007E7A1BB0742F7ED2
:1004700034FEF17E24007E7A1BB0E47E34FEE47EFE
:1004800024007E7A1BB074017E34FEE07E24007E60
:100490007A1BB07594007593017E34FE307E240083
:1004A0007E7E1BB044017A1BB0E47E34FE187E24AD
:1004B000007E7A1BB07E34FE107E24007E7E1BB050
:1004C00044017A1BB075F5301205067E34FE107EAD
:1004D00024007E7E1BB054FE7A1BB07E34FE407E2C
:1004E00024007E7E1BB054FE7A1BB0759400759379
:1004F000011209FE1207E77E370010BE340064289F
:10050000F31208A980EECA797E34FE107E24007EA4
:100510007E1BB054FE7A1BB07E34FE407E24007EEB
:100520007E1BB044017A1BB07594007593017E1850
:1005300001F4120A936D778018A280B3500A7E37B7
:10054000000A0B347A37000A7E18000A120A930B4D
:1005500074BE7401F448E27E37000ABE3401C2283A
:10056000031208A97E34FE107E24007E7E1BB04458
:10057000017A1BB07E34FE407E24007E7E1BB05488
:10058000FE7A1BB07594007593017E1801F4120A6F
:10059000936D778018A280B3500A7E37000A0B341F
:1005A0007A37000A7E18000A120A930B74BE74018F
:1005B000F448E27E37000A4D33686A6D337A3700BB
:1005C0000A7E34FE107E24007E7E1BB054FE7A1B11
:1005D000B07E34FE407E24007E7E1BB054FE7A1B2B
:1005E000B07594007593017E1801F4120A936D772B
:1005F0008018A280B3500A7E37000A0B347A370085
:100600000A7E18000A120A930B74BE7401F448E2C1
:100610007E37000A4D33680D7E37000ABE34000075
:1006200028031208A9DA7922CA79E47AB3000CE423
:100630007E34FEEE7E24007E7A1BB0E47E34FEEF34
:100640007E24007E7A1BB080307E34FEEE7E240055
:100650007E7E1B707C476C557E14FEEF7E04007E10
:100660007E0B700A374D32BE344E20280C7E34008B
:10067000657A370010C302071FA280B340CBE47E27
:1006800034FEEE7E24007E7A1BB0E47E34FEEF7EE4
:1006900024007E7A1BB0802D7E34FEEE7E24007E08
:1006A0007E1B707C476C557E14FEEF7E04007E7EC0
:1006B0000B700A374D32BE34010428097EB3001591
:1006C0006003C3805A2080D07E18001A120A93302B
:1006D0008003C3804A6D7780227E180034120A930B
:1006E0007C6FA280E4337C7B7CB660053E7014781E
:1006F000FB4E73000C7A73000C0B74BE7400084838
:10070000D87E180034120A93A280B35003C3800F1E
:1007100074017AB300157E73000C7A730009D3DA82
:1007200079227F717F60A9D7C7693FFFFD692FFFDD
:10073000FB5E3401FF7836A9C4C775C503693FFF66
:10074000FD692FFFFB7CB5F5F6693FFFFD692FFFC3
:10075000FB7CB6F5C3695FFFFD694FFFFBF5C47510
:10076000C65A75C6A500000000A924C7FC75C502BD
:100770009F118046A9C4C7691FFFFD690FFFFB2FAA
:10078000017CB1F5F6691FFFFD690FFFFB2F017CAE
:10079000B2F5C3695FFFFD694FFFFB2F21F5C47DF3
:1007A000132D1D7D0C7E0BB0F5C275C65A75C6A5FE
:1007B00000000000A924C7FC0B1CBF1740B675C77A
:1007C0000075C50075C60075C3FF75C4FF7D3FCABF
:1007D00039693FFFFB692FFFF97F06120B631BFD91
:1007E0007003D38001C322CA3B6D337A37000EE415
:1007F0007AB300157E1401007E0400017E340102EC
:10080000E4120C0B120B929F33020894120628403C
:100810000302089D7EB3000D60297E3700210B3551
:10082000BE37000E68777EB3000C7D372E34010092
:100830007A71827A6183F07E37000E0B347A37004A
:100840000E804F7E34FEEE7E24007E7E1B707C4741
:100850006C557E14FEEF7E04007E7E0B700A374DD1
:1008600032BE3400FA28086D337A37000E802E7EAF
:10087000B3000C7D372E3401007A71827A6183F0E7
:10088000BE380101780C7E3700102E3400147A3700
:1008900000100B3CBE380102500302080C7EB3006E
:1008A000156003120003DA3B227E34F8007E240038
:1008B000FF7E1BA07EF410007EE400FF9F557E6843
:1008C0000040740A2F661478FB2F657E080100BE75
:1008D000A00168086D337A370010805F6937000225
:1008E0000B7A20BF15400B693700020B7A20BF1628
:1008F00028086D337A370010804169570006694730
:1009000000047E3410007E2400FFBF21401B740AC7
:100910002F001478FB2E0400FF2E0810006937000A
:100920000669270004BF1028086D337A370010804D
:100930000A7E3410007E2400FF9918227D437F70C8
:100940006D557A5700236D3380467F072D137E0B3C
:10095000A06C5580347E0700235E0400017CBA54ED
:10096000010A1B6D1068147E1700231E147A1700ED
:10097000236E14A0017A170023800A7E1700231E1D
:10098000147A1700231EA00B50BE500840C70B342A
:10099000BD3440B67E7300247A7300087E73002352
:1009A0007A73001A227D537E3401257E240000696B
:1009B0001100020B1A00BE08000078039F11226983
:1009C000400004BD4550047F1080E49D45BE4400B6
:1009D000185012695000020B0A40795100021B1A8C
:1009E000407F1080149E440006794000047F102D43
:1009F000342E340006795100042E340006227E3451
:100A00000030CA397E34F8007E2400FF7E140100D5
:100A10007E040001120C511BFD900102E0BEB00CDF
:100A20006830900102E0BEB0FF6827900102E060EC
:100A300021740C900102F07E34F8007E2400FFCA7D
:100A40001B7E1800307E1401007E04000112072274
:100A50001BFE22CA3BCA397F300BFD6D33793FFF45
:100A6000FF801F693FFFFF2D377D267E1BB0120AD6
:100A7000D27E180034120A93693FFFFF0B34793F8E
:100A8000FFFF692FFFFD693FFFFFBD3248D51BFE09
:100A9000DA3B227F71E47E34FEEE7E24007E7A1BF8
:100AA000B0E47E34FEEF7E24007E7A1BB07E34FEFE
:100AB000EE7E24007E7E1B707C476C557E14FEEF1C
:100AC0007E04007E7E0B700A374D326D22BF1740C8
:100AD000DC22CA797CFBC2807E180034120A936C37
:100AE000EE80167CBF30E004D2808002C2800BE032
:100AF0001EF07E180034120A93BEE00840E5D28052
:100B0000DA7922CA797D537F707F172D357E1BE0FD
:100B10007F172D3529F100017F077D3512093CBE75
:100B2000E30008780ABEF3001A780474018001E437
:100B3000DA7922D2807E34FE107E24007E7E1BB0C5
:100B400054FE7A1BB07E34FE407E24007E7E1BB0B5
:100B500054FE7A1BB04394015393FE7E1800341266
:100B60000A93227F217F70693FFFFD4D337802E4B5
:100B7000221B34793FFFFD7E2B607E7B70BC766844
:100B80000ABC76280374012274FF220BF40B5480F4
:100B9000D6227E34FE107E24007E7E1BB044017A75
:100BA0001BB07E34FE407E24007E7E1BB054FE7A55
:100BB0001BB07594007593016D337A370018227D50
:100BC000F37F207E3401257E240000791100021B72
:100BD0001A009F11793200021B2A207D3F9E3400AB
:100BE0000679320004227F217F707F10800A7E2BDD
:100BF000307A1B300B540B34691FFFFD7D011B0441
:100C0000790FFFFD4D1178E67F1722CAF87DF37C3E
:100C1000FB7F207F1080071BF47A2BF00B544DFFD5
:100C200078F5DAF822120B337E140FE87E0400FF09
:100C30007E340009120A53120B92227584017E44FD
:100C4000041FE47A49B01B4478F97EF800240203BB
:100C50006B7F217F70693FFFFDCA397F127F0712CA
:100C60000BE61BFD227F217E3410007E2400FFBF97
:100C7000214003D38001C322120B3374C1120AD264
:100C8000120B9222120B3374C2120AD2120B92224E
:100C9000120B337430120AD2120B922275ED21A579
:100CA000EF540FA2E0640822A5EC6480A5FC22A505
:100CB000EC547FA5FC2275ED22A5EF2275ED25A54C
:100CC000EF227C7475ED27227D3275ED282275EDBB
:100CD00033A5EF22A5FF75ED342275ED35A5EF2282
:100CE000A5FF75ED36226D0075ED02226D0075EDE4
:100CF000042275ED1C2275ED1D2275ED1E2275ED89
:100D00001F2275ED202275ED2D2275ED2E2275ED39
:100D10002F2275ED302275ED292275ED322275ED09
:0E0D2000312275ED022275ED042275ED0622DA
:100FE0005925E3DA4EB863D93437310035060601A6
:010FF00030D0
:00000001FF
