:10000000020BACCA3B7EB3000D60607E3700217AE4
:100010003700167E1401007E0400017E37001612A0
:100020000A5160417E1400007E0400017E3401000C
:10003000E4120B7C6D33801C7D232E2401007A5149
:10004000827A4183E07D232E2400007A51827A4116
:1000500083F00B34BE37001640DE120C01E47AB395
:10006000000D020368120BF5020368900100E00A1C
:100070003B7A370012900110E0B47D23900108E034
:10008000B40D028003020368900109E0B4420280CB
:1000900003020368120B96E4900114F002036890C7
:1000A0000114E0B47D1990010CE0B40D1290010D23
:1000B000E0B4420B120B96E4900114F00203689036
:1000C0000128E0B47D19900120E0B40D12900121C7
:1000D000E0B4420B120B96E4900114F00203687E28
:1000E0003700124D33781A900101E070149001022C
:1000F000E0700E900103E070087E3400657A3700EE
:10010000107E370012BE34000178557E3400027A2A
:100110003700167E1401007E0400017E370016129F
:100120000A517006120BF50203687E1F001D120BA8
:10013000D64006120BE90203687E1F001DCA1B7E13
:100140003700216D227E1400007E04000112070397
:100150001BFE4006120BE9020368120C0102036841
:100160007E370012BE3400FF78457E3400047A37B3
:1001700000167E1401007E0400017E370016120A6C
:10018000517006120BF50203686D337A3700109038
:100190000102E07C4B6C55900103E00A3B4D326D4F
:1001A000222E2400FF7A1F001D120C010203687E1C
:1001B000370012BE3400FE784E7E3400047A3700D9
:1001C000167E1401007E0400017E370016120A51CB
:1001D0007006120BF5020368900102E0B4010A7E7A
:1001E0003401007A370021800A900103E00A3B7A4B
:1001F00037002174017AB3000D7E3401007A370094
:100200001B120AE00203687E370012BE3400FD783C
:100210002D7E3400027A3700167E1401007E040021
:10022000017E370016120A517006120BF5020368A0
:10023000120A8174C1120A20120AE00203687E3792
:100240000012BE34000278347E3400027A37001681
:100250007E1401007E0400017E370016120A5170E0
:1002600006120BF50203687E1F001D120BD6400616
:10027000120BE9020368120C010203687E370012B8
:10028000BE340004780674017AB300147E3700127D
:10029000BE34000368030203537E3400027A370041
:1002A000167E1401007E0400017E370016120A51EA
:1002B0007006120BF50203687E37000E0B347A3796
:1002C000000E900101E00A6B4D6678047E64010027
:1002D0007E3400807A37001B120A817D362E34006E
:1002E000031208F37D737D177E0400017E34000243
:1002F000E4120B7CCA697D177E0400017E1F001D7D
:10030000120BC21BFD7D177E0400017D3612088A88
:100310007EB300087D372D367A71827A6183F07E54
:10032000B3001A7D372D360B347A71827A6183F0EF
:1003300074307D372D360B357A71827A6183F07D8A
:10034000362E3400037D177E0400011209A1120A23
:10035000E08015120A8174C1120A207E3700100B4A
:10036000347A370010120AE0DA3B227E1402027E51
:100370000400017E340400120B0DC2AF75EA007553
:10038000E90175BA8074047E34FE017E24007E7A11
:100390001BB07E34FDEC7E24007E7E1BB0F59FA951
:1003A000D19DA9C09D74807E34FE027E24007E7A99
:1003B0001BB07E34FE027E24007E7E1BB030E0F255
:1003C00074407E34FE007E24007E7A1BB053DC0F26
:1003D00043DCA0000000000074017E34FE017E2496
:1003E000007E7A1BB07E34FE007E24007E7E1BB031
:1003F00044087A1BB074017E34FE0B7E24007E7AA2
:100400001BB074017E34FE937E24007E7A1BB0A95B
:10041000D79DA9C69DD2AFE47E34FEF07E24007E37
:100420007A1BB0742F7E34FEF17E24007E7A1BB0DE
:1004300074FF7E34FEF27E24007E7A1BB074FF7E51
:1004400034FEF37E24007E7A1BB074FF7E34FEEE11
:100450007E24007E7A1BB074FF7E34FEEF7E240083
:100460007E7A1BB07E34FEE07E24007E7E1BB0448C
:10047000017A1BB07594007593017E34FE307E24A2
:10048000007E7E1BB044017A1BB0E47E34FE187EF1
:1004900024007E7A1BB07E34FE107E24007E7E1BFC
:1004A000B044017A1BB075F5301204E77E34FE10BB
:1004B0007E24007E7E1BB054FE7A1BB07E34FE404C
:1004C0007E24007E7E1BB054FE7A1BB075940075AE
:1004D000930112094C1207C87E370010BE34006425
:1004E00028F3120B5980EECA797E34FE107E240068
:1004F0007E7E1BB054FE7A1BB07E34FE407E24000C
:100500007E7E1BB044017A1BB07594007593017E0A
:100510001801F41209E16D778018A280B3500A7EA9
:1005200037000A0B347A37000A7E18000A1209E1F4
:100530000B74BE7401F448E27E37000ABE3401C277
:100540002803120B597E34FE107E24007E7E1BB0E1
:1005500044017A1BB07E34FE407E24007E7E1BB0B8
:1005600054FE7A1BB07594007593017E1801F41245
:1005700009E16D778018A280B3500A7E37000A0B1C
:10058000347A37000A7E18000A1209E10B74BE742F
:1005900001F448E27E37000A4D33686A6D337A37DA
:1005A000000A7E34FE107E24007E7E1BB054FE7A4C
:1005B0001BB07E34FE407E24007E7E1BB054FE7A4B
:1005C0001BB07594007593017E1801F41209E16D5A
:1005D000778018A280B3500A7E37000A0B347A372E
:1005E000000A7E18000A1209E10B74BE7401F44877
:1005F000E27E37000A4D33680D7E37000ABE3400B4
:10060000002803120B59DA7922CA79E47AB3000C74
:10061000E47E34FEEE7E24007E7A1BB0E47E34FE5F
:10062000EF7E24007E7A1BB080307E34FEEE7E2486
:10063000007E7E1B707C476C557E14FEEF7E0400AE
:100640007E7E0B700A374D32BE344E20280C7E342D
:1006500000657A370010C3020700A280B340CBE4E4
:100660007E34FEEE7E24007E7A1BB0E47E34FEEF04
:100670007E24007E7A1BB0802D7E34FEEE7E240028
:100680007E7E1B707C476C557E14FEEF7E04007EE0
:100690007E0B700A374D32BE34010428097EB30048
:1006A000156003C3805A2080D07E18001A1209E119
:1006B000308003C3804A6D7780227E18003412098F
:1006C000E17C6FA280E4337C7B7CB660053E7014D5
:1006D00078FB4E73000C7A73000C0B74BE74000828
:1006E00048D87E1800341209E1A280B35003C380B9
:1006F0000F74017AB300157E73000C7A730009D36E
:10070000DA79227F717F60A9D7C7693FFFFD692F22
:10071000FFFB5E3401FF7836A9C4C775C503693F86
:10072000FFFD692FFFFB7CB5F5F6693FFFFD692FE3
:10073000FFFB7CB6F5C3695FFFFD694FFFFBF5C4A6
:1007400075C65A75C6A500000000A924C7FC75C56A
:10075000029F118046A9C4C7691FFFFD690FFFFBF7
:100760002F017CB1F5F6691FFFFD690FFFFB2F011B
:100770007CB2F5C3695FFFFD694FFFFB2F21F5C414
:100780007D132D1D7D0C7E0BB0F5C275C65A75C646
:10079000A500000000A924C7FC0B1CBF1740B675BC
:1007A000C70075C50075C60075C3FF75C4FF7D3FE2
:1007B000CA39693FFFFB692FFFF97F06120AB11B97
:1007C000FD7003D38001C322CA3B6D337A37000E1C
:1007D000E47AB300157E1401007E0400017E34012A
:1007E00002E4120B7C120AE09F330208751206091C
:1007F000400302087E7EB3000D60297E3700210B86
:1008000035BE37000E68777EB3000C7D372E34017D
:10081000007A71827A6183F07E37000E0B347A376A
:10082000000E804F7E34FEEE7E24007E7E1B707CA8
:10083000476C557E14FEEF7E04007E7E0B700A37F7
:100840004D32BE3400FA28086D337A37000E802E00
:100850007EB3000C7D372E3401007A71827A618379
:10086000F0BE380101780C7E3700102E3400147A67
:100870003700100B3CBE38010250030207ED7EB377
:1008800000156003120003DA3B227D437F706D5533
:100890007A5700236D3380467F072D137E0BA06CA3
:1008A0005580347E0700235E0400017CBA54010A9F
:1008B0001B6D1068147E1700231E147A1700236E18
:1008C00014A0017A170023800A7E1700231E147AD1
:1008D0001700231EA00B50BE500840C70B34BD3478
:1008E00040B67E7300247A7300087E7300237A7307
:1008F000001A227D537E3401257E240000691100F8
:10090000020B1A00BE08000078039F112269400004
:1009100004BD4550047F1080E49D45BE440018503E
:1009200012695000020B0A40795100021B1A407FE5
:100930001080149E440006794000047F102D342E50
:10094000340006795100042E340006227E34003033
:10095000CA397E34F8007E2400FF7E1401007E0434
:100960000001120BC21BFD900102E0BEB00C68300A
:10097000900102E0BEB0FF6827900102E0602174A0
:100980000C900102F07E34F8007E2400FFCA1B7E2A
:100990001800307E1401007E0400011207031BFEC4
:1009A00022CA3BCA397F300BFD6D33793FFFFF8090
:1009B0001F693FFFFF2D377D267E1BB0120A207E68
:1009C0001800341209E1693FFFFF0B34793FFFFF44
:1009D000692FFFFD693FFFFFBD3248D51BFEDA3BA3
:1009E000227F71E47E34FEEE7E24007E7A1BB0E42A
:1009F0007E34FEEF7E24007E7A1BB07E34FEEE7ED7
:100A000024007E7E1B707C476C557E14FEEF7E04B6
:100A1000007E7E0B700A374D326D22BF1740DC22FC
:100A2000CA797CFBC2807E1800341209E16CEE802A
:100A3000167CBF30E004D2808002C2800BE01EF042
:100A40007E1800341209E1BEE00840E5D280DA7970
:100A500022CA797D537F707F172D357E1BE07F176B
:100A60002D3529F100017F077D3512088ABEE3008C
:100A700008780ABEF3001A780474018001E4DA7978
:100A800022D2807E34FE107E24007E7E1BB054FE77
:100A90007A1BB07E34FE407E24007E7E1BB054FE66
:100AA0007A1BB04394015393FE7E1800341209E17F
:100AB000227F217F70693FFFFD4D337802E4221BC6
:100AC00034793FFFFD7E2B607E7B70BC76680ABC6C
:100AD00076280374012274FF220BF40B5480D62273
:100AE0007E34FE107E24007E7E1BB044017A1BB053
:100AF0007E34FE407E24007E7E1BB054FE7A1BB006
:100B00007594007593016D337A370018227DF37F59
:100B1000207E3401257E240000791100021B1A007A
:100B20009F11793200021B2A207D3F9E34000679F6
:100B3000320004227F217F707F10800A7E2B307A62
:100B40001B300B540B34691FFFFD7D011B04790F13
:100B5000FFFD4D1178E67F17227E34F8007E2400D9
:100B6000FF7E1BB0BEB00168086D337A370010807D
:100B70000A7E3410007E2400FF991822CAF87DF303
:100B80007CFB7F207F1080071BF47A2BF00B544DE9
:100B9000FF78F5DAF822120A817E140FE87E04004D
:100BA000FF7E3400091209A1120AE0227584017E39
:100BB00044041FE47A49B01B4478F97EF80024020B
:100BC000036B7F217F70693FFFFDCA397F127F076A
:100BD000120B341BFD227F217E3410007E2400FF87
:100BE000BF214003D38001C322120A8174C1120ABB
:100BF00020120AE022120A8174C2120A20120AE0AC
:100C000022120A817430120A20120AE02275ED21A4
:100C1000A5EF540FA2E0640822A5EC6480A5FC2295
:100C2000A5EC547FA5FC2275ED22A5EF2275ED25DC
:100C3000A5EF227C7475ED27227D3275ED28227593
:100C4000ED33A5EF22A5FF75ED342275ED35A5EF47
:100C500022A5FF75ED36226D0075ED02226D00753F
:100C6000ED042275ED1C2275ED1D2275ED1E227519
:100C7000ED1F2275ED202275ED2D2275ED2E2275CA
:100C8000ED2F2275ED302275ED292275ED3222759A
:0F0C9000ED312275ED022275ED042275ED06227D
:100FE0005925E3DA4EB863D93437310035060601A6
:010FF00030D0
:00000001FF
