:10000000020D7ECA790BFE7EB3001760467E370272
:100010003B7A3701267E0801297E370126120E25FC
:10002000602B7E08001C7E340100E4120E7C6D33D0
:10003000800A095301291953001C0B34BE370126CD
:1000400040F0120EEDE47AB30017020343120EE102
:100050000203437E7301290A377A3701207EB301F8
:1000600039B47D237EB30131B40D02800302034312
:100070007EB30132B442028003020343120EA9E4AC
:100080007AB3013D0203437EB3013DB47D197EB3D3
:100090000135B40D127EB30136B4420B120EA9E441
:1000A0007AB3013D0203437EB30151B47D197EB39F
:1000B0000149B40D127EB3014AB4420B120EA9E4F9
:1000C0007AB3013D0203437E3701204D33781A7E17
:1000D000B3012A70147EB3012B700E7EB3012C7015
:1000E000087E3400657A37011C7E370120BE34005B
:1000F0000178437E3400027A3701267E0801297E8A
:10010000370126120E257006120EE10203437E1FF0
:100110000237120EBB4006120ED50203437E1F02A9
:1001200037CA1B7E37023B7E08001C1208B71BFE35
:10013000120EED0203437E370120BE3400FF783DEE
:100140007E3400047A3701267E0801297E37012695
:10015000120E257006120EE10203436D337A370149
:100160001C7E73012B7C476C557E73012C0A374D26
:10017000326D227A1F0237120EED0203437E3701E1
:1001800020BE3400FE784A7E3400047A3701267E91
:100190000801297E370126120E257006120EE10293
:1001A00003437EB3012BB4010A7E3401007A370287
:1001B0003B800A7E73012C0A377A37023B74017A3E
:1001C000B300177E3401007A37022E120EF90203B3
:1001D000437E370120BE3400FD78297E3400027A48
:1001E0003701267E0801297E370126120E2570066A
:1001F000120EE1020343120E5574C1120DF4120ED9
:10020000F90203437E370120BE34000278307E3489
:1002100000027A3701267E0801297E370126120E58
:10022000257006120EE10203437E1F0237120EBB39
:100230004006120ED5020343120EED0203437E3731
:100240000120BE340004780674017AB301227E379F
:100250000120BE340003680302032E7E3400027ABC
:100260003701267E0801297E370126120E257006E9
:10027000120EE10203437E3700180B347A37001860
:100280007E73012A0A774D7778047E7401007E34EC
:1002900000807A37022E7D372E340003120BDD7971
:1002A0003FFFFF792FFFFD120E55691FFFFF690FFA
:1002B000FFFD7E340004E4120E7CCA797E1F0237F3
:1002C000691FFFFD690FFFFB120B791BFD691FFF03
:1002D000FF690FFFFD7D37120B107E330008693F69
:1002E000FFFF692FFFFD2D377A1B307E73022D69CA
:1002F0001FFFFF690FFFFD2D173970000174306972
:100300003FFFFF692FFFFD2D3739B100027D372EEA
:10031000340003691FFFFF690FFFFD120CFF120E6F
:10032000F9691FFFFF690FFFFD1206488015120EC5
:100330005574C1120DF47E37011C0B347A37011C41
:10034000120EF91BFEDA79227F507EC400007ED4A3
:1003500002697E9403590203A14001227CEACA8902
:10036000CA5BCA6B120EC8DA6BDA5BDA897E940359
:10037000597CAE22540F2490D43440D430F30CBEB8
:10038000B0414007BEB05B500224204CCC68021B39
:10039000C00B84D389944CCC680B742012038B80DF
:1003A000F5CA3B6D889F337CAE7E5BB00B5C7007FB
:1003B000C37D38DA3B8994B42569C2F37E5BB00B08
:1003C0005CA5F824D0BEB00A501B7E500A20F60D62
:1003D000AC5CA52D7CCB70034EF00180DDAC5DA53F
:1003E0002D7CDB80D524CFBEB01AA5E850055E0079
:1003F000DFD2F3900617A3E4936011BCB078F774D2
:1004000014934CAB30F6B34EF08080AEA3E493600F
:1004100010BCB078F77413937C3B741D937C2B89CC
:10042000147CB08013742012038B20F205BEC0022E
:1004300050F31B6D29B6000112038B0203961B6E4D
:10044000691600020B6A00BE08000078087E0400EE
:10045000FF7E140F0320F21E4CCC681A7F10E47E3E
:100460001B804C8868070B1C04BCBD78F2C2F6CA1E
:100470000B120575DA0B7E0BB060C0CA0B12038B32
:10048000DA0B0B0C4CDD68EE1BD078EA80ADD2F0B5
:100490007E101080037E10085EB05F800AD2F67E68
:1004A000100A80057E100AC2F66D119F117E002091
:1004B0001B6C7E6B7030F6021A3720F1051B6C7EC8
:1004C0006B6030F6041A261A2430F0051B6D0B6A97
:1004D00020A5EC3382F692F6500A7CEA9F229F21F7
:1004E0007F127CAE4C44780F7C457C567C676C77E1
:1004F0002E00F878EF80122F117CB3337C3B9CB137
:1005000040047C3B0B70A5D8EE7CB230E005DAB835
:10051000C44C3BCA380B207E00207E3000BE180041
:100520000078C1BE1008780730F404C2F480B5CA60
:10053000287CB2BCBD38027CBD120575DA28BC2D02
:10054000500A1BD0E4CA2812037480F07CB213DA7C
:10055000B84004C4CAB8C4CA28BEF08040095CDDF3
:100560007805A5DA0260065EF07F120374DA28A52A
:10057000DADA020396BEF001680F30F4022402209A
:10058000F50620F70330F6010420F229BCBC502503
:10059000CAB87CBF13B0E67420501174307C8A5EF8
:1005A00080F068081205B55EA00F800312038BDA95
:1005B000B8BCBC78DB30F40F743012038B74583045
:1005C000F302747812038B30F605742D02038B74DA
:1005D0002B20F5F8742020F7F3221B6C7E6BB010F3
:1005E000F1021B6C20F60B30E704F404D2F27CCB52
:1005F000800520E7057CDB0203BA5EF07F80F81BF4
:100600006E691600020B6A0030F0076D221B0A208B
:100610000B0D1B0A800203A52D2B204C4248232ED4
:100620000053584F44494355502A4E00042080013E
:10063000020010403E90959D9D2AA48EDAFF04048E
:1006400004040404040405057F20BE280000780388
:1006500002072E9E5400067E3403697E2400006942
:10066000F100020B1AE0BE78000078197E340369AD
:100670007E240000795100021B1A409F117932003C
:10068000021B2A2022BF2750157E3403697E2400D6
:1006900000795100021B1A407F679F77801569D748
:1006A00000020B7AC0BE6800006808BF6238047F91
:1006B0007680EBBE6800006831692200047F022D5D
:1006C000122E140006BF067821693600042E34006D
:1006D000067F020B162D321B0A30693600020B6AA8
:1006E00020793200021B2A20800779D200021B2ABF
:1006F000C0BE7800006837692700047F072D122EDE
:10070000140006BF027820693200042E3400067FF0
:10071000070B162D321B0A30693200020B2A207992
:100720003700021B7A2022795700021B7A4022CA26
:1007300079E47AB3001674037E34FEF17E24007EE1
:100740007A1BB0802F7E34FEEE7E24007E7E1B70EE
:100750007C476C557E14FEEF7E04007E7E0B700A93
:10076000374D32BE34C350280B7E3400657A3701D2
:100770001C0207FAA281B340CCE47E34FEF17E2451
:10078000007E7A1BB0802A7E34FEEE7E24007E7EC0
:100790001B707C476C557E14FEEF7E04007E7E0B42
:1007A000700A374D32BE3400FA28067EB30123703A
:1007B000492081D37E18001A120D3F6D7780207E6C
:1007C000180034120D3FA281E4337C7B7CBF6005AE
:1007D0003E701478FB4E7300167A7300160B74BECD
:1007E00074000848DA7E18001A120D3F74017AB3BB
:1007F00001237E7300167A730232DA7922CA797E77
:1008000034FE107E24007E7E1BB054FD7A1BB07E29
:1008100034FE407E24007E7E1BB044027A1BB07EF4
:100820001801F4120D3F6D778018A281B3500A7E33
:100830003700130B347A3700137E18000A120D3F6D
:100840000B74BE7401F448E27E3700134D336864C4
:100850006D337A3700137E34FE107E24007E7E1BBB
:10086000B054FD7A1BB07E34FE407E24007E7E1B99
:10087000B054FD7A1BB07E1801F4120D3F6D7780E5
:1008800018A281B3500A7E3700130B347A37001355
:100890007E18000A120D3F0B74BE7401F448E27E0C
:1008A0003700134D33680D7E370013BE3400002827
:1008B00003120C7ADA79227DF3A9D7C775F530696E
:1008C0003FFFFD692FFFFB7DE35EE401FF78337599
:1008D000C503693FFFFD692FFFFB7CB5F5F6693F56
:1008E000FFFD692FFFFB7CB6F5C3695FFFFD694F14
:1008F000FFFBF5C475C65A75C6A500000000A92403
:10090000C7FC75C502693FFFFD692FFFFB7CB5F58C
:10091000F6693FFFFD692FFFFB7CB6F5C3695FFFFA
:10092000FD694FFFFBF5C47E0BB0F5C275C65A7565
:10093000C6A500000000A924C7FC693FFFFD692F80
:10094000FFFB0B1C793FFFFD792FFFFB0B147DEFA5
:100950001BE47DFE78AF75C70075C50075C60075D0
:10096000C3FF75C4FF22CA796D776D337A370018DB
:10097000E47AB301237E0801297E340102E4120ED9
:100980007C6D77807112072F7EB3001760207E3751
:10099000023B0B35BE37001868627E73001619776C
:1009A00001297E3700180B347A37001880467E34D0
:1009B000FEEE7E24007E7E1B707C476C557E14FE0E
:1009C000EF7E04007E7E0B700A374D32BE3400FA93
:1009D00028086D337A37001880227E730016197745
:1009E0000129BE740101780C7E37011C2E340014DD
:1009F0007A37011C0B74BE7401024889120003DAB5
:100A00007922C2AF75EA0075E90175BA8074047E77
:100A100034FE017E24007E7A1BB07E34FDEC7E2401
:100A2000007E7E1BB0F59FA9D19DA9C09D74807EDC
:100A300034FE027E24007E7A1BB07E34FE027E24C9
:100A4000007E7E1BB030E0F274407E34FE007E24D7
:100A5000007E7A1BB053DC0F43DCA00000000000D6
:100A600074017E34FE017E24007E7A1BB07E34FE4B
:100A7000007E24007E7E1BB044087A1BB074017E89
:100A800034FE0B7E24007E7A1BB0A9D79DA9C69D9B
:100A9000D2AF22E47E34FEB57E24007E7A1BB0E421
:100AA0007E34FEB77E24007E7A1BB074FF7E34FE57
:100AB000F27E24007E7A1BB074FF7E34FEF37E2427
:100AC000007E7A1BB0E47E34FEEE7E24007E7A1B2C
:100AD000B0E47E34FEEF7E24007E7A1BB0E47E34E8
:100AE000FEF07E24007E7A1BB0742F7E34FEF17EF1
:100AF00024007E7A1BB0E47E34FEE47E24007E7AFD
:100B00001BB074017E34FEE07E24007E7A1BB0228E
:100B10007D437F706D557A57023F6D3380467F0766
:100B20002D137E0BA06C5580347E07023F5E0400BF
:100B3000017CBA54010A1B6D1068147E17023F1E17
:100B4000147A17023F6E14A0017A17023F800A7EC2
:100B500017023F1E147A17023F1EA00B50BE50080A
:100B600040C70B34BD3440B67E73023F7A73000831
:100B70007E7302407A73022D227F717F60A9D7C7EE
:100B800075F53075C5016D33803B7D131A021A006F
:100B90002F077CB1F5F67D131A021A002F077CB2DD
:100BA000F5C37D531A4A1A482F27F5C475C65A75DE
:100BB000C6A500000000A924C7FCE5C27F062D13CE
:100BC0007A0BB00B34692FFFFDBD3248BD75C700ED
:100BD00075C50075C60075C3FF75C4FF227D537EC1
:100BE0003403697E240000691100020B1A00BE085C
:100BF000000078039F112269400004BD4550047F26
:100C00001080E49D45BE4400185012695000020B4C
:100C10000A40795100021B1A407F1080149E440044
:100C200006794000047F102D342E340006795100DF
:100C3000042E34000622120A02120E9643B2035307
:100C4000B1FC4396035395FC120A937E34FEEE7E6C
:100C500024007E7E1B707C476C557E14FEEF7E0464
:100C6000007E7E0B700A374D327A3702677E140F92
:100C70005C7E0400FF12034880D1C2AFA9D7C775BC
:100C8000F53075C50175F60075C30075C40075C6ED
:100C90005A75C6A500000000A924C7FCE5C275C7A7
:100CA0000075C50075C60075C3FF75C4FFBEB001F1
:100CB00068086D337A37011C800375C720227E34A3
:100CC0000030CA399F117E080129120B791BFD7E65
:100CD000B3012BBEB00A68267EB3012BBEB0FF68FD
:100CE0001D7EB3012B6017740A7AB3012B9F11CAC2
:100CF0001B7E0801297E3400301208B71BFE22CA71
:100D00003BCA397F300BFD6D33793FFFFF801F6990
:100D10003FFFFF2D377D267E1BB0120DF47E18009D
:100D200034120D3F693FFFFF0B34793FFFFF692FFE
:100D3000FFFD693FFFFFBD3248D51BFEDA3B227F36
:100D400071E47E34FEEE7E24007E7A1BB0E47E34B5
:100D5000FEEF7E24007E7A1BB07E34FEEE7E240001
:100D60007E7E1B707C476C557E14FEEF7E04007EF9
:100D70007E0B700A374D326D22BF1740DC2275841E
:100D8000017E44041FE47A49B01B4478F97EF802DE
:100D9000687E0400FF7E140F070B0A405D44681A4A
:100DA000692000020B0E0B44800A7E0BB07A29B03A
:100DB0000B240B0C1B4478F280DF020C365394FD9D
:100DC0004393027E34FE187E24007E7E1BB054FDC9
:100DD0007A1BB07E34FE307E24007E7E1BB044023F
:100DE0007A1BB07E34FE107E24007E7E1BB044024F
:100DF0007A1BB022CA797CFB6CEEC28180167E1809
:100E00000034120D3F7CBF30E004D2818002C281E9
:100E10000BE00EF0BEE00848E57E180034120D3FEE
:100E2000D281DA7922CA797D537F707F172D357E82
:100E30001BE07F172D3529F100017F077D35120B4F
:100E400010BEE30008780ABEF3022D780474018016
:100E500001E4DA79224394025393FD7E34FE107E3E
:100E600024007E7E1BB054FD7A1BB07E34FE407E93
:100E700024007E7E1BB054FD7A1BB022CAF87DF39D
:100E80007CFB7F207F1080071BF47A2BF00B544DE6
:100E9000FF78F5DAF822759850438E01438E047579
:100EA000D7F375D6FF438E1022120E557E08000A26
:100EB0007E340009120CFF120EF9227F01BE0800D9
:100EC000004003D38001C3227CAB7AA1993099FD05
:100ED000C2997CBA22120E5574C1120DF4120EF989
:100EE00022120E5574C2120DF4120EF922120E5572
:100EF0007430120DF4120EF922120DBD6D337A37D3
:100F0000022B22283029000009000A0000000000FE
:100F100000000000000200130000000100150A009C
:100F20000100160000010017000002001800000078
:100F300002001A00000002011C00000001011F0154
:100F40000002012000000001012200000101230035
:100F500000010124000001012800000025750A009D
:00000001FF
